{
  "_format": "hh-sol-artifact-1",
  "contractName": "LTE_tokentransfer",
  "sourceName": "contracts/hts-precompile/LTE_tokentransfer.sol",
  "abi": [
    {
      "anonymous": false,
      "inputs": [
        {
          "indexed": false,
          "internalType": "bool",
          "name": "",
          "type": "bool"
        },
        {
          "indexed": false,
          "internalType": "bytes",
          "name": "",
          "type": "bytes"
        }
      ],
      "name": "CallResponseEvent",
      "type": "event"
    },
    {
      "anonymous": false,
      "inputs": [
        {
          "indexed": false,
          "internalType": "int256",
          "name": "responseCode",
          "type": "int256"
        }
      ],
      "name": "ResponseCode",
      "type": "event"
    },
    {
      "inputs": [
        {
          "components": [
            {
              "components": [
                {
                  "internalType": "address",
                  "name": "accountID",
                  "type": "address"
                },
                {
                  "internalType": "int64",
                  "name": "amount",
                  "type": "int64"
                },
                {
                  "internalType": "bool",
                  "name": "isApproval",
                  "type": "bool"
                }
              ],
              "internalType": "struct IHederaTokenService.AccountAmount[]",
              "name": "transfers",
              "type": "tuple[]"
            }
          ],
          "internalType": "struct IHederaTokenService.TransferList",
          "name": "transferList",
          "type": "tuple"
        },
        {
          "components": [
            {
              "internalType": "address",
              "name": "token",
              "type": "address"
            },
            {
              "components": [
                {
                  "internalType": "address",
                  "name": "accountID",
                  "type": "address"
                },
                {
                  "internalType": "int64",
                  "name": "amount",
                  "type": "int64"
                },
                {
                  "internalType": "bool",
                  "name": "isApproval",
                  "type": "bool"
                }
              ],
              "internalType": "struct IHederaTokenService.AccountAmount[]",
              "name": "transfers",
              "type": "tuple[]"
            },
            {
              "components": [
                {
                  "internalType": "address",
                  "name": "senderAccountID",
                  "type": "address"
                },
                {
                  "internalType": "address",
                  "name": "receiverAccountID",
                  "type": "address"
                },
                {
                  "internalType": "int64",
                  "name": "serialNumber",
                  "type": "int64"
                },
                {
                  "internalType": "bool",
                  "name": "isApproval",
                  "type": "bool"
                }
              ],
              "internalType": "struct IHederaTokenService.NftTransfer[]",
              "name": "nftTransfers",
              "type": "tuple[]"
            }
          ],
          "internalType": "struct IHederaTokenService.TokenTransferList[]",
          "name": "tokenTransferList",
          "type": "tuple[]"
        }
      ],
      "name": "cryptoTransferPublic",
      "outputs": [
        {
          "internalType": "int256",
          "name": "responseCode",
          "type": "int256"
        }
      ],
      "stateMutability": "nonpayable",
      "type": "function"
    },
    {
      "inputs": [
        {
          "internalType": "address",
          "name": "token",
          "type": "address"
        },
        {
          "internalType": "bytes",
          "name": "encodedFunctionSelector",
          "type": "bytes"
        }
      ],
      "name": "redirectForToken",
      "outputs": [],
      "stateMutability": "nonpayable",
      "type": "function"
    },
    {
      "inputs": [
        {
          "internalType": "address",
          "name": "token",
          "type": "address"
        },
        {
          "internalType": "address",
          "name": "from",
          "type": "address"
        },
        {
          "internalType": "address",
          "name": "to",
          "type": "address"
        },
        {
          "internalType": "uint256",
          "name": "amount",
          "type": "uint256"
        }
      ],
      "name": "transferFrom",
      "outputs": [
        {
          "internalType": "int64",
          "name": "responseCode",
          "type": "int64"
        }
      ],
      "stateMutability": "nonpayable",
      "type": "function"
    },
    {
      "inputs": [
        {
          "internalType": "address",
          "name": "token",
          "type": "address"
        },
        {
          "internalType": "address",
          "name": "from",
          "type": "address"
        },
        {
          "internalType": "address",
          "name": "to",
          "type": "address"
        },
        {
          "internalType": "uint256",
          "name": "serialNumber",
          "type": "uint256"
        }
      ],
      "name": "transferFromNFT",
      "outputs": [
        {
          "internalType": "int64",
          "name": "responseCode",
          "type": "int64"
        }
      ],
      "stateMutability": "nonpayable",
      "type": "function"
    },
    {
      "inputs": [
        {
          "internalType": "address",
          "name": "token",
          "type": "address"
        },
        {
          "internalType": "address[]",
          "name": "accountId",
          "type": "address[]"
        },
        {
          "internalType": "int64[]",
          "name": "amount",
          "type": "int64[]"
        }
      ],
      "name": "transferTokensPublic",
      "outputs": [
        {
          "internalType": "int256",
          "name": "responseCode",
          "type": "int256"
        }
      ],
      "stateMutability": "nonpayable",
      "type": "function"
    }
  ],
  "bytecode": "0x608060405234801561001057600080fd5b50600160208181527fa6eef7e35abe7026729641147f7915573c7e97b47efa546f5f6e3230263bcb499190915560027fcc69885fda6bcc1a4ace058b4a62bf5e179ea78fd58a1ccd71c22cc9b688792f5560047fd9d16d34ffb15ba3a3d852f0d403e2ce1d691fb54de27ac87cd2f993f3ec330f5560087f7dfe757ecd65cbd7922a9c0161e935dd7fdbcc0e999689c7d31633896b1fc60b5560107fedc95719e9a3b28dd8e80877cb5880a9be7de1a13fc8b05e7999683b6b567643557fe2689cd4a84e23ad2f564004f1c9013e9589d260bde6380aba3ca7e09e4df40c55600660005260407f8f331abe73332f95a25873e8b430885974c0409691f89d643119a11623a7924a55610e9d806101276000396000f3fe608060405234801561001057600080fd5b50600436106100575760003560e01c806315dacbea1461005c5780635813155114610087578063618dc65e146100a8578063970e23d2146100bd5780639b23d3d9146100d0575b600080fd5b61006f61006a36600461055c565b6100e3565b60405160079190910b81526020015b60405180910390f35b61009a6100953660046106e2565b6101d7565b60405190815260200161007e565b6100bb6100b63660046107b4565b610233565b005b61009a6100cb36600461085a565b610321565b61006f6100de36600461055c565b61033e565b6040516001600160a01b038581166024830152848116604483015283166064820152608481018290526000908190819061016790630aed65f560e11b9060a4015b60408051601f198184030181529181526020820180516001600160e01b03166001600160e01b03199094169390931790925290516101629190610920565b6000604051808303816000865af19150503d806000811461019f576040519150601f19603f3d011682016040523d82523d6000602084013e6101a4565b606091505b5091509150816101b55760156101c9565b808060200190518101906101c9919061093c565b60030b979650505050505050565b60006101e4848484610383565b90507f90a5cf4cffe88b4edbb041cfc7a8a812c48a5ec30b84640fb37690875168e3aa8160405161021791815260200190565b60405180910390a16016811461022c57600080fd5b9392505050565b6000806101676001600160a01b031663618dc65e60e01b858560405160240161025d92919061098b565b60408051601f198184030181529181526020820180516001600160e01b03166001600160e01b031990941693909317909252905161029b9190610920565b6000604051808303816000865af19150503d80600081146102d8576040519150601f19603f3d011682016040523d82523d6000602084013e6102dd565b606091505b50915091507f4af4780e06fe8cb9df64b0794fa6f01399af979175bb988e35e0e57e594567bc82826040516103139291906109b5565b60405180910390a150505050565b60006101e461032f85610a89565b6103398486610aea565b610463565b6040516001600160a01b038581166024830152848116604483015283166064820152608481018290526000908190819061016790639b23d3d960e01b9060a401610124565b60008060006101676001600160a01b03166382bba49360e01b8787876040516024016103b193929190610c75565b60408051601f198184030181529181526020820180516001600160e01b03166001600160e01b03199094169390931790925290516103ef9190610920565b6000604051808303816000865af19150503d806000811461042c576040519150601f19603f3d011682016040523d82523d6000602084013e610431565b606091505b509150915081610442576015610456565b80806020019051810190610456919061093c565b60030b9695505050505050565b60008060006101676001600160a01b0316630e71804f60e01b868660405160240161048f929190610d6a565b60408051601f198184030181529181526020820180516001600160e01b03166001600160e01b03199094169390931790925290516104cd9190610920565b6000604051808303816000865af19150503d806000811461050a576040519150601f19603f3d011682016040523d82523d6000602084013e61050f565b606091505b509150915081610520576015610534565b80806020019051810190610534919061093c565b60030b95945050505050565b80356001600160a01b038116811461055757600080fd5b919050565b6000806000806080858703121561057257600080fd5b61057b85610540565b935061058960208601610540565b925061059760408601610540565b9396929550929360600135925050565b634e487b7160e01b600052604160045260246000fd5b6040516060810167ffffffffffffffff811182821017156105e0576105e06105a7565b60405290565b6040516080810167ffffffffffffffff811182821017156105e0576105e06105a7565b604051601f8201601f1916810167ffffffffffffffff81118282101715610632576106326105a7565b604052919050565b600067ffffffffffffffff821115610654576106546105a7565b5060051b60200190565b8035600781900b811461055757600080fd5b600082601f83011261068157600080fd5b813560206106966106918361063a565b610609565b82815260059290921b840181019181810190868411156106b557600080fd5b8286015b848110156106d7576106ca8161065e565b83529183019183016106b9565b509695505050505050565b6000806000606084860312156106f757600080fd5b61070084610540565b925060208085013567ffffffffffffffff8082111561071e57600080fd5b818701915087601f83011261073257600080fd5b81356107406106918261063a565b81815260059190911b8301840190848101908a83111561075f57600080fd5b938501935b828510156107845761077585610540565b82529385019390850190610764565b96505050604087013592508083111561079c57600080fd5b50506107aa86828701610670565b9150509250925092565b600080604083850312156107c757600080fd5b6107d083610540565b915060208084013567ffffffffffffffff808211156107ee57600080fd5b818601915086601f83011261080257600080fd5b813581811115610814576108146105a7565b610826601f8201601f19168501610609565b9150808252878482850101111561083c57600080fd5b80848401858401376000848284010152508093505050509250929050565b60008060006040848603121561086f57600080fd5b833567ffffffffffffffff8082111561088757600080fd5b908501906020828803121561089b57600080fd5b909350602085013590808211156108b157600080fd5b818601915086601f8301126108c557600080fd5b8135818111156108d457600080fd5b8760208260051b85010111156108e957600080fd5b6020830194508093505050509250925092565b60005b838110156109175781810151838201526020016108ff565b50506000910152565b600082516109328184602087016108fc565b9190910192915050565b60006020828403121561094e57600080fd5b81518060030b811461022c57600080fd5b600081518084526109778160208601602086016108fc565b601f01601f19169290920160200192915050565b6001600160a01b03831681526040602082015260006109ad604083018461095f565b949350505050565b82151581526040602082015260006109ad604083018461095f565b8035801515811461055757600080fd5b600082601f8301126109f157600080fd5b81356020610a016106918361063a565b82815260609283028501820192828201919087851115610a2057600080fd5b8387015b85811015610a7c5781818a031215610a3c5760008081fd5b610a446105bd565b610a4d82610540565b8152610a5a86830161065e565b868201526040610a6b8184016109d0565b908201528452928401928101610a24565b5090979650505050505050565b600060208236031215610a9b57600080fd5b6040516020810167ffffffffffffffff8282108183111715610abf57610abf6105a7565b816040528435915080821115610ad457600080fd5b50610ae1368286016109e0565b82525092915050565b6000610af86106918461063a565b80848252602080830192508560051b850136811115610b1657600080fd5b855b81811015610c6957803567ffffffffffffffff80821115610b395760008081fd5b81890191506060808336031215610b505760008081fd5b610b586105bd565b610b6184610540565b81528684013583811115610b755760008081fd5b610b81368287016109e0565b888301525060408085013584811115610b9a5760008081fd5b949094019336601f860112610bb157600093508384fd5b84359350610bc16106918561063a565b84815260079490941b85018801938881019036861115610be15760008081fd5b958901955b85871015610c515760808736031215610bff5760008081fd5b610c076105e6565b610c1088610540565b8152610c1d8b8901610540565b8b820152610c2c84890161065e565b84820152610c3b8689016109d0565b8187015282526080969096019590890190610be6565b91830191909152508852505050938201938201610b18565b50919695505050505050565b6000606082016001600160a01b0380871684526020606081860152828751808552608087019150828901945060005b81811015610cc2578551851683529483019491830191600101610ca4565b5050858103604087015286518082529082019350915080860160005b83811015610cfd57815160070b85529382019390820190600101610cde565b509298975050505050505050565b600081518084526020808501945080840160005b83811015610d5f57815180516001600160a01b031688528381015160070b8489015260409081015115159088015260609096019590820190600101610d1f565b509495945050505050565b600060408083526060855160208084870152610d8883870183610d0b565b9150858203818701528187518084528284019150828160051b850101838a0160005b83811015610e5657601f1987840301855281516001600160a01b03808251168552878201518a89870152610de08b870182610d0b565b928c0151868403878e01528051808552908a0193600092508a01905b80831015610e405784518051851683528b81015185168c8401528e81015160070b8f8401528d015115158d830152938a019360019290920191608090910190610dfc565b5097890197955050509186019150600101610daa565b50909b9a505050505050505050505056fea2646970667358221220a62817ea09db59feecc0cc678ecad9eeb6f7bc574ae73c25a30349016ddf978f64736f6c63430008130033",
  "linkReferences": {},
  "deployedLinkReferences": {}
}