{
  "_format": "hh-sol-artifact-1",
  "contractName": "ERC721Mock",
  "sourceName": "contracts/hip-583/ERC721Mock.sol",
  "abi": [
    {
      "inputs": [],
      "stateMutability": "nonpayable",
      "type": "constructor"
    },
    {
      "anonymous": false,
      "inputs": [
        {
          "indexed": true,
          "internalType": "address",
          "name": "owner",
          "type": "address"
        },
        {
          "indexed": true,
          "internalType": "address",
          "name": "approved",
          "type": "address"
        },
        {
          "indexed": true,
          "internalType": "uint256",
          "name": "tokenId",
          "type": "uint256"
        }
      ],
      "name": "Approval",
      "type": "event"
    },
    {
      "anonymous": false,
      "inputs": [
        {
          "indexed": true,
          "internalType": "address",
          "name": "owner",
          "type": "address"
        },
        {
          "indexed": true,
          "internalType": "address",
          "name": "operator",
          "type": "address"
        },
        {
          "indexed": false,
          "internalType": "bool",
          "name": "approved",
          "type": "bool"
        }
      ],
      "name": "ApprovalForAll",
      "type": "event"
    },
    {
      "anonymous": false,
      "inputs": [
        {
          "indexed": true,
          "internalType": "address",
          "name": "from",
          "type": "address"
        },
        {
          "indexed": true,
          "internalType": "address",
          "name": "to",
          "type": "address"
        },
        {
          "indexed": true,
          "internalType": "uint256",
          "name": "tokenId",
          "type": "uint256"
        }
      ],
      "name": "Transfer",
      "type": "event"
    },
    {
      "inputs": [
        {
          "internalType": "address",
          "name": "to",
          "type": "address"
        },
        {
          "internalType": "uint256",
          "name": "tokenId",
          "type": "uint256"
        }
      ],
      "name": "approve",
      "outputs": [],
      "stateMutability": "nonpayable",
      "type": "function"
    },
    {
      "inputs": [
        {
          "internalType": "address",
          "name": "owner",
          "type": "address"
        }
      ],
      "name": "balanceOf",
      "outputs": [
        {
          "internalType": "uint256",
          "name": "",
          "type": "uint256"
        }
      ],
      "stateMutability": "view",
      "type": "function"
    },
    {
      "inputs": [
        {
          "internalType": "uint256",
          "name": "tokenId",
          "type": "uint256"
        }
      ],
      "name": "burn",
      "outputs": [],
      "stateMutability": "nonpayable",
      "type": "function"
    },
    {
      "inputs": [
        {
          "internalType": "uint256",
          "name": "tokenId",
          "type": "uint256"
        }
      ],
      "name": "getApproved",
      "outputs": [
        {
          "internalType": "address",
          "name": "",
          "type": "address"
        }
      ],
      "stateMutability": "view",
      "type": "function"
    },
    {
      "inputs": [
        {
          "internalType": "address",
          "name": "owner",
          "type": "address"
        },
        {
          "internalType": "address",
          "name": "operator",
          "type": "address"
        }
      ],
      "name": "isApprovedForAll",
      "outputs": [
        {
          "internalType": "bool",
          "name": "",
          "type": "bool"
        }
      ],
      "stateMutability": "view",
      "type": "function"
    },
    {
      "inputs": [
        {
          "internalType": "address",
          "name": "to",
          "type": "address"
        },
        {
          "internalType": "uint256",
          "name": "tokenId",
          "type": "uint256"
        }
      ],
      "name": "mint",
      "outputs": [],
      "stateMutability": "nonpayable",
      "type": "function"
    },
    {
      "inputs": [],
      "name": "name",
      "outputs": [
        {
          "internalType": "string",
          "name": "",
          "type": "string"
        }
      ],
      "stateMutability": "view",
      "type": "function"
    },
    {
      "inputs": [
        {
          "internalType": "uint256",
          "name": "tokenId",
          "type": "uint256"
        }
      ],
      "name": "ownerOf",
      "outputs": [
        {
          "internalType": "address",
          "name": "",
          "type": "address"
        }
      ],
      "stateMutability": "view",
      "type": "function"
    },
    {
      "inputs": [
        {
          "internalType": "address",
          "name": "from",
          "type": "address"
        },
        {
          "internalType": "address",
          "name": "to",
          "type": "address"
        },
        {
          "internalType": "uint256",
          "name": "tokenId",
          "type": "uint256"
        }
      ],
      "name": "safeTransferFrom",
      "outputs": [],
      "stateMutability": "nonpayable",
      "type": "function"
    },
    {
      "inputs": [
        {
          "internalType": "address",
          "name": "from",
          "type": "address"
        },
        {
          "internalType": "address",
          "name": "to",
          "type": "address"
        },
        {
          "internalType": "uint256",
          "name": "tokenId",
          "type": "uint256"
        },
        {
          "internalType": "bytes",
          "name": "data",
          "type": "bytes"
        }
      ],
      "name": "safeTransferFrom",
      "outputs": [],
      "stateMutability": "nonpayable",
      "type": "function"
    },
    {
      "inputs": [
        {
          "internalType": "address",
          "name": "operator",
          "type": "address"
        },
        {
          "internalType": "bool",
          "name": "approved",
          "type": "bool"
        }
      ],
      "name": "setApprovalForAll",
      "outputs": [],
      "stateMutability": "nonpayable",
      "type": "function"
    },
    {
      "inputs": [
        {
          "internalType": "bytes4",
          "name": "interfaceId",
          "type": "bytes4"
        }
      ],
      "name": "supportsInterface",
      "outputs": [
        {
          "internalType": "bool",
          "name": "",
          "type": "bool"
        }
      ],
      "stateMutability": "view",
      "type": "function"
    },
    {
      "inputs": [],
      "name": "symbol",
      "outputs": [
        {
          "internalType": "string",
          "name": "",
          "type": "string"
        }
      ],
      "stateMutability": "view",
      "type": "function"
    },
    {
      "inputs": [
        {
          "internalType": "uint256",
          "name": "tokenId",
          "type": "uint256"
        }
      ],
      "name": "tokenURI",
      "outputs": [
        {
          "internalType": "string",
          "name": "",
          "type": "string"
        }
      ],
      "stateMutability": "view",
      "type": "function"
    },
    {
      "inputs": [
        {
          "internalType": "address",
          "name": "from",
          "type": "address"
        },
        {
          "internalType": "address",
          "name": "to",
          "type": "address"
        },
        {
          "internalType": "uint256",
          "name": "tokenId",
          "type": "uint256"
        }
      ],
      "name": "transferFrom",
      "outputs": [],
      "stateMutability": "nonpayable",
      "type": "function"
    }
  ],
  "bytecode": "0x60806040523480156200001157600080fd5b506040518060400160405280600a8152602001694552433732314d6f636b60b01b81525060405180604001604052806005815260200164453732314d60d81b815250816000908162000064919062000121565b50600162000073828262000121565b505050620001ed565b634e487b7160e01b600052604160045260246000fd5b600181811c90821680620000a757607f821691505b602082108103620000c857634e487b7160e01b600052602260045260246000fd5b50919050565b601f8211156200011c57600081815260208120601f850160051c81016020861015620000f75750805b601f850160051c820191505b81811015620001185782815560010162000103565b5050505b505050565b81516001600160401b038111156200013d576200013d6200007c565b62000155816200014e845462000092565b84620000ce565b602080601f8311600181146200018d5760008415620001745750858301515b600019600386901b1c1916600185901b17855562000118565b600085815260208120601f198616915b82811015620001be578886015182559484019460019091019084016200019d565b5085821015620001dd5787850151600019600388901b60f8161c191681555b5050505050600190811b01905550565b61144c80620001fd6000396000f3fe608060405234801561001057600080fd5b50600436106100f55760003560e01c806342966c6811610097578063a22cb46511610066578063a22cb465146101ff578063b88d4fde14610212578063c87b56dd14610225578063e985e9c51461023857600080fd5b806342966c68146101b05780636352211e146101c357806370a08231146101d657806395d89b41146101f757600080fd5b8063095ea7b3116100d3578063095ea7b31461016257806323b872dd1461017757806340c10f191461018a57806342842e0e1461019d57600080fd5b806301ffc9a7146100fa57806306fdde0314610122578063081812fc14610137575b600080fd5b61010d6101083660046110bd565b610274565b60405190151581526020015b60405180910390f35b61012a6102c6565b604051610119919061112a565b61014a61014536600461113d565b610358565b6040516001600160a01b039091168152602001610119565b610175610170366004611172565b61037f565b005b61017561018536600461119c565b610499565b610175610198366004611172565b610510565b6101756101ab36600461119c565b61051e565b6101756101be36600461113d565b610539565b61014a6101d136600461113d565b610545565b6101e96101e43660046111d8565b6105aa565b604051908152602001610119565b61012a610630565b61017561020d3660046111f3565b61063f565b610175610220366004611245565b61064a565b61012a61023336600461113d565b6106c8565b61010d610246366004611321565b6001600160a01b03918216600090815260056020908152604080832093909416825291909152205460ff1690565b60006001600160e01b031982166380ac58cd60e01b14806102a557506001600160e01b03198216635b5e139f60e01b145b806102c057506301ffc9a760e01b6001600160e01b03198316145b92915050565b6060600080546102d590611354565b80601f016020809104026020016040519081016040528092919081815260200182805461030190611354565b801561034e5780601f106103235761010080835404028352916020019161034e565b820191906000526020600020905b81548152906001019060200180831161033157829003601f168201915b5050505050905090565b60006103638261073c565b506000908152600460205260409020546001600160a01b031690565b600061038a82610545565b9050806001600160a01b0316836001600160a01b0316036103fc5760405162461bcd60e51b815260206004820152602160248201527f4552433732313a20617070726f76616c20746f2063757272656e74206f776e656044820152603960f91b60648201526084015b60405180910390fd5b336001600160a01b038216148061041857506104188133610246565b61048a5760405162461bcd60e51b815260206004820152603d60248201527f4552433732313a20617070726f76652063616c6c6572206973206e6f7420746f60448201527f6b656e206f776e6572206f7220617070726f76656420666f7220616c6c00000060648201526084016103f3565b61049483836107a0565b505050565b6104a3338261080e565b6105055760405162461bcd60e51b815260206004820152602d60248201527f4552433732313a2063616c6c6572206973206e6f7420746f6b656e206f776e6560448201526c1c881bdc88185c1c1c9bdd9959609a1b60648201526084016103f3565b61049483838361088d565b61051a8282610a6d565b5050565b6104948383836040518060200160405280600081525061064a565b61054281610bf8565b50565b6000818152600260205260408120546001600160a01b0316806102c05760405162461bcd60e51b815260206004820152601860248201527f4552433732313a20696e76616c696420746f6b656e204944000000000000000060448201526064016103f3565b60006001600160a01b0382166106145760405162461bcd60e51b815260206004820152602960248201527f4552433732313a2061646472657373207a65726f206973206e6f7420612076616044820152683634b21037bbb732b960b91b60648201526084016103f3565b506001600160a01b031660009081526003602052604090205490565b6060600180546102d590611354565b61051a338383610c8d565b610654338361080e565b6106b65760405162461bcd60e51b815260206004820152602d60248201527f4552433732313a2063616c6c6572206973206e6f7420746f6b656e206f776e6560448201526c1c881bdc88185c1c1c9bdd9959609a1b60648201526084016103f3565b6106c284848484610d5b565b50505050565b60606106d38261073c565b60006106ea60408051602081019091526000815290565b9050600081511161070a5760405180602001604052806000815250610735565b8061071484610dd9565b60405160200161072592919061138e565b6040516020818303038152906040525b9392505050565b6000818152600260205260409020546001600160a01b03166105425760405162461bcd60e51b815260206004820152601860248201527f4552433732313a20696e76616c696420746f6b656e204944000000000000000060448201526064016103f3565b600081815260046020526040902080546001600160a01b0319166001600160a01b03841690811790915581906107d582610545565b6001600160a01b03167f8c5be1e5ebec7d5bd14f71427d1e84f3dd0314c0f7b2291e5b200ac8c7c3b92560405160405180910390a45050565b60008061081a83610545565b9050806001600160a01b0316846001600160a01b0316148061086157506001600160a01b0380821660009081526005602090815260408083209388168352929052205460ff165b806108855750836001600160a01b031661087a84610358565b6001600160a01b0316145b949350505050565b826001600160a01b03166108a082610545565b6001600160a01b0316146109045760405162461bcd60e51b815260206004820152602560248201527f4552433732313a207472616e736665722066726f6d20696e636f72726563742060448201526437bbb732b960d91b60648201526084016103f3565b6001600160a01b0382166109665760405162461bcd60e51b8152602060048201526024808201527f4552433732313a207472616e7366657220746f20746865207a65726f206164646044820152637265737360e01b60648201526084016103f3565b826001600160a01b031661097982610545565b6001600160a01b0316146109dd5760405162461bcd60e51b815260206004820152602560248201527f4552433732313a207472616e736665722066726f6d20696e636f72726563742060448201526437bbb732b960d91b60648201526084016103f3565b600081815260046020908152604080832080546001600160a01b03199081169091556001600160a01b0387811680865260038552838620805460001901905590871680865283862080546001019055868652600290945282852080549092168417909155905184937fddf252ad1be2c89b69c2b068fc378daa952ba7f163c4a11628f55a4df523b3ef91a4505050565b6001600160a01b038216610ac35760405162461bcd60e51b815260206004820181905260248201527f4552433732313a206d696e7420746f20746865207a65726f206164647265737360448201526064016103f3565b6000818152600260205260409020546001600160a01b031615610b285760405162461bcd60e51b815260206004820152601c60248201527f4552433732313a20746f6b656e20616c7265616479206d696e7465640000000060448201526064016103f3565b6000818152600260205260409020546001600160a01b031615610b8d5760405162461bcd60e51b815260206004820152601c60248201527f4552433732313a20746f6b656e20616c7265616479206d696e7465640000000060448201526064016103f3565b6001600160a01b038216600081815260036020908152604080832080546001019055848352600290915280822080546001600160a01b0319168417905551839291907fddf252ad1be2c89b69c2b068fc378daa952ba7f163c4a11628f55a4df523b3ef908290a45050565b6000610c0382610545565b9050610c0e82610545565b600083815260046020908152604080832080546001600160a01b03199081169091556001600160a01b0385168085526003845282852080546000190190558785526002909352818420805490911690555192935084927fddf252ad1be2c89b69c2b068fc378daa952ba7f163c4a11628f55a4df523b3ef908390a45050565b816001600160a01b0316836001600160a01b031603610cee5760405162461bcd60e51b815260206004820152601960248201527f4552433732313a20617070726f766520746f2063616c6c65720000000000000060448201526064016103f3565b6001600160a01b03838116600081815260056020908152604080832094871680845294825291829020805460ff191686151590811790915591519182527f17307eab39ab6107e8899845ad3d59bd9653f200f220920489ca2b5937696c31910160405180910390a3505050565b610d6684848461088d565b610d7284848484610e79565b6106c25760405162461bcd60e51b815260206004820152603260248201527f4552433732313a207472616e7366657220746f206e6f6e20455243373231526560448201527131b2b4bb32b91034b6b83632b6b2b73a32b960711b60648201526084016103f3565b60606000610de683610fc5565b600101905060008167ffffffffffffffff811115610e0657610e0661122f565b6040519080825280601f01601f191660200182016040528015610e30576020820181803683370190505b5090508181016020015b600019017f3031323334353637383961626364656600000000000000000000000000000000600a86061a8153600a8504945084610e3a57509392505050565b60006001600160a01b0384163b15610fba57604051630a85bd0160e11b81526001600160a01b0385169063150b7a0290610ebd9033908990889088906004016113bd565b6020604051808303816000875af1925050508015610ef8575060408051601f3d908101601f19168201909252610ef5918101906113f9565b60015b610fa0573d808015610f26576040519150601f19603f3d011682016040523d82523d6000602084013e610f2b565b606091505b508051600003610f985760405162461bcd60e51b815260206004820152603260248201527f4552433732313a207472616e7366657220746f206e6f6e20455243373231526560448201527131b2b4bb32b91034b6b83632b6b2b73a32b960711b60648201526084016103f3565b805181602001fd5b6001600160e01b031916630a85bd0160e11b149050610885565b506001949350505050565b6000807a184f03e93ff9f4daa797ed6e38ed64bf6a1f010000000000000000831061100e577a184f03e93ff9f4daa797ed6e38ed64bf6a1f010000000000000000830492506040015b6d04ee2d6d415b85acef8100000000831061103a576d04ee2d6d415b85acef8100000000830492506020015b662386f26fc10000831061105857662386f26fc10000830492506010015b6305f5e1008310611070576305f5e100830492506008015b612710831061108457612710830492506004015b60648310611096576064830492506002015b600a83106102c05760010192915050565b6001600160e01b03198116811461054257600080fd5b6000602082840312156110cf57600080fd5b8135610735816110a7565b60005b838110156110f55781810151838201526020016110dd565b50506000910152565b600081518084526111168160208601602086016110da565b601f01601f19169290920160200192915050565b60208152600061073560208301846110fe565b60006020828403121561114f57600080fd5b5035919050565b80356001600160a01b038116811461116d57600080fd5b919050565b6000806040838503121561118557600080fd5b61118e83611156565b946020939093013593505050565b6000806000606084860312156111b157600080fd5b6111ba84611156565b92506111c860208501611156565b9150604084013590509250925092565b6000602082840312156111ea57600080fd5b61073582611156565b6000806040838503121561120657600080fd5b61120f83611156565b91506020830135801515811461122457600080fd5b809150509250929050565b634e487b7160e01b600052604160045260246000fd5b6000806000806080858703121561125b57600080fd5b61126485611156565b935061127260208601611156565b925060408501359150606085013567ffffffffffffffff8082111561129657600080fd5b818701915087601f8301126112aa57600080fd5b8135818111156112bc576112bc61122f565b604051601f8201601f19908116603f011681019083821181831017156112e4576112e461122f565b816040528281528a60208487010111156112fd57600080fd5b82602086016020830137600060208483010152809550505050505092959194509250565b6000806040838503121561133457600080fd5b61133d83611156565b915061134b60208401611156565b90509250929050565b600181811c9082168061136857607f821691505b60208210810361138857634e487b7160e01b600052602260045260246000fd5b50919050565b600083516113a08184602088016110da565b8351908301906113b48183602088016110da565b01949350505050565b60006001600160a01b038087168352808616602084015250836040830152608060608301526113ef60808301846110fe565b9695505050505050565b60006020828403121561140b57600080fd5b8151610735816110a756fea26469706673582212208c711e6b40240ac20691eafffe1ce647966d5da19f29af9890468daaccee7b9264736f6c63430008130033",
  "linkReferences": {},
  "deployedLinkReferences": {}
}