{
  "_format": "hh-sol-artifact-1",
  "contractName": "ERC1155Mock",
  "sourceName": "contracts/erc-1155/ERC1155Mock.sol",
  "abi": [
    {
      "inputs": [
        {
          "internalType": "string",
          "name": "uri",
          "type": "string"
        }
      ],
      "stateMutability": "nonpayable",
      "type": "constructor"
    },
    {
      "anonymous": false,
      "inputs": [
        {
          "indexed": true,
          "internalType": "address",
          "name": "account",
          "type": "address"
        },
        {
          "indexed": true,
          "internalType": "address",
          "name": "operator",
          "type": "address"
        },
        {
          "indexed": false,
          "internalType": "bool",
          "name": "approved",
          "type": "bool"
        }
      ],
      "name": "ApprovalForAll",
      "type": "event"
    },
    {
      "anonymous": false,
      "inputs": [
        {
          "indexed": true,
          "internalType": "address",
          "name": "operator",
          "type": "address"
        },
        {
          "indexed": true,
          "internalType": "address",
          "name": "from",
          "type": "address"
        },
        {
          "indexed": true,
          "internalType": "address",
          "name": "to",
          "type": "address"
        },
        {
          "indexed": false,
          "internalType": "uint256[]",
          "name": "ids",
          "type": "uint256[]"
        },
        {
          "indexed": false,
          "internalType": "uint256[]",
          "name": "values",
          "type": "uint256[]"
        }
      ],
      "name": "TransferBatch",
      "type": "event"
    },
    {
      "anonymous": false,
      "inputs": [
        {
          "indexed": true,
          "internalType": "address",
          "name": "operator",
          "type": "address"
        },
        {
          "indexed": true,
          "internalType": "address",
          "name": "from",
          "type": "address"
        },
        {
          "indexed": true,
          "internalType": "address",
          "name": "to",
          "type": "address"
        },
        {
          "indexed": false,
          "internalType": "uint256",
          "name": "id",
          "type": "uint256"
        },
        {
          "indexed": false,
          "internalType": "uint256",
          "name": "value",
          "type": "uint256"
        }
      ],
      "name": "TransferSingle",
      "type": "event"
    },
    {
      "anonymous": false,
      "inputs": [
        {
          "indexed": false,
          "internalType": "string",
          "name": "value",
          "type": "string"
        },
        {
          "indexed": true,
          "internalType": "uint256",
          "name": "id",
          "type": "uint256"
        }
      ],
      "name": "URI",
      "type": "event"
    },
    {
      "inputs": [
        {
          "internalType": "address",
          "name": "account",
          "type": "address"
        },
        {
          "internalType": "uint256",
          "name": "id",
          "type": "uint256"
        }
      ],
      "name": "balanceOf",
      "outputs": [
        {
          "internalType": "uint256",
          "name": "",
          "type": "uint256"
        }
      ],
      "stateMutability": "view",
      "type": "function"
    },
    {
      "inputs": [
        {
          "internalType": "address[]",
          "name": "accounts",
          "type": "address[]"
        },
        {
          "internalType": "uint256[]",
          "name": "ids",
          "type": "uint256[]"
        }
      ],
      "name": "balanceOfBatch",
      "outputs": [
        {
          "internalType": "uint256[]",
          "name": "",
          "type": "uint256[]"
        }
      ],
      "stateMutability": "view",
      "type": "function"
    },
    {
      "inputs": [
        {
          "internalType": "address",
          "name": "account",
          "type": "address"
        },
        {
          "internalType": "address",
          "name": "operator",
          "type": "address"
        }
      ],
      "name": "isApprovedForAll",
      "outputs": [
        {
          "internalType": "bool",
          "name": "",
          "type": "bool"
        }
      ],
      "stateMutability": "view",
      "type": "function"
    },
    {
      "inputs": [
        {
          "internalType": "address",
          "name": "to",
          "type": "address"
        },
        {
          "internalType": "uint256",
          "name": "id",
          "type": "uint256"
        },
        {
          "internalType": "uint256",
          "name": "amount",
          "type": "uint256"
        },
        {
          "internalType": "bytes",
          "name": "data",
          "type": "bytes"
        }
      ],
      "name": "mint",
      "outputs": [],
      "stateMutability": "nonpayable",
      "type": "function"
    },
    {
      "inputs": [
        {
          "internalType": "address",
          "name": "to",
          "type": "address"
        },
        {
          "internalType": "uint256[]",
          "name": "id",
          "type": "uint256[]"
        },
        {
          "internalType": "uint256[]",
          "name": "amount",
          "type": "uint256[]"
        },
        {
          "internalType": "bytes",
          "name": "data",
          "type": "bytes"
        }
      ],
      "name": "mintBatch",
      "outputs": [],
      "stateMutability": "nonpayable",
      "type": "function"
    },
    {
      "inputs": [
        {
          "internalType": "address",
          "name": "from",
          "type": "address"
        },
        {
          "internalType": "address",
          "name": "to",
          "type": "address"
        },
        {
          "internalType": "uint256[]",
          "name": "ids",
          "type": "uint256[]"
        },
        {
          "internalType": "uint256[]",
          "name": "amounts",
          "type": "uint256[]"
        },
        {
          "internalType": "bytes",
          "name": "data",
          "type": "bytes"
        }
      ],
      "name": "safeBatchTransferFrom",
      "outputs": [],
      "stateMutability": "nonpayable",
      "type": "function"
    },
    {
      "inputs": [
        {
          "internalType": "address",
          "name": "from",
          "type": "address"
        },
        {
          "internalType": "address",
          "name": "to",
          "type": "address"
        },
        {
          "internalType": "uint256",
          "name": "id",
          "type": "uint256"
        },
        {
          "internalType": "uint256",
          "name": "amount",
          "type": "uint256"
        },
        {
          "internalType": "bytes",
          "name": "data",
          "type": "bytes"
        }
      ],
      "name": "safeTransferFrom",
      "outputs": [],
      "stateMutability": "nonpayable",
      "type": "function"
    },
    {
      "inputs": [
        {
          "internalType": "address",
          "name": "operator",
          "type": "address"
        },
        {
          "internalType": "bool",
          "name": "approved",
          "type": "bool"
        }
      ],
      "name": "setApprovalForAll",
      "outputs": [],
      "stateMutability": "nonpayable",
      "type": "function"
    },
    {
      "inputs": [
        {
          "internalType": "bytes4",
          "name": "interfaceId",
          "type": "bytes4"
        }
      ],
      "name": "supportsInterface",
      "outputs": [
        {
          "internalType": "bool",
          "name": "",
          "type": "bool"
        }
      ],
      "stateMutability": "view",
      "type": "function"
    },
    {
      "inputs": [
        {
          "internalType": "uint256",
          "name": "",
          "type": "uint256"
        }
      ],
      "name": "uri",
      "outputs": [
        {
          "internalType": "string",
          "name": "",
          "type": "string"
        }
      ],
      "stateMutability": "view",
      "type": "function"
    }
  ],
  "bytecode": "0x60806040523480156200001157600080fd5b5060405162001b3a38038062001b3a833981016040819052620000349162000070565b80620000408162000048565b5050620002a0565b6002620000568282620001d4565b5050565b634e487b7160e01b600052604160045260246000fd5b600060208083850312156200008457600080fd5b82516001600160401b03808211156200009c57600080fd5b818501915085601f830112620000b157600080fd5b815181811115620000c657620000c66200005a565b604051601f8201601f19908116603f01168101908382118183101715620000f157620000f16200005a565b8160405282815288868487010111156200010a57600080fd5b600093505b828410156200012e57848401860151818501870152928501926200010f565b600086848301015280965050505050505092915050565b600181811c908216806200015a57607f821691505b6020821081036200017b57634e487b7160e01b600052602260045260246000fd5b50919050565b601f821115620001cf57600081815260208120601f850160051c81016020861015620001aa5750805b601f850160051c820191505b81811015620001cb57828155600101620001b6565b5050505b505050565b81516001600160401b03811115620001f057620001f06200005a565b620002088162000201845462000145565b8462000181565b602080601f831160018114620002405760008415620002275750858301515b600019600386901b1c1916600185901b178555620001cb565b600085815260208120601f198616915b82811015620002715788860151825594840194600190910190840162000250565b5085821015620002905787850151600019600388901b60f8161c191681555b5050505050600190811b01905550565b61188a80620002b06000396000f3fe608060405234801561001057600080fd5b506004361061009d5760003560e01c80634e1273f4116100665780634e1273f414610133578063731133e914610153578063a22cb46514610166578063e985e9c514610179578063f242432a146101b557600080fd5b8062fdd58e146100a257806301ffc9a7146100c85780630e89341c146100eb5780631f7fdffa1461010b5780632eb2c2d614610120575b600080fd5b6100b56100b0366004611086565b6101c8565b6040519081526020015b60405180910390f35b6100db6100d63660046110c9565b610261565b60405190151581526020016100bf565b6100fe6100f93660046110ed565b6102b1565b6040516100bf919061114c565b61011e6101193660046112ab565b610345565b005b61011e61012e366004611344565b610357565b6101466101413660046113ee565b6103ea565b6040516100bf91906114f4565b61011e610161366004611507565b610514565b61011e61017436600461155c565b610520565b6100db610187366004611598565b6001600160a01b03918216600090815260016020908152604080832093909416825291909152205460ff1690565b61011e6101c33660046115cb565b61052f565b60006001600160a01b0383166102385760405162461bcd60e51b815260206004820152602a60248201527f455243313135353a2061646472657373207a65726f206973206e6f742061207660448201526930b634b21037bbb732b960b11b60648201526084015b60405180910390fd5b506000818152602081815260408083206001600160a01b03861684529091529020545b92915050565b60006001600160e01b03198216636cdb3d1360e11b148061029257506001600160e01b031982166303a24d0760e21b145b8061025b57506301ffc9a760e01b6001600160e01b031983161461025b565b6060600280546102c090611630565b80601f01602080910402602001604051908101604052809291908181526020018280546102ec90611630565b80156103395780601f1061030e57610100808354040283529160200191610339565b820191906000526020600020905b81548152906001019060200180831161031c57829003601f168201915b50505050509050919050565b610351848484846105bb565b50505050565b6001600160a01b03851633148061037357506103738533610187565b6103d65760405162461bcd60e51b815260206004820152602e60248201527f455243313135353a2063616c6c6572206973206e6f7420746f6b656e206f776e60448201526d195c881bdc88185c1c1c9bdd995960921b606482015260840161022f565b6103e38585858585610781565b5050505050565b6060815183511461044f5760405162461bcd60e51b815260206004820152602960248201527f455243313135353a206163636f756e747320616e6420696473206c656e677468604482015268040dad2e6dac2e8c6d60bb1b606482015260840161022f565b6000835167ffffffffffffffff81111561046b5761046b61115f565b604051908082528060200260200182016040528015610494578160200160208202803683370190505b50905060005b845181101561050c576104df8582815181106104b8576104b861166a565b60200260200101518583815181106104d2576104d261166a565b60200260200101516101c8565b8282815181106104f1576104f161166a565b602090810291909101015261050581611696565b905061049a565b509392505050565b610351848484846109df565b61052b338383610af3565b5050565b6001600160a01b03851633148061054b575061054b8533610187565b6105ae5760405162461bcd60e51b815260206004820152602e60248201527f455243313135353a2063616c6c6572206973206e6f7420746f6b656e206f776e60448201526d195c881bdc88185c1c1c9bdd995960921b606482015260840161022f565b6103e38585858585610bd3565b6001600160a01b03841661061b5760405162461bcd60e51b815260206004820152602160248201527f455243313135353a206d696e7420746f20746865207a65726f206164647265736044820152607360f81b606482015260840161022f565b815183511461067d5760405162461bcd60e51b815260206004820152602860248201527f455243313135353a2069647320616e6420616d6f756e7473206c656e677468206044820152670dad2e6dac2e8c6d60c31b606482015260840161022f565b3360005b84518110156107195783818151811061069c5761069c61166a565b60200260200101516000808784815181106106b9576106b961166a565b602002602001015181526020019081526020016000206000886001600160a01b03166001600160a01b03168152602001908152602001600020600082825461070191906116af565b9091555081905061071181611696565b915050610681565b50846001600160a01b031660006001600160a01b0316826001600160a01b03167f4a39dc06d4c0dbc64b70af90fd698a233a518aa5d07e595d983b8c0526c8f7fb878760405161076a9291906116c2565b60405180910390a46103e381600087878787610d7e565b81518351146107e35760405162461bcd60e51b815260206004820152602860248201527f455243313135353a2069647320616e6420616d6f756e7473206c656e677468206044820152670dad2e6dac2e8c6d60c31b606482015260840161022f565b6001600160a01b0384166108475760405162461bcd60e51b815260206004820152602560248201527f455243313135353a207472616e7366657220746f20746865207a65726f206164604482015264647265737360d81b606482015260840161022f565b3360005b84518110156109715760008582815181106108685761086861166a565b6020026020010151905060008583815181106108865761088661166a565b602090810291909101810151600084815280835260408082206001600160a01b038e1683529093529190912054909150818110156109195760405162461bcd60e51b815260206004820152602a60248201527f455243313135353a20696e73756666696369656e742062616c616e636520666f60448201526939103a3930b739b332b960b11b606482015260840161022f565b6000838152602081815260408083206001600160a01b038e8116855292528083208585039055908b168252812080548492906109569084906116af565b925050819055505050508061096a90611696565b905061084b565b50846001600160a01b0316866001600160a01b0316826001600160a01b03167f4a39dc06d4c0dbc64b70af90fd698a233a518aa5d07e595d983b8c0526c8f7fb87876040516109c19291906116c2565b60405180910390a46109d7818787878787610d7e565b505050505050565b6001600160a01b038416610a3f5760405162461bcd60e51b815260206004820152602160248201527f455243313135353a206d696e7420746f20746865207a65726f206164647265736044820152607360f81b606482015260840161022f565b336000610a4b85610f23565b90506000610a5885610f23565b90506000868152602081815260408083206001600160a01b038b16845290915281208054879290610a8a9084906116af565b909155505060408051878152602081018790526001600160a01b03808a1692600092918716917fc3d58168c5ae7397731d063d5bbf3d657854427343f4c083240f7aacaa2d0f62910160405180910390a4610aea83600089898989610f6e565b50505050505050565b816001600160a01b0316836001600160a01b031603610b665760405162461bcd60e51b815260206004820152602960248201527f455243313135353a2073657474696e6720617070726f76616c20737461747573604482015268103337b91039b2b63360b91b606482015260840161022f565b6001600160a01b03838116600081815260016020908152604080832094871680845294825291829020805460ff191686151590811790915591519182527f17307eab39ab6107e8899845ad3d59bd9653f200f220920489ca2b5937696c31910160405180910390a3505050565b6001600160a01b038416610c375760405162461bcd60e51b815260206004820152602560248201527f455243313135353a207472616e7366657220746f20746865207a65726f206164604482015264647265737360d81b606482015260840161022f565b336000610c4385610f23565b90506000610c5085610f23565b90506000868152602081815260408083206001600160a01b038c16845290915290205485811015610cd65760405162461bcd60e51b815260206004820152602a60248201527f455243313135353a20696e73756666696369656e742062616c616e636520666f60448201526939103a3930b739b332b960b11b606482015260840161022f565b6000878152602081815260408083206001600160a01b038d8116855292528083208985039055908a16825281208054889290610d139084906116af565b909155505060408051888152602081018890526001600160a01b03808b16928c821692918816917fc3d58168c5ae7397731d063d5bbf3d657854427343f4c083240f7aacaa2d0f62910160405180910390a4610d73848a8a8a8a8a610f6e565b505050505050505050565b6001600160a01b0384163b156109d75760405163bc197c8160e01b81526001600160a01b0385169063bc197c8190610dc290899089908890889088906004016116f0565b6020604051808303816000875af1925050508015610dfd575060408051601f3d908101601f19168201909252610dfa9181019061174e565b60015b610eb257610e0961176b565b806308c379a003610e425750610e1d611787565b80610e285750610e44565b8060405162461bcd60e51b815260040161022f919061114c565b505b60405162461bcd60e51b815260206004820152603460248201527f455243313135353a207472616e7366657220746f206e6f6e2d4552433131353560448201527f526563656976657220696d706c656d656e746572000000000000000000000000606482015260840161022f565b6001600160e01b0319811663bc197c8160e01b14610aea5760405162461bcd60e51b815260206004820152602860248201527f455243313135353a204552433131353552656365697665722072656a656374656044820152676420746f6b656e7360c01b606482015260840161022f565b60408051600180825281830190925260609160009190602080830190803683370190505090508281600081518110610f5d57610f5d61166a565b602090810291909101015292915050565b6001600160a01b0384163b156109d75760405163f23a6e6160e01b81526001600160a01b0385169063f23a6e6190610fb29089908990889088908890600401611811565b6020604051808303816000875af1925050508015610fed575060408051601f3d908101601f19168201909252610fea9181019061174e565b60015b610ff957610e0961176b565b6001600160e01b0319811663f23a6e6160e01b14610aea5760405162461bcd60e51b815260206004820152602860248201527f455243313135353a204552433131353552656365697665722072656a656374656044820152676420746f6b656e7360c01b606482015260840161022f565b80356001600160a01b038116811461108157600080fd5b919050565b6000806040838503121561109957600080fd5b6110a28361106a565b946020939093013593505050565b6001600160e01b0319811681146110c657600080fd5b50565b6000602082840312156110db57600080fd5b81356110e6816110b0565b9392505050565b6000602082840312156110ff57600080fd5b5035919050565b6000815180845260005b8181101561112c57602081850181015186830182015201611110565b506000602082860101526020601f19601f83011685010191505092915050565b6020815260006110e66020830184611106565b634e487b7160e01b600052604160045260246000fd5b601f8201601f1916810167ffffffffffffffff8111828210171561119b5761119b61115f565b6040525050565b600067ffffffffffffffff8211156111bc576111bc61115f565b5060051b60200190565b600082601f8301126111d757600080fd5b813560206111e4826111a2565b6040516111f18282611175565b83815260059390931b850182019282810191508684111561121157600080fd5b8286015b8481101561122c5780358352918301918301611215565b509695505050505050565b600082601f83011261124857600080fd5b813567ffffffffffffffff8111156112625761126261115f565b604051611279601f8301601f191660200182611175565b81815284602083860101111561128e57600080fd5b816020850160208301376000918101602001919091529392505050565b600080600080608085870312156112c157600080fd5b6112ca8561106a565b9350602085013567ffffffffffffffff808211156112e757600080fd5b6112f3888389016111c6565b9450604087013591508082111561130957600080fd5b611315888389016111c6565b9350606087013591508082111561132b57600080fd5b5061133887828801611237565b91505092959194509250565b600080600080600060a0868803121561135c57600080fd5b6113658661106a565b94506113736020870161106a565b9350604086013567ffffffffffffffff8082111561139057600080fd5b61139c89838a016111c6565b945060608801359150808211156113b257600080fd5b6113be89838a016111c6565b935060808801359150808211156113d457600080fd5b506113e188828901611237565b9150509295509295909350565b6000806040838503121561140157600080fd5b823567ffffffffffffffff8082111561141957600080fd5b818501915085601f83011261142d57600080fd5b8135602061143a826111a2565b6040516114478282611175565b83815260059390931b850182019282810191508984111561146757600080fd5b948201945b8386101561148c5761147d8661106a565b8252948201949082019061146c565b965050860135925050808211156114a257600080fd5b506114af858286016111c6565b9150509250929050565b600081518084526020808501945080840160005b838110156114e9578151875295820195908201906001016114cd565b509495945050505050565b6020815260006110e660208301846114b9565b6000806000806080858703121561151d57600080fd5b6115268561106a565b93506020850135925060408501359150606085013567ffffffffffffffff81111561155057600080fd5b61133887828801611237565b6000806040838503121561156f57600080fd5b6115788361106a565b91506020830135801515811461158d57600080fd5b809150509250929050565b600080604083850312156115ab57600080fd5b6115b48361106a565b91506115c26020840161106a565b90509250929050565b600080600080600060a086880312156115e357600080fd5b6115ec8661106a565b94506115fa6020870161106a565b93506040860135925060608601359150608086013567ffffffffffffffff81111561162457600080fd5b6113e188828901611237565b600181811c9082168061164457607f821691505b60208210810361166457634e487b7160e01b600052602260045260246000fd5b50919050565b634e487b7160e01b600052603260045260246000fd5b634e487b7160e01b600052601160045260246000fd5b6000600182016116a8576116a8611680565b5060010190565b8082018082111561025b5761025b611680565b6040815260006116d560408301856114b9565b82810360208401526116e781856114b9565b95945050505050565b60006001600160a01b03808816835280871660208401525060a0604083015261171c60a08301866114b9565b828103606084015261172e81866114b9565b905082810360808401526117428185611106565b98975050505050505050565b60006020828403121561176057600080fd5b81516110e6816110b0565b600060033d11156117845760046000803e5060005160e01c5b90565b600060443d10156117955790565b6040516003193d81016004833e81513d67ffffffffffffffff81602484011181841117156117c557505050505090565b82850191508151818111156117dd5750505050505090565b843d87010160208285010111156117f75750505050505090565b61180660208286010187611175565b509095945050505050565b60006001600160a01b03808816835280871660208401525084604083015283606083015260a0608083015261184960a0830184611106565b97965050505050505056fea2646970667358221220533239dec10d63e2d8abf5da2275b7c7e1e811d410192b54b0a2d2b0047544e064736f6c63430008130033",
  "linkReferences": {},
  "deployedLinkReferences": {}
}