{
  "_format": "hh-sol-artifact-1",
  "contractName": "ExchangeV2",
  "sourceName": "contracts/proxy-upgrade/exchange/ExchangeV2.sol",
  "abi": [
    {
      "anonymous": false,
      "inputs": [
        {
          "indexed": false,
          "internalType": "address",
          "name": "previousAdmin",
          "type": "address"
        },
        {
          "indexed": false,
          "internalType": "address",
          "name": "newAdmin",
          "type": "address"
        }
      ],
      "name": "AdminChanged",
      "type": "event"
    },
    {
      "anonymous": false,
      "inputs": [
        {
          "indexed": true,
          "internalType": "address",
          "name": "beacon",
          "type": "address"
        }
      ],
      "name": "BeaconUpgraded",
      "type": "event"
    },
    {
      "anonymous": false,
      "inputs": [
        {
          "indexed": false,
          "internalType": "uint8",
          "name": "version",
          "type": "uint8"
        }
      ],
      "name": "Initialized",
      "type": "event"
    },
    {
      "anonymous": false,
      "inputs": [
        {
          "indexed": true,
          "internalType": "address",
          "name": "previousOwner",
          "type": "address"
        },
        {
          "indexed": true,
          "internalType": "address",
          "name": "newOwner",
          "type": "address"
        }
      ],
      "name": "OwnershipTransferred",
      "type": "event"
    },
    {
      "anonymous": false,
      "inputs": [
        {
          "indexed": true,
          "internalType": "address",
          "name": "implementation",
          "type": "address"
        }
      ],
      "name": "Upgraded",
      "type": "event"
    },
    {
      "inputs": [],
      "name": "associateToken",
      "outputs": [
        {
          "internalType": "int256",
          "name": "responseCode",
          "type": "int256"
        }
      ],
      "stateMutability": "nonpayable",
      "type": "function"
    },
    {
      "inputs": [],
      "name": "buy",
      "outputs": [],
      "stateMutability": "payable",
      "type": "function"
    },
    {
      "inputs": [],
      "name": "deposit",
      "outputs": [],
      "stateMutability": "payable",
      "type": "function"
    },
    {
      "inputs": [
        {
          "internalType": "int64",
          "name": "amount",
          "type": "int64"
        }
      ],
      "name": "depositTokens",
      "outputs": [
        {
          "internalType": "int256",
          "name": "responseCode",
          "type": "int256"
        }
      ],
      "stateMutability": "nonpayable",
      "type": "function"
    },
    {
      "inputs": [],
      "name": "getImplementationAddress",
      "outputs": [
        {
          "internalType": "address",
          "name": "",
          "type": "address"
        }
      ],
      "stateMutability": "view",
      "type": "function"
    },
    {
      "inputs": [],
      "name": "getNativeBalance",
      "outputs": [
        {
          "internalType": "uint256",
          "name": "",
          "type": "uint256"
        }
      ],
      "stateMutability": "view",
      "type": "function"
    },
    {
      "inputs": [],
      "name": "getTokenBalance",
      "outputs": [
        {
          "internalType": "uint256",
          "name": "",
          "type": "uint256"
        }
      ],
      "stateMutability": "view",
      "type": "function"
    },
    {
      "inputs": [
        {
          "internalType": "address",
          "name": "token",
          "type": "address"
        }
      ],
      "name": "initialize",
      "outputs": [],
      "stateMutability": "nonpayable",
      "type": "function"
    },
    {
      "inputs": [],
      "name": "owner",
      "outputs": [
        {
          "internalType": "address",
          "name": "",
          "type": "address"
        }
      ],
      "stateMutability": "view",
      "type": "function"
    },
    {
      "inputs": [],
      "name": "proxiableUUID",
      "outputs": [
        {
          "internalType": "bytes32",
          "name": "",
          "type": "bytes32"
        }
      ],
      "stateMutability": "view",
      "type": "function"
    },
    {
      "inputs": [],
      "name": "renounceOwnership",
      "outputs": [],
      "stateMutability": "nonpayable",
      "type": "function"
    },
    {
      "inputs": [
        {
          "internalType": "uint256",
          "name": "amount",
          "type": "uint256"
        }
      ],
      "name": "sell",
      "outputs": [],
      "stateMutability": "nonpayable",
      "type": "function"
    },
    {
      "inputs": [],
      "name": "tokenAddress",
      "outputs": [
        {
          "internalType": "address",
          "name": "",
          "type": "address"
        }
      ],
      "stateMutability": "view",
      "type": "function"
    },
    {
      "inputs": [
        {
          "internalType": "address",
          "name": "newOwner",
          "type": "address"
        }
      ],
      "name": "transferOwnership",
      "outputs": [],
      "stateMutability": "nonpayable",
      "type": "function"
    },
    {
      "inputs": [
        {
          "internalType": "address",
          "name": "newImplementation",
          "type": "address"
        }
      ],
      "name": "upgradeTo",
      "outputs": [],
      "stateMutability": "nonpayable",
      "type": "function"
    },
    {
      "inputs": [
        {
          "internalType": "address",
          "name": "newImplementation",
          "type": "address"
        },
        {
          "internalType": "bytes",
          "name": "data",
          "type": "bytes"
        }
      ],
      "name": "upgradeToAndCall",
      "outputs": [],
      "stateMutability": "payable",
      "type": "function"
    },
    {
      "inputs": [],
      "name": "version",
      "outputs": [
        {
          "internalType": "string",
          "name": "",
          "type": "string"
        }
      ],
      "stateMutability": "pure",
      "type": "function"
    }
  ],
  "bytecode": "0x60a06040523060805234801561001457600080fd5b506080516116d761004c60003960008181610320015281816103aa015281816104a001528181610525015261060f01526116d76000f3fe6080604052600436106100fe5760003560e01c80638da5cb5b11610095578063c4d66de811610064578063c4d66de814610261578063d0e30db014610281578063e4849b3214610289578063ec904f19146102a9578063f2fde38b146102be57600080fd5b80638da5cb5b146101fb5780638f3ea017146102195780639d76ea5814610239578063a6f2ae3a1461025957600080fd5b806354fd4d50116100d157806354fd4d501461018d578063715018a6146101be57806382b2e257146101d357806388a9d554146101e857600080fd5b80630cbcae70146101035780633659cfe6146101355780634f1ef2861461015757806352d1902d1461016a575b600080fd5b34801561010f57600080fd5b506101186102de565b6040516001600160a01b0390911681526020015b60405180910390f35b34801561014157600080fd5b5061015561015036600461147a565b610316565b005b6101556101653660046114ab565b610496565b34801561017657600080fd5b5061017f610602565b60405190815260200161012c565b34801561019957600080fd5b5060408051808201825260028152612b1960f11b6020820152905161012c9190611591565b3480156101ca57600080fd5b506101556106c7565b3480156101df57600080fd5b5061017f6106db565b3480156101f457600080fd5b504761017f565b34801561020757600080fd5b506033546001600160a01b0316610118565b34801561022557600080fd5b5061017f6102343660046115c4565b610748565b34801561024557600080fd5b5060c954610118906001600160a01b031681565b61015561088b565b34801561026d57600080fd5b5061015561027c36600461147a565b610a22565b610155610b5d565b34801561029557600080fd5b506101556102a43660046115e7565b610bad565b3480156102b557600080fd5b5061017f610d79565b3480156102ca57600080fd5b506101556102d936600461147a565b610e59565b60006103117f360894a13ba1a3210667c828492db98dca3e2076cc3735a920a3ca505d382bbc546001600160a01b031690565b905090565b6001600160a01b037f00000000000000000000000000000000000000000000000000000000000000001630036103a85760405162461bcd60e51b815260206004820152602c60248201527f46756e6374696f6e206d7573742062652063616c6c6564207468726f7567682060448201526b19195b1959d85d1958d85b1b60a21b60648201526084015b60405180910390fd5b7f00000000000000000000000000000000000000000000000000000000000000006001600160a01b03166104037f360894a13ba1a3210667c828492db98dca3e2076cc3735a920a3ca505d382bbc546001600160a01b031690565b6001600160a01b03161461046e5760405162461bcd60e51b815260206004820152602c60248201527f46756e6374696f6e206d7573742062652063616c6c6564207468726f7567682060448201526b6163746976652070726f787960a01b606482015260840161039f565b61047781610ecf565b6040805160008082526020820190925261049391839190610ed7565b50565b6001600160a01b037f00000000000000000000000000000000000000000000000000000000000000001630036105235760405162461bcd60e51b815260206004820152602c60248201527f46756e6374696f6e206d7573742062652063616c6c6564207468726f7567682060448201526b19195b1959d85d1958d85b1b60a21b606482015260840161039f565b7f00000000000000000000000000000000000000000000000000000000000000006001600160a01b031661057e7f360894a13ba1a3210667c828492db98dca3e2076cc3735a920a3ca505d382bbc546001600160a01b031690565b6001600160a01b0316146105e95760405162461bcd60e51b815260206004820152602c60248201527f46756e6374696f6e206d7573742062652063616c6c6564207468726f7567682060448201526b6163746976652070726f787960a01b606482015260840161039f565b6105f282610ecf565b6105fe82826001610ed7565b5050565b6000306001600160a01b037f000000000000000000000000000000000000000000000000000000000000000016146106a25760405162461bcd60e51b815260206004820152603860248201527f555550535570677261646561626c653a206d757374206e6f742062652063616c60448201527f6c6564207468726f7567682064656c656761746563616c6c0000000000000000606482015260840161039f565b507f360894a13ba1a3210667c828492db98dca3e2076cc3735a920a3ca505d382bbc90565b6106cf611063565b6106d960006110bd565b565b60c9546040516370a0823160e01b81523060048201526000916001600160a01b0316906370a0823190602401602060405180830381865afa158015610724573d6000803e3d6000fd5b505050506040513d601f19601f820116820180604052508101906103119190611600565b6000808260070b1361079c5760405162461bcd60e51b815260206004820181905260248201527f596f75206861766520746f206465706f736974206d6f7265207468616e20302e604482015260640161039f565b60c954604080516001600160a01b039092166024830152336044830152306064830152600784900b6084808401919091528151808403909101815260a490920181526020820180516001600160e01b031663eca3691760e01b1790525160009182916101679161080b91611619565b6000604051808303816000865af19150503d8060008114610848576040519150601f19603f3d011682016040523d82523d6000602084013e61084d565b606091505b50915091508161085e576015610872565b808060200190518101906108729190611635565b60030b92506016831461088457600080fd5b5050919050565b60c9546040516370a0823160e01b815230600482015234916000916001600160a01b03909116906370a0823190602401602060405180830381865afa1580156108d8573d6000803e3d6000fd5b505050506040513d601f19601f820116820180604052508101906108fc9190611600565b90506000821161094e5760405162461bcd60e51b815260206004820152601b60248201527f596f75206e65656420746f2073656e6420736f6d6520484241522e0000000000604482015260640161039f565b808211156109a85760405162461bcd60e51b815260206004820152602160248201527f4e6f7420656e6f75676820746f6b656e7320696e2074686520726573657276656044820152601760f91b606482015260840161039f565b60c95460405163a9059cbb60e01b8152336004820152602481018490526001600160a01b039091169063a9059cbb906044016020604051808303816000875af11580156109f9573d6000803e3d6000fd5b505050506040513d601f19601f82011682018060405250810190610a1d9190611658565b505050565b600054610100900460ff1615808015610a425750600054600160ff909116105b80610a5c5750303b158015610a5c575060005460ff166001145b610ace5760405162461bcd60e51b815260206004820152602e60248201527f496e697469616c697a61626c653a20636f6e747261637420697320616c72656160448201527f647920696e697469616c697a6564000000000000000000000000000000000000606482015260840161039f565b6000805460ff191660011790558015610af1576000805461ff0019166101001790555b60c980546001600160a01b0319166001600160a01b038416179055610b1461110f565b80156105fe576000805461ff0019169055604051600181527f7f26b83ff96e1f2b6a682f133852f6798a09c465da95921460cefb38474024989060200160405180910390a15050565b600034116106d95760405162461bcd60e51b815260206004820181905260248201527f596f75206861766520746f206465706f736974206d6f7265207468616e20302e604482015260640161039f565b60008111610c0b5760405162461bcd60e51b815260206004820152602560248201527f596f75206e65656420746f2073656c6c206174206c6561737420736f6d6520746044820152646f6b656e7360d81b606482015260840161039f565b60c954604051636eb1769f60e11b81523360048201523060248201526000916001600160a01b03169063dd62ed3e90604401602060405180830381865afa158015610c5a573d6000803e3d6000fd5b505050506040513d601f19601f82011682018060405250810190610c7e9190611600565b905081811015610cd05760405162461bcd60e51b815260206004820152601960248201527f436865636b2074686520746f6b656e20616c6c6f77616e636500000000000000604482015260640161039f565b60c9546040516323b872dd60e01b8152336004820152306024820152604481018490526001600160a01b03909116906323b872dd906064016020604051808303816000875af1158015610d27573d6000803e3d6000fd5b505050506040513d601f19601f82011682018060405250810190610d4b9190611658565b50604051339083156108fc029084906000818181858888f19350505050158015610a1d573d6000803e3d6000fd5b60c954604080513060248201526001600160a01b0390921660448084019190915281518084039091018152606490920181526020820180516001600160e01b031663248a35ef60e11b179052516000918291829161016791610ddb9190611619565b6000604051808303816000865af19150503d8060008114610e18576040519150601f19603f3d011682016040523d82523d6000602084013e610e1d565b606091505b509150915081610e2e576015610e42565b80806020019051810190610e429190611635565b60030b925060168314610e5457600080fd5b505090565b610e61611063565b6001600160a01b038116610ec65760405162461bcd60e51b815260206004820152602660248201527f4f776e61626c653a206e6577206f776e657220697320746865207a65726f206160448201526564647265737360d01b606482015260840161039f565b610493816110bd565b610493611063565b7f4910fdfa16fed3260ed0e7147f7cc6da11a60208b5b9406d12a635614ffd91435460ff1615610f0a57610a1d83611182565b826001600160a01b03166352d1902d6040518163ffffffff1660e01b8152600401602060405180830381865afa925050508015610f64575060408051601f3d908101601f19168201909252610f6191810190611600565b60015b610fd65760405162461bcd60e51b815260206004820152602e60248201527f45524331393637557067726164653a206e657720696d706c656d656e7461746960448201527f6f6e206973206e6f742055555053000000000000000000000000000000000000606482015260840161039f565b7f360894a13ba1a3210667c828492db98dca3e2076cc3735a920a3ca505d382bbc81146110575760405162461bcd60e51b815260206004820152602960248201527f45524331393637557067726164653a20756e737570706f727465642070726f786044820152681a58589b195555525160ba1b606482015260840161039f565b50610a1d838383611230565b6033546001600160a01b031633146106d95760405162461bcd60e51b815260206004820181905260248201527f4f776e61626c653a2063616c6c6572206973206e6f7420746865206f776e6572604482015260640161039f565b603380546001600160a01b038381166001600160a01b0319831681179093556040519116919082907f8be0079c531659141344cd1fd0a4f28419497f9722a3daafe3b4186f6b6457e090600090a35050565b600054610100900460ff1661117a5760405162461bcd60e51b815260206004820152602b60248201527f496e697469616c697a61626c653a20636f6e7472616374206973206e6f74206960448201526a6e697469616c697a696e6760a81b606482015260840161039f565b6106d961125b565b6001600160a01b0381163b6111ef5760405162461bcd60e51b815260206004820152602d60248201527f455243313936373a206e657720696d706c656d656e746174696f6e206973206e60448201526c1bdd08184818dbdb9d1c9858dd609a1b606482015260840161039f565b7f360894a13ba1a3210667c828492db98dca3e2076cc3735a920a3ca505d382bbc80546001600160a01b0319166001600160a01b0392909216919091179055565b611239836112cf565b6000825111806112465750805b15610a1d57611255838361130f565b50505050565b600054610100900460ff166112c65760405162461bcd60e51b815260206004820152602b60248201527f496e697469616c697a61626c653a20636f6e7472616374206973206e6f74206960448201526a6e697469616c697a696e6760a81b606482015260840161039f565b6106d9336110bd565b6112d881611182565b6040516001600160a01b038216907fbc7cd75a20ee27fd9adebab32041f755214dbc6bffa90cc0225b39da2e5c2d3b90600090a250565b6060611334838360405180606001604052806027815260200161167b6027913961133b565b9392505050565b6060600080856001600160a01b0316856040516113589190611619565b600060405180830381855af49150503d8060008114611393576040519150601f19603f3d011682016040523d82523d6000602084013e611398565b606091505b50915091506113a9868383876113b3565b9695505050505050565b6060831561142257825160000361141b576001600160a01b0385163b61141b5760405162461bcd60e51b815260206004820152601d60248201527f416464726573733a2063616c6c20746f206e6f6e2d636f6e7472616374000000604482015260640161039f565b508161142c565b61142c8383611434565b949350505050565b8151156114445781518083602001fd5b8060405162461bcd60e51b815260040161039f9190611591565b80356001600160a01b038116811461147557600080fd5b919050565b60006020828403121561148c57600080fd5b6113348261145e565b634e487b7160e01b600052604160045260246000fd5b600080604083850312156114be57600080fd5b6114c78361145e565b9150602083013567ffffffffffffffff808211156114e457600080fd5b818501915085601f8301126114f857600080fd5b81358181111561150a5761150a611495565b604051601f8201601f19908116603f0116810190838211818310171561153257611532611495565b8160405282815288602084870101111561154b57600080fd5b8260208601602083013760006020848301015280955050505050509250929050565b60005b83811015611588578181015183820152602001611570565b50506000910152565b60208152600082518060208401526115b081604085016020870161156d565b601f01601f19169190910160400192915050565b6000602082840312156115d657600080fd5b81358060070b811461133457600080fd5b6000602082840312156115f957600080fd5b5035919050565b60006020828403121561161257600080fd5b5051919050565b6000825161162b81846020870161156d565b9190910192915050565b60006020828403121561164757600080fd5b81518060030b811461133457600080fd5b60006020828403121561166a57600080fd5b8151801515811461133457600080fdfe416464726573733a206c6f772d6c6576656c2064656c65676174652063616c6c206661696c6564a26469706673582212209041228a8a7b84c5cfe5f3face22019884581f4e3bc43602082deaf8f0cb72cf64736f6c63430008130033",
  "linkReferences": {},
  "deployedLinkReferences": {}
}