{
  "_format": "hh-sol-artifact-1",
  "contractName": "ERC20PausableMock",
  "sourceName": "contracts/erc-20-extensions/ERC20Extensions.sol",
  "abi": [
    {
      "inputs": [
        {
          "internalType": "string",
          "name": "name",
          "type": "string"
        },
        {
          "internalType": "string",
          "name": "symbol",
          "type": "string"
        }
      ],
      "stateMutability": "nonpayable",
      "type": "constructor"
    },
    {
      "anonymous": false,
      "inputs": [
        {
          "indexed": true,
          "internalType": "address",
          "name": "owner",
          "type": "address"
        },
        {
          "indexed": true,
          "internalType": "address",
          "name": "spender",
          "type": "address"
        },
        {
          "indexed": false,
          "internalType": "uint256",
          "name": "value",
          "type": "uint256"
        }
      ],
      "name": "Approval",
      "type": "event"
    },
    {
      "anonymous": false,
      "inputs": [
        {
          "indexed": true,
          "internalType": "address",
          "name": "previousOwner",
          "type": "address"
        },
        {
          "indexed": true,
          "internalType": "address",
          "name": "newOwner",
          "type": "address"
        }
      ],
      "name": "OwnershipTransferred",
      "type": "event"
    },
    {
      "anonymous": false,
      "inputs": [
        {
          "indexed": false,
          "internalType": "address",
          "name": "account",
          "type": "address"
        }
      ],
      "name": "Paused",
      "type": "event"
    },
    {
      "anonymous": false,
      "inputs": [
        {
          "indexed": true,
          "internalType": "address",
          "name": "from",
          "type": "address"
        },
        {
          "indexed": true,
          "internalType": "address",
          "name": "to",
          "type": "address"
        },
        {
          "indexed": false,
          "internalType": "uint256",
          "name": "value",
          "type": "uint256"
        }
      ],
      "name": "Transfer",
      "type": "event"
    },
    {
      "anonymous": false,
      "inputs": [
        {
          "indexed": false,
          "internalType": "address",
          "name": "account",
          "type": "address"
        }
      ],
      "name": "Unpaused",
      "type": "event"
    },
    {
      "inputs": [
        {
          "internalType": "address",
          "name": "owner",
          "type": "address"
        },
        {
          "internalType": "address",
          "name": "spender",
          "type": "address"
        }
      ],
      "name": "allowance",
      "outputs": [
        {
          "internalType": "uint256",
          "name": "",
          "type": "uint256"
        }
      ],
      "stateMutability": "view",
      "type": "function"
    },
    {
      "inputs": [
        {
          "internalType": "address",
          "name": "spender",
          "type": "address"
        },
        {
          "internalType": "uint256",
          "name": "amount",
          "type": "uint256"
        }
      ],
      "name": "approve",
      "outputs": [
        {
          "internalType": "bool",
          "name": "",
          "type": "bool"
        }
      ],
      "stateMutability": "nonpayable",
      "type": "function"
    },
    {
      "inputs": [
        {
          "internalType": "address",
          "name": "account",
          "type": "address"
        }
      ],
      "name": "balanceOf",
      "outputs": [
        {
          "internalType": "uint256",
          "name": "",
          "type": "uint256"
        }
      ],
      "stateMutability": "view",
      "type": "function"
    },
    {
      "inputs": [],
      "name": "decimals",
      "outputs": [
        {
          "internalType": "uint8",
          "name": "",
          "type": "uint8"
        }
      ],
      "stateMutability": "view",
      "type": "function"
    },
    {
      "inputs": [
        {
          "internalType": "address",
          "name": "spender",
          "type": "address"
        },
        {
          "internalType": "uint256",
          "name": "subtractedValue",
          "type": "uint256"
        }
      ],
      "name": "decreaseAllowance",
      "outputs": [
        {
          "internalType": "bool",
          "name": "",
          "type": "bool"
        }
      ],
      "stateMutability": "nonpayable",
      "type": "function"
    },
    {
      "inputs": [
        {
          "internalType": "address",
          "name": "spender",
          "type": "address"
        },
        {
          "internalType": "uint256",
          "name": "addedValue",
          "type": "uint256"
        }
      ],
      "name": "increaseAllowance",
      "outputs": [
        {
          "internalType": "bool",
          "name": "",
          "type": "bool"
        }
      ],
      "stateMutability": "nonpayable",
      "type": "function"
    },
    {
      "inputs": [
        {
          "internalType": "address",
          "name": "to",
          "type": "address"
        },
        {
          "internalType": "uint256",
          "name": "amount",
          "type": "uint256"
        }
      ],
      "name": "mint",
      "outputs": [],
      "stateMutability": "nonpayable",
      "type": "function"
    },
    {
      "inputs": [],
      "name": "name",
      "outputs": [
        {
          "internalType": "string",
          "name": "",
          "type": "string"
        }
      ],
      "stateMutability": "view",
      "type": "function"
    },
    {
      "inputs": [],
      "name": "owner",
      "outputs": [
        {
          "internalType": "address",
          "name": "",
          "type": "address"
        }
      ],
      "stateMutability": "view",
      "type": "function"
    },
    {
      "inputs": [],
      "name": "pause",
      "outputs": [],
      "stateMutability": "nonpayable",
      "type": "function"
    },
    {
      "inputs": [],
      "name": "paused",
      "outputs": [
        {
          "internalType": "bool",
          "name": "",
          "type": "bool"
        }
      ],
      "stateMutability": "view",
      "type": "function"
    },
    {
      "inputs": [],
      "name": "renounceOwnership",
      "outputs": [],
      "stateMutability": "nonpayable",
      "type": "function"
    },
    {
      "inputs": [],
      "name": "symbol",
      "outputs": [
        {
          "internalType": "string",
          "name": "",
          "type": "string"
        }
      ],
      "stateMutability": "view",
      "type": "function"
    },
    {
      "inputs": [],
      "name": "totalSupply",
      "outputs": [
        {
          "internalType": "uint256",
          "name": "",
          "type": "uint256"
        }
      ],
      "stateMutability": "view",
      "type": "function"
    },
    {
      "inputs": [
        {
          "internalType": "address",
          "name": "to",
          "type": "address"
        },
        {
          "internalType": "uint256",
          "name": "amount",
          "type": "uint256"
        }
      ],
      "name": "transfer",
      "outputs": [
        {
          "internalType": "bool",
          "name": "",
          "type": "bool"
        }
      ],
      "stateMutability": "nonpayable",
      "type": "function"
    },
    {
      "inputs": [
        {
          "internalType": "address",
          "name": "from",
          "type": "address"
        },
        {
          "internalType": "address",
          "name": "to",
          "type": "address"
        },
        {
          "internalType": "uint256",
          "name": "amount",
          "type": "uint256"
        }
      ],
      "name": "transferFrom",
      "outputs": [
        {
          "internalType": "bool",
          "name": "",
          "type": "bool"
        }
      ],
      "stateMutability": "nonpayable",
      "type": "function"
    },
    {
      "inputs": [
        {
          "internalType": "address",
          "name": "newOwner",
          "type": "address"
        }
      ],
      "name": "transferOwnership",
      "outputs": [],
      "stateMutability": "nonpayable",
      "type": "function"
    },
    {
      "inputs": [],
      "name": "unpause",
      "outputs": [],
      "stateMutability": "nonpayable",
      "type": "function"
    }
  ],
  "bytecode": "0x60806040523480156200001157600080fd5b50604051620010e5380380620010e5833981016040819052620000349162000192565b818160036200004483826200028b565b5060046200005382826200028b565b50506005805460ff19169055506200006b3362000073565b505062000357565b600580546001600160a01b03838116610100818102610100600160a81b031985161790945560405193909204169182907f8be0079c531659141344cd1fd0a4f28419497f9722a3daafe3b4186f6b6457e090600090a35050565b634e487b7160e01b600052604160045260246000fd5b600082601f830112620000f557600080fd5b81516001600160401b0380821115620001125762000112620000cd565b604051601f8301601f19908116603f011681019082821181831017156200013d576200013d620000cd565b816040528381526020925086838588010111156200015a57600080fd5b600091505b838210156200017e57858201830151818301840152908201906200015f565b600093810190920192909252949350505050565b60008060408385031215620001a657600080fd5b82516001600160401b0380821115620001be57600080fd5b620001cc86838701620000e3565b93506020850151915080821115620001e357600080fd5b50620001f285828601620000e3565b9150509250929050565b600181811c908216806200021157607f821691505b6020821081036200023257634e487b7160e01b600052602260045260246000fd5b50919050565b601f8211156200028657600081815260208120601f850160051c81016020861015620002615750805b601f850160051c820191505b8181101562000282578281556001016200026d565b5050505b505050565b81516001600160401b03811115620002a757620002a7620000cd565b620002bf81620002b88454620001fc565b8462000238565b602080601f831160018114620002f75760008415620002de5750858301515b600019600386901b1c1916600185901b17855562000282565b600085815260208120601f198616915b82811015620003285788860151825594840194600190910190840162000307565b5085821015620003475787850151600019600388901b60f8161c191681555b5050505050600190811b01905550565b610d7e80620003676000396000f3fe608060405234801561001057600080fd5b50600436106101165760003560e01c806370a08231116100a257806395d89b411161007157806395d89b411461022d578063a457c2d714610235578063a9059cbb14610248578063dd62ed3e1461025b578063f2fde38b1461029457600080fd5b806370a08231146101cb578063715018a6146101f45780638456cb59146101fc5780638da5cb5b1461020457600080fd5b8063313ce567116100e9578063313ce5671461018157806339509351146101905780633f4ba83a146101a357806340c10f19146101ad5780635c975abb146101c057600080fd5b806306fdde031461011b578063095ea7b31461013957806318160ddd1461015c57806323b872dd1461016e575b600080fd5b6101236102a7565b6040516101309190610bc8565b60405180910390f35b61014c610147366004610c32565b610339565b6040519015158152602001610130565b6002545b604051908152602001610130565b61014c61017c366004610c5c565b610353565b60405160128152602001610130565b61014c61019e366004610c32565b610377565b6101ab6103b6565b005b6101ab6101bb366004610c32565b6103c8565b60055460ff1661014c565b6101606101d9366004610c98565b6001600160a01b031660009081526020819052604090205490565b6101ab6103e3565b6101ab6103f5565b60055461010090046001600160a01b03166040516001600160a01b039091168152602001610130565b610123610405565b61014c610243366004610c32565b610414565b61014c610256366004610c32565b6104ab565b610160610269366004610cba565b6001600160a01b03918216600090815260016020908152604080832093909416825291909152205490565b6101ab6102a2366004610c98565b6104b9565b6060600380546102b690610ced565b80601f01602080910402602001604051908101604052809291908181526020018280546102e290610ced565b801561032f5780601f106103045761010080835404028352916020019161032f565b820191906000526020600020905b81548152906001019060200180831161031257829003601f168201915b5050505050905090565b600033610347818585610532565b60019150505b92915050565b600033610361858285610656565b61036c8585856106e8565b506001949350505050565b3360008181526001602090815260408083206001600160a01b038716845290915281205490919061034790829086906103b1908790610d27565b610532565b6103be610897565b6103c66108f7565b565b600081116103d557600080fd5b6103df8282610949565b5050565b6103eb610897565b6103c66000610a14565b6103fd610897565b6103c6610a7b565b6060600480546102b690610ced565b3360008181526001602090815260408083206001600160a01b03871684529091528120549091908381101561049e5760405162461bcd60e51b815260206004820152602560248201527f45524332303a2064656372656173656420616c6c6f77616e63652062656c6f77604482015264207a65726f60d81b60648201526084015b60405180910390fd5b61036c8286868403610532565b6000336103478185856106e8565b6104c1610897565b6001600160a01b0381166105265760405162461bcd60e51b815260206004820152602660248201527f4f776e61626c653a206e6577206f776e657220697320746865207a65726f206160448201526564647265737360d01b6064820152608401610495565b61052f81610a14565b50565b6001600160a01b0383166105945760405162461bcd60e51b8152602060048201526024808201527f45524332303a20617070726f76652066726f6d20746865207a65726f206164646044820152637265737360e01b6064820152608401610495565b6001600160a01b0382166105f55760405162461bcd60e51b815260206004820152602260248201527f45524332303a20617070726f766520746f20746865207a65726f206164647265604482015261737360f01b6064820152608401610495565b6001600160a01b0383811660008181526001602090815260408083209487168084529482529182902085905590518481527f8c5be1e5ebec7d5bd14f71427d1e84f3dd0314c0f7b2291e5b200ac8c7c3b925910160405180910390a3505050565b6001600160a01b0383811660009081526001602090815260408083209386168352929052205460001981146106e257818110156106d55760405162461bcd60e51b815260206004820152601d60248201527f45524332303a20696e73756666696369656e7420616c6c6f77616e63650000006044820152606401610495565b6106e28484848403610532565b50505050565b6001600160a01b03831661074c5760405162461bcd60e51b815260206004820152602560248201527f45524332303a207472616e736665722066726f6d20746865207a65726f206164604482015264647265737360d81b6064820152608401610495565b6001600160a01b0382166107ae5760405162461bcd60e51b815260206004820152602360248201527f45524332303a207472616e7366657220746f20746865207a65726f206164647260448201526265737360e81b6064820152608401610495565b6107b9838383610ab8565b6001600160a01b038316600090815260208190526040902054818110156108315760405162461bcd60e51b815260206004820152602660248201527f45524332303a207472616e7366657220616d6f756e7420657863656564732062604482015265616c616e636560d01b6064820152608401610495565b6001600160a01b03848116600081815260208181526040808320878703905593871680835291849020805487019055925185815290927fddf252ad1be2c89b69c2b068fc378daa952ba7f163c4a11628f55a4df523b3ef910160405180910390a36106e2565b6005546001600160a01b036101009091041633146103c65760405162461bcd60e51b815260206004820181905260248201527f4f776e61626c653a2063616c6c6572206973206e6f7420746865206f776e65726044820152606401610495565b6108ff610b23565b6005805460ff191690557f5db9ee0a495bf2e6ff9c91a7834c1ba4fdd244a5e8aa4e537bd38aeae4b073aa335b6040516001600160a01b03909116815260200160405180910390a1565b6001600160a01b03821661099f5760405162461bcd60e51b815260206004820152601f60248201527f45524332303a206d696e7420746f20746865207a65726f2061646472657373006044820152606401610495565b6109ab60008383610ab8565b80600260008282546109bd9190610d27565b90915550506001600160a01b038216600081815260208181526040808320805486019055518481527fddf252ad1be2c89b69c2b068fc378daa952ba7f163c4a11628f55a4df523b3ef910160405180910390a35050565b600580546001600160a01b0383811661010081810274ffffffffffffffffffffffffffffffffffffffff001985161790945560405193909204169182907f8be0079c531659141344cd1fd0a4f28419497f9722a3daafe3b4186f6b6457e090600090a35050565b610a83610b75565b6005805460ff191660011790557f62e78cea01bee320cd4e420270b5ea74000d11b0c9f74754ebdbfc544b05a25861092c3390565b60055460ff1615610b1e5760405162461bcd60e51b815260206004820152602a60248201527f45524332305061757361626c653a20746f6b656e207472616e736665722077686044820152691a5b19481c185d5cd95960b21b6064820152608401610495565b505050565b60055460ff166103c65760405162461bcd60e51b815260206004820152601460248201527f5061757361626c653a206e6f74207061757365640000000000000000000000006044820152606401610495565b60055460ff16156103c65760405162461bcd60e51b815260206004820152601060248201527f5061757361626c653a20706175736564000000000000000000000000000000006044820152606401610495565b600060208083528351808285015260005b81811015610bf557858101830151858201604001528201610bd9565b506000604082860101526040601f19601f8301168501019250505092915050565b80356001600160a01b0381168114610c2d57600080fd5b919050565b60008060408385031215610c4557600080fd5b610c4e83610c16565b946020939093013593505050565b600080600060608486031215610c7157600080fd5b610c7a84610c16565b9250610c8860208501610c16565b9150604084013590509250925092565b600060208284031215610caa57600080fd5b610cb382610c16565b9392505050565b60008060408385031215610ccd57600080fd5b610cd683610c16565b9150610ce460208401610c16565b90509250929050565b600181811c90821680610d0157607f821691505b602082108103610d2157634e487b7160e01b600052602260045260246000fd5b50919050565b8082018082111561034d57634e487b7160e01b600052601160045260246000fdfea2646970667358221220b1bb22161f4df0b433de78d4a5061396e071926a08a3ca5583df6fe6de5c494b64736f6c63430008130033",
  "linkReferences": {},
  "deployedLinkReferences": {}
}