{
  "_format": "hh-sol-artifact-1",
  "contractName": "ERC20SnapshotMock",
  "sourceName": "contracts/erc-20-extensions/ERC20Extensions.sol",
  "abi": [
    {
      "inputs": [
        {
          "internalType": "string",
          "name": "name",
          "type": "string"
        },
        {
          "internalType": "string",
          "name": "symbol",
          "type": "string"
        }
      ],
      "stateMutability": "nonpayable",
      "type": "constructor"
    },
    {
      "anonymous": false,
      "inputs": [
        {
          "indexed": true,
          "internalType": "address",
          "name": "owner",
          "type": "address"
        },
        {
          "indexed": true,
          "internalType": "address",
          "name": "spender",
          "type": "address"
        },
        {
          "indexed": false,
          "internalType": "uint256",
          "name": "value",
          "type": "uint256"
        }
      ],
      "name": "Approval",
      "type": "event"
    },
    {
      "anonymous": false,
      "inputs": [
        {
          "indexed": false,
          "internalType": "uint256",
          "name": "id",
          "type": "uint256"
        }
      ],
      "name": "Snapshot",
      "type": "event"
    },
    {
      "anonymous": false,
      "inputs": [
        {
          "indexed": true,
          "internalType": "address",
          "name": "from",
          "type": "address"
        },
        {
          "indexed": true,
          "internalType": "address",
          "name": "to",
          "type": "address"
        },
        {
          "indexed": false,
          "internalType": "uint256",
          "name": "value",
          "type": "uint256"
        }
      ],
      "name": "Transfer",
      "type": "event"
    },
    {
      "inputs": [
        {
          "internalType": "address",
          "name": "owner",
          "type": "address"
        },
        {
          "internalType": "address",
          "name": "spender",
          "type": "address"
        }
      ],
      "name": "allowance",
      "outputs": [
        {
          "internalType": "uint256",
          "name": "",
          "type": "uint256"
        }
      ],
      "stateMutability": "view",
      "type": "function"
    },
    {
      "inputs": [
        {
          "internalType": "address",
          "name": "spender",
          "type": "address"
        },
        {
          "internalType": "uint256",
          "name": "amount",
          "type": "uint256"
        }
      ],
      "name": "approve",
      "outputs": [
        {
          "internalType": "bool",
          "name": "",
          "type": "bool"
        }
      ],
      "stateMutability": "nonpayable",
      "type": "function"
    },
    {
      "inputs": [
        {
          "internalType": "address",
          "name": "account",
          "type": "address"
        }
      ],
      "name": "balanceOf",
      "outputs": [
        {
          "internalType": "uint256",
          "name": "",
          "type": "uint256"
        }
      ],
      "stateMutability": "view",
      "type": "function"
    },
    {
      "inputs": [
        {
          "internalType": "address",
          "name": "account",
          "type": "address"
        },
        {
          "internalType": "uint256",
          "name": "snapshotId",
          "type": "uint256"
        }
      ],
      "name": "balanceOfAt",
      "outputs": [
        {
          "internalType": "uint256",
          "name": "",
          "type": "uint256"
        }
      ],
      "stateMutability": "view",
      "type": "function"
    },
    {
      "inputs": [],
      "name": "decimals",
      "outputs": [
        {
          "internalType": "uint8",
          "name": "",
          "type": "uint8"
        }
      ],
      "stateMutability": "view",
      "type": "function"
    },
    {
      "inputs": [
        {
          "internalType": "address",
          "name": "spender",
          "type": "address"
        },
        {
          "internalType": "uint256",
          "name": "subtractedValue",
          "type": "uint256"
        }
      ],
      "name": "decreaseAllowance",
      "outputs": [
        {
          "internalType": "bool",
          "name": "",
          "type": "bool"
        }
      ],
      "stateMutability": "nonpayable",
      "type": "function"
    },
    {
      "inputs": [
        {
          "internalType": "address",
          "name": "spender",
          "type": "address"
        },
        {
          "internalType": "uint256",
          "name": "addedValue",
          "type": "uint256"
        }
      ],
      "name": "increaseAllowance",
      "outputs": [
        {
          "internalType": "bool",
          "name": "",
          "type": "bool"
        }
      ],
      "stateMutability": "nonpayable",
      "type": "function"
    },
    {
      "inputs": [
        {
          "internalType": "address",
          "name": "to",
          "type": "address"
        },
        {
          "internalType": "uint256",
          "name": "amount",
          "type": "uint256"
        }
      ],
      "name": "mint",
      "outputs": [],
      "stateMutability": "nonpayable",
      "type": "function"
    },
    {
      "inputs": [],
      "name": "name",
      "outputs": [
        {
          "internalType": "string",
          "name": "",
          "type": "string"
        }
      ],
      "stateMutability": "view",
      "type": "function"
    },
    {
      "inputs": [],
      "name": "snapshot",
      "outputs": [],
      "stateMutability": "nonpayable",
      "type": "function"
    },
    {
      "inputs": [],
      "name": "symbol",
      "outputs": [
        {
          "internalType": "string",
          "name": "",
          "type": "string"
        }
      ],
      "stateMutability": "view",
      "type": "function"
    },
    {
      "inputs": [],
      "name": "totalSupply",
      "outputs": [
        {
          "internalType": "uint256",
          "name": "",
          "type": "uint256"
        }
      ],
      "stateMutability": "view",
      "type": "function"
    },
    {
      "inputs": [
        {
          "internalType": "uint256",
          "name": "snapshotId",
          "type": "uint256"
        }
      ],
      "name": "totalSupplyAt",
      "outputs": [
        {
          "internalType": "uint256",
          "name": "",
          "type": "uint256"
        }
      ],
      "stateMutability": "view",
      "type": "function"
    },
    {
      "inputs": [
        {
          "internalType": "address",
          "name": "to",
          "type": "address"
        },
        {
          "internalType": "uint256",
          "name": "amount",
          "type": "uint256"
        }
      ],
      "name": "transfer",
      "outputs": [
        {
          "internalType": "bool",
          "name": "",
          "type": "bool"
        }
      ],
      "stateMutability": "nonpayable",
      "type": "function"
    },
    {
      "inputs": [
        {
          "internalType": "address",
          "name": "from",
          "type": "address"
        },
        {
          "internalType": "address",
          "name": "to",
          "type": "address"
        },
        {
          "internalType": "uint256",
          "name": "amount",
          "type": "uint256"
        }
      ],
      "name": "transferFrom",
      "outputs": [
        {
          "internalType": "bool",
          "name": "",
          "type": "bool"
        }
      ],
      "stateMutability": "nonpayable",
      "type": "function"
    }
  ],
  "bytecode": "0x60806040523480156200001157600080fd5b506040516200115938038062001159833981016040819052620000349162000123565b818160036200004483826200021c565b5060046200005382826200021c565b5050505050620002e8565b634e487b7160e01b600052604160045260246000fd5b600082601f8301126200008657600080fd5b81516001600160401b0380821115620000a357620000a36200005e565b604051601f8301601f19908116603f01168101908282118183101715620000ce57620000ce6200005e565b81604052838152602092508683858801011115620000eb57600080fd5b600091505b838210156200010f5785820183015181830184015290820190620000f0565b600093810190920192909252949350505050565b600080604083850312156200013757600080fd5b82516001600160401b03808211156200014f57600080fd5b6200015d8683870162000074565b935060208501519150808211156200017457600080fd5b50620001838582860162000074565b9150509250929050565b600181811c90821680620001a257607f821691505b602082108103620001c357634e487b7160e01b600052602260045260246000fd5b50919050565b601f8211156200021757600081815260208120601f850160051c81016020861015620001f25750805b601f850160051c820191505b818110156200021357828155600101620001fe565b5050505b505050565b81516001600160401b038111156200023857620002386200005e565b62000250816200024984546200018d565b84620001c9565b602080601f8311600181146200028857600084156200026f5750858301515b600019600386901b1c1916600185901b17855562000213565b600085815260208120601f198616915b82811015620002b95788860151825594840194600190910190840162000298565b5085821015620002d85787850151600019600388901b60f8161c191681555b5050505050600190811b01905550565b610e6180620002f86000396000f3fe608060405234801561001057600080fd5b50600436106100f55760003560e01c80634ee2cd7e11610097578063981b24d011610066578063981b24d0146101e3578063a457c2d7146101f6578063a9059cbb14610209578063dd62ed3e1461021c57600080fd5b80634ee2cd7e1461019757806370a08231146101aa57806395d89b41146101d35780639711715a146101db57600080fd5b806323b872dd116100d357806323b872dd1461014d578063313ce56714610160578063395093511461016f57806340c10f191461018257600080fd5b806306fdde03146100fa578063095ea7b31461011857806318160ddd1461013b575b600080fd5b610102610255565b60405161010f9190610c4b565b60405180910390f35b61012b610126366004610cb0565b6102e7565b604051901515815260200161010f565b6002545b60405190815260200161010f565b61012b61015b366004610cda565b610301565b6040516012815260200161010f565b61012b61017d366004610cb0565b610325565b610195610190366004610cb0565b610364565b005b61013f6101a5366004610cb0565b61037f565b61013f6101b8366004610d16565b6001600160a01b031660009081526020819052604090205490565b6101026103d8565b6101956103e7565b61013f6101f1366004610d31565b6103f2565b61012b610204366004610cb0565b61041d565b61012b610217366004610cb0565b6104b4565b61013f61022a366004610d4a565b6001600160a01b03918216600090815260016020908152604080832093909416825291909152205490565b60606003805461026490610d7d565b80601f016020809104026020016040519081016040528092919081815260200182805461029090610d7d565b80156102dd5780601f106102b2576101008083540402835291602001916102dd565b820191906000526020600020905b8154815290600101906020018083116102c057829003601f168201915b5050505050905090565b6000336102f58185856104c2565b60019150505b92915050565b60003361030f8582856105e6565b61031a858585610678565b506001949350505050565b3360008181526001602090815260408083206001600160a01b03871684529091528120549091906102f5908290869061035f908790610dcd565b6104c2565b6000811161037157600080fd5b61037b8282610827565b5050565b6001600160a01b0382166000908152600560205260408120819081906103a69085906108f2565b91509150816103cd576001600160a01b0385166000908152602081905260409020546103cf565b805b95945050505050565b60606004805461026490610d7d565b6103ef6109ef565b50565b60008060006104028460066108f2565b915091508161041357600254610415565b805b949350505050565b3360008181526001602090815260408083206001600160a01b0387168452909152812054909190838110156104a75760405162461bcd60e51b815260206004820152602560248201527f45524332303a2064656372656173656420616c6c6f77616e63652062656c6f77604482015264207a65726f60d81b60648201526084015b60405180910390fd5b61031a82868684036104c2565b6000336102f5818585610678565b6001600160a01b0383166105245760405162461bcd60e51b8152602060048201526024808201527f45524332303a20617070726f76652066726f6d20746865207a65726f206164646044820152637265737360e01b606482015260840161049e565b6001600160a01b0382166105855760405162461bcd60e51b815260206004820152602260248201527f45524332303a20617070726f766520746f20746865207a65726f206164647265604482015261737360f01b606482015260840161049e565b6001600160a01b0383811660008181526001602090815260408083209487168084529482529182902085905590518481527f8c5be1e5ebec7d5bd14f71427d1e84f3dd0314c0f7b2291e5b200ac8c7c3b925910160405180910390a3505050565b6001600160a01b03838116600090815260016020908152604080832093861683529290522054600019811461067257818110156106655760405162461bcd60e51b815260206004820152601d60248201527f45524332303a20696e73756666696369656e7420616c6c6f77616e6365000000604482015260640161049e565b61067284848484036104c2565b50505050565b6001600160a01b0383166106dc5760405162461bcd60e51b815260206004820152602560248201527f45524332303a207472616e736665722066726f6d20746865207a65726f206164604482015264647265737360d81b606482015260840161049e565b6001600160a01b03821661073e5760405162461bcd60e51b815260206004820152602360248201527f45524332303a207472616e7366657220746f20746865207a65726f206164647260448201526265737360e81b606482015260840161049e565b610749838383610a49565b6001600160a01b038316600090815260208190526040902054818110156107c15760405162461bcd60e51b815260206004820152602660248201527f45524332303a207472616e7366657220616d6f756e7420657863656564732062604482015265616c616e636560d01b606482015260840161049e565b6001600160a01b03848116600081815260208181526040808320878703905593871680835291849020805487019055925185815290927fddf252ad1be2c89b69c2b068fc378daa952ba7f163c4a11628f55a4df523b3ef910160405180910390a3610672565b6001600160a01b03821661087d5760405162461bcd60e51b815260206004820152601f60248201527f45524332303a206d696e7420746f20746865207a65726f206164647265737300604482015260640161049e565b61088960008383610a49565b806002600082825461089b9190610dcd565b90915550506001600160a01b038216600081815260208181526040808320805486019055518481527fddf252ad1be2c89b69c2b068fc378daa952ba7f163c4a11628f55a4df523b3ef910160405180910390a35050565b600080600084116109455760405162461bcd60e51b815260206004820152601660248201527f4552433230536e617073686f743a206964206973203000000000000000000000604482015260640161049e565b61094d610a96565b84111561099c5760405162461bcd60e51b815260206004820152601d60248201527f4552433230536e617073686f743a206e6f6e6578697374656e74206964000000604482015260640161049e565b60006109a88486610aa6565b845490915081036109c05760008092509250506109e8565b60018460010182815481106109d7576109d7610de0565b906000526020600020015492509250505b9250929050565b60006109ff600880546001019055565b6000610a09610a96565b90507f8030e83b04d87bef53480e26263266d6ca66863aa8506aca6f2559d18aa1cb6781604051610a3c91815260200190565b60405180910390a1919050565b6001600160a01b038316610a6d57610a6082610b53565b610a68610b85565b505050565b6001600160a01b038216610a8457610a6083610b53565b610a8d83610b53565b610a6882610b53565b6000610aa160085490565b905090565b81546000908103610ab9575060006102fb565b82546000905b80821015610b06576000610ad38383610b95565b60008781526020902090915085908201541115610af257809150610b00565b610afd816001610dcd565b92505b50610abf565b600082118015610b32575083610b2f86610b21600186610df6565b600091825260209091200190565b54145b15610b4b57610b42600183610df6565b925050506102fb565b5090506102fb565b6001600160a01b038116600090815260056020908152604080832091839052909120546103ef9190610bb7565b610bb7565b610b936006610b8060025490565b565b6000610ba46002848418610e09565b610bb090848416610dcd565b9392505050565b6000610bc1610a96565b905080610bcd84610c01565b1015610a68578254600180820185556000858152602080822090930193909355938401805494850181558252902090910155565b80546000908103610c1457506000919050565b81548290610c2490600190610df6565b81548110610c3457610c34610de0565b90600052602060002001549050919050565b919050565b600060208083528351808285015260005b81811015610c7857858101830151858201604001528201610c5c565b506000604082860101526040601f19601f8301168501019250505092915050565b80356001600160a01b0381168114610c4657600080fd5b60008060408385031215610cc357600080fd5b610ccc83610c99565b946020939093013593505050565b600080600060608486031215610cef57600080fd5b610cf884610c99565b9250610d0660208501610c99565b9150604084013590509250925092565b600060208284031215610d2857600080fd5b610bb082610c99565b600060208284031215610d4357600080fd5b5035919050565b60008060408385031215610d5d57600080fd5b610d6683610c99565b9150610d7460208401610c99565b90509250929050565b600181811c90821680610d9157607f821691505b602082108103610db157634e487b7160e01b600052602260045260246000fd5b50919050565b634e487b7160e01b600052601160045260246000fd5b808201808211156102fb576102fb610db7565b634e487b7160e01b600052603260045260246000fd5b818103818111156102fb576102fb610db7565b600082610e2657634e487b7160e01b600052601260045260246000fd5b50049056fea26469706673582212201247481275752b5930f16d4f0a1adba5e48c58c7636e810cc7fac5411938577464736f6c63430008130033",
  "linkReferences": {},
  "deployedLinkReferences": {}
}