{
  "_format": "hh-sol-artifact-1",
  "contractName": "Counter",
  "sourceName": "contracts/proxy-upgrade/counter/Counter.sol",
  "abi": [
    {
      "anonymous": false,
      "inputs": [
        {
          "indexed": false,
          "internalType": "address",
          "name": "previousAdmin",
          "type": "address"
        },
        {
          "indexed": false,
          "internalType": "address",
          "name": "newAdmin",
          "type": "address"
        }
      ],
      "name": "AdminChanged",
      "type": "event"
    },
    {
      "anonymous": false,
      "inputs": [
        {
          "indexed": true,
          "internalType": "address",
          "name": "beacon",
          "type": "address"
        }
      ],
      "name": "BeaconUpgraded",
      "type": "event"
    },
    {
      "anonymous": false,
      "inputs": [
        {
          "indexed": false,
          "internalType": "uint8",
          "name": "version",
          "type": "uint8"
        }
      ],
      "name": "Initialized",
      "type": "event"
    },
    {
      "anonymous": false,
      "inputs": [
        {
          "indexed": true,
          "internalType": "address",
          "name": "previousOwner",
          "type": "address"
        },
        {
          "indexed": true,
          "internalType": "address",
          "name": "newOwner",
          "type": "address"
        }
      ],
      "name": "OwnershipTransferred",
      "type": "event"
    },
    {
      "anonymous": false,
      "inputs": [
        {
          "indexed": true,
          "internalType": "address",
          "name": "implementation",
          "type": "address"
        }
      ],
      "name": "Upgraded",
      "type": "event"
    },
    {
      "inputs": [],
      "name": "count",
      "outputs": [
        {
          "internalType": "int256",
          "name": "",
          "type": "int256"
        }
      ],
      "stateMutability": "view",
      "type": "function"
    },
    {
      "inputs": [],
      "name": "decrement",
      "outputs": [
        {
          "internalType": "int256",
          "name": "",
          "type": "int256"
        }
      ],
      "stateMutability": "nonpayable",
      "type": "function"
    },
    {
      "inputs": [],
      "name": "increment",
      "outputs": [
        {
          "internalType": "int256",
          "name": "",
          "type": "int256"
        }
      ],
      "stateMutability": "nonpayable",
      "type": "function"
    },
    {
      "inputs": [
        {
          "internalType": "string",
          "name": "_name",
          "type": "string"
        }
      ],
      "name": "initialize",
      "outputs": [],
      "stateMutability": "nonpayable",
      "type": "function"
    },
    {
      "inputs": [],
      "name": "name",
      "outputs": [
        {
          "internalType": "string",
          "name": "",
          "type": "string"
        }
      ],
      "stateMutability": "view",
      "type": "function"
    },
    {
      "inputs": [],
      "name": "owner",
      "outputs": [
        {
          "internalType": "address",
          "name": "",
          "type": "address"
        }
      ],
      "stateMutability": "view",
      "type": "function"
    },
    {
      "inputs": [],
      "name": "proxiableUUID",
      "outputs": [
        {
          "internalType": "bytes32",
          "name": "",
          "type": "bytes32"
        }
      ],
      "stateMutability": "view",
      "type": "function"
    },
    {
      "inputs": [],
      "name": "renounceOwnership",
      "outputs": [],
      "stateMutability": "nonpayable",
      "type": "function"
    },
    {
      "inputs": [
        {
          "internalType": "address",
          "name": "newOwner",
          "type": "address"
        }
      ],
      "name": "transferOwnership",
      "outputs": [],
      "stateMutability": "nonpayable",
      "type": "function"
    },
    {
      "inputs": [
        {
          "internalType": "address",
          "name": "newImplementation",
          "type": "address"
        }
      ],
      "name": "upgradeTo",
      "outputs": [],
      "stateMutability": "nonpayable",
      "type": "function"
    },
    {
      "inputs": [
        {
          "internalType": "address",
          "name": "newImplementation",
          "type": "address"
        },
        {
          "internalType": "bytes",
          "name": "data",
          "type": "bytes"
        }
      ],
      "name": "upgradeToAndCall",
      "outputs": [],
      "stateMutability": "payable",
      "type": "function"
    }
  ],
  "bytecode": "0x60a06040523060805234801561001457600080fd5b506080516111ca61004c600039600081816102a30152818161032d01528181610423015281816104a8015261059201526111ca6000f3fe6080604052600436106100ac5760003560e01c806352d1902d11610074578063d09de08a1161004e578063d09de08a14610198578063f2fde38b146101ad578063f62d1888146101cd57600080fd5b806352d1902d14610146578063715018a61461015b5780638da5cb5b1461017057600080fd5b806306661abd146100b157806306fdde03146100da5780632baeceb7146100fc5780633659cfe6146101115780634f1ef28614610133575b600080fd5b3480156100bd57600080fd5b506100c760ca5481565b6040519081526020015b60405180910390f35b3480156100e657600080fd5b506100ef6101ed565b6040516100d19190610de4565b34801561010857600080fd5b506100c761027b565b34801561011d57600080fd5b5061013161012c366004610e33565b610299565b005b610131610141366004610eda565b610419565b34801561015257600080fd5b506100c7610585565b34801561016757600080fd5b5061013161064a565b34801561017c57600080fd5b506033546040516001600160a01b0390911681526020016100d1565b3480156101a457600080fd5b506100c761065e565b3480156101b957600080fd5b506101316101c8366004610e33565b61066f565b3480156101d957600080fd5b506101316101e8366004610f3c565b6106e5565b60c980546101fa90610f85565b80601f016020809104026020016040519081016040528092919081815260200182805461022690610f85565b80156102735780601f1061024857610100808354040283529160200191610273565b820191906000526020600020905b81548152906001019060200180831161025657829003601f168201915b505050505081565b60ca80546000918261028c83610fd5565b919050555060ca54905090565b6001600160a01b037f000000000000000000000000000000000000000000000000000000000000000016300361032b5760405162461bcd60e51b815260206004820152602c60248201527f46756e6374696f6e206d7573742062652063616c6c6564207468726f7567682060448201526b19195b1959d85d1958d85b1b60a21b60648201526084015b60405180910390fd5b7f00000000000000000000000000000000000000000000000000000000000000006001600160a01b03166103867f360894a13ba1a3210667c828492db98dca3e2076cc3735a920a3ca505d382bbc546001600160a01b031690565b6001600160a01b0316146103f15760405162461bcd60e51b815260206004820152602c60248201527f46756e6374696f6e206d7573742062652063616c6c6564207468726f7567682060448201526b6163746976652070726f787960a01b6064820152608401610322565b6103fa81610812565b604080516000808252602082019092526104169183919061081a565b50565b6001600160a01b037f00000000000000000000000000000000000000000000000000000000000000001630036104a65760405162461bcd60e51b815260206004820152602c60248201527f46756e6374696f6e206d7573742062652063616c6c6564207468726f7567682060448201526b19195b1959d85d1958d85b1b60a21b6064820152608401610322565b7f00000000000000000000000000000000000000000000000000000000000000006001600160a01b03166105017f360894a13ba1a3210667c828492db98dca3e2076cc3735a920a3ca505d382bbc546001600160a01b031690565b6001600160a01b03161461056c5760405162461bcd60e51b815260206004820152602c60248201527f46756e6374696f6e206d7573742062652063616c6c6564207468726f7567682060448201526b6163746976652070726f787960a01b6064820152608401610322565b61057582610812565b6105818282600161081a565b5050565b6000306001600160a01b037f000000000000000000000000000000000000000000000000000000000000000016146106255760405162461bcd60e51b815260206004820152603860248201527f555550535570677261646561626c653a206d757374206e6f742062652063616c60448201527f6c6564207468726f7567682064656c656761746563616c6c00000000000000006064820152608401610322565b507f360894a13ba1a3210667c828492db98dca3e2076cc3735a920a3ca505d382bbc90565b6106526109ab565b61065c6000610a05565b565b60ca80546000918261028c83610ff2565b6106776109ab565b6001600160a01b0381166106dc5760405162461bcd60e51b815260206004820152602660248201527f4f776e61626c653a206e6577206f776e657220697320746865207a65726f206160448201526564647265737360d01b6064820152608401610322565b61041681610a05565b600054610100900460ff16158080156107055750600054600160ff909116105b8061071f5750303b15801561071f575060005460ff166001145b6107915760405162461bcd60e51b815260206004820152602e60248201527f496e697469616c697a61626c653a20636f6e747261637420697320616c72656160448201527f647920696e697469616c697a65640000000000000000000000000000000000006064820152608401610322565b6000805460ff1916600117905580156107b4576000805461ff0019166101001790555b60c96107c08382611078565b506107c9610a64565b8015610581576000805461ff0019169055604051600181527f7f26b83ff96e1f2b6a682f133852f6798a09c465da95921460cefb38474024989060200160405180910390a15050565b6104166109ab565b7f4910fdfa16fed3260ed0e7147f7cc6da11a60208b5b9406d12a635614ffd91435460ff16156108525761084d83610ad7565b505050565b826001600160a01b03166352d1902d6040518163ffffffff1660e01b8152600401602060405180830381865afa9250505080156108ac575060408051601f3d908101601f191682019092526108a991810190611138565b60015b61091e5760405162461bcd60e51b815260206004820152602e60248201527f45524331393637557067726164653a206e657720696d706c656d656e7461746960448201527f6f6e206973206e6f7420555550530000000000000000000000000000000000006064820152608401610322565b7f360894a13ba1a3210667c828492db98dca3e2076cc3735a920a3ca505d382bbc811461099f5760405162461bcd60e51b815260206004820152602960248201527f45524331393637557067726164653a20756e737570706f727465642070726f786044820152681a58589b195555525160ba1b6064820152608401610322565b5061084d838383610b92565b6033546001600160a01b0316331461065c5760405162461bcd60e51b815260206004820181905260248201527f4f776e61626c653a2063616c6c6572206973206e6f7420746865206f776e65726044820152606401610322565b603380546001600160a01b0383811673ffffffffffffffffffffffffffffffffffffffff19831681179093556040519116919082907f8be0079c531659141344cd1fd0a4f28419497f9722a3daafe3b4186f6b6457e090600090a35050565b600054610100900460ff16610acf5760405162461bcd60e51b815260206004820152602b60248201527f496e697469616c697a61626c653a20636f6e7472616374206973206e6f74206960448201526a6e697469616c697a696e6760a81b6064820152608401610322565b61065c610bbd565b6001600160a01b0381163b610b445760405162461bcd60e51b815260206004820152602d60248201527f455243313936373a206e657720696d706c656d656e746174696f6e206973206e60448201526c1bdd08184818dbdb9d1c9858dd609a1b6064820152608401610322565b7f360894a13ba1a3210667c828492db98dca3e2076cc3735a920a3ca505d382bbc805473ffffffffffffffffffffffffffffffffffffffff19166001600160a01b0392909216919091179055565b610b9b83610c31565b600082511180610ba85750805b1561084d57610bb78383610c71565b50505050565b600054610100900460ff16610c285760405162461bcd60e51b815260206004820152602b60248201527f496e697469616c697a61626c653a20636f6e7472616374206973206e6f74206960448201526a6e697469616c697a696e6760a81b6064820152608401610322565b61065c33610a05565b610c3a81610ad7565b6040516001600160a01b038216907fbc7cd75a20ee27fd9adebab32041f755214dbc6bffa90cc0225b39da2e5c2d3b90600090a250565b6060610c96838360405180606001604052806027815260200161116e60279139610c9d565b9392505050565b6060600080856001600160a01b031685604051610cba9190611151565b600060405180830381855af49150503d8060008114610cf5576040519150601f19603f3d011682016040523d82523d6000602084013e610cfa565b606091505b5091509150610d0b86838387610d15565b9695505050505050565b60608315610d84578251600003610d7d576001600160a01b0385163b610d7d5760405162461bcd60e51b815260206004820152601d60248201527f416464726573733a2063616c6c20746f206e6f6e2d636f6e74726163740000006044820152606401610322565b5081610d8e565b610d8e8383610d96565b949350505050565b815115610da65781518083602001fd5b8060405162461bcd60e51b81526004016103229190610de4565b60005b83811015610ddb578181015183820152602001610dc3565b50506000910152565b6020815260008251806020840152610e03816040850160208701610dc0565b601f01601f19169190910160400192915050565b80356001600160a01b0381168114610e2e57600080fd5b919050565b600060208284031215610e4557600080fd5b610c9682610e17565b634e487b7160e01b600052604160045260246000fd5b600067ffffffffffffffff80841115610e7f57610e7f610e4e565b604051601f8501601f19908116603f01168101908282118183101715610ea757610ea7610e4e565b81604052809350858152868686011115610ec057600080fd5b858560208301376000602087830101525050509392505050565b60008060408385031215610eed57600080fd5b610ef683610e17565b9150602083013567ffffffffffffffff811115610f1257600080fd5b8301601f81018513610f2357600080fd5b610f3285823560208401610e64565b9150509250929050565b600060208284031215610f4e57600080fd5b813567ffffffffffffffff811115610f6557600080fd5b8201601f81018413610f7657600080fd5b610d8e84823560208401610e64565b600181811c90821680610f9957607f821691505b602082108103610fb957634e487b7160e01b600052602260045260246000fd5b50919050565b634e487b7160e01b600052601160045260246000fd5b6000600160ff1b8201610fea57610fea610fbf565b506000190190565b60007f7fffffffffffffffffffffffffffffffffffffffffffffffffffffffffffffff820361102357611023610fbf565b5060010190565b601f82111561084d57600081815260208120601f850160051c810160208610156110515750805b601f850160051c820191505b818110156110705782815560010161105d565b505050505050565b815167ffffffffffffffff81111561109257611092610e4e565b6110a6816110a08454610f85565b8461102a565b602080601f8311600181146110db57600084156110c35750858301515b600019600386901b1c1916600185901b178555611070565b600085815260208120601f198616915b8281101561110a578886015182559484019460019091019084016110eb565b50858210156111285787850151600019600388901b60f8161c191681555b5050505050600190811b01905550565b60006020828403121561114a57600080fd5b5051919050565b60008251611163818460208701610dc0565b919091019291505056fe416464726573733a206c6f772d6c6576656c2064656c65676174652063616c6c206661696c6564a2646970667358221220eaea153d0aebf834de3c1386f847fddcf00429f7320418b0fa29c2a8885498de64736f6c63430008130033",
  "linkReferences": {},
  "deployedLinkReferences": {}
}