{
  "_format": "hh-sol-artifact-1",
  "contractName": "LTE",
  "sourceName": "contracts/hts-precompile/LTE.sol",
  "abi": [
    {
      "inputs": [
        {
          "internalType": "string",
          "name": "_creatorName",
          "type": "string"
        },
        {
          "internalType": "string",
          "name": "_tokenName",
          "type": "string"
        },
        {
          "internalType": "string",
          "name": "_tokenSymbol",
          "type": "string"
        },
        {
          "internalType": "int64",
          "name": "_initialTokenSupply",
          "type": "int64"
        }
      ],
      "stateMutability": "nonpayable",
      "type": "constructor"
    },
    {
      "anonymous": false,
      "inputs": [
        {
          "indexed": false,
          "internalType": "bool",
          "name": "",
          "type": "bool"
        },
        {
          "indexed": false,
          "internalType": "bytes",
          "name": "",
          "type": "bytes"
        }
      ],
      "name": "CallResponseEvent",
      "type": "event"
    },
    {
      "anonymous": false,
      "inputs": [
        {
          "indexed": false,
          "internalType": "address",
          "name": "tokenAddress",
          "type": "address"
        }
      ],
      "name": "CreatedToken",
      "type": "event"
    },
    {
      "anonymous": false,
      "inputs": [
        {
          "indexed": false,
          "internalType": "bool",
          "name": "kycGranted",
          "type": "bool"
        }
      ],
      "name": "KycGranted",
      "type": "event"
    },
    {
      "anonymous": false,
      "inputs": [
        {
          "indexed": false,
          "internalType": "int64",
          "name": "newTotalSupply",
          "type": "int64"
        },
        {
          "indexed": false,
          "internalType": "int64[]",
          "name": "serialNumbers",
          "type": "int64[]"
        }
      ],
      "name": "MintedToken",
      "type": "event"
    },
    {
      "anonymous": false,
      "inputs": [
        {
          "indexed": false,
          "internalType": "int256",
          "name": "responseCode",
          "type": "int256"
        }
      ],
      "name": "ResponseCode",
      "type": "event"
    },
    {
      "anonymous": false,
      "inputs": [
        {
          "indexed": true,
          "internalType": "address",
          "name": "user",
          "type": "address"
        }
      ],
      "name": "UserAuthenticated",
      "type": "event"
    },
    {
      "inputs": [],
      "name": "authenticate",
      "outputs": [],
      "stateMutability": "nonpayable",
      "type": "function"
    },
    {
      "inputs": [
        {
          "internalType": "address",
          "name": "",
          "type": "address"
        }
      ],
      "name": "authenticatedUsers",
      "outputs": [
        {
          "internalType": "bool",
          "name": "",
          "type": "bool"
        }
      ],
      "stateMutability": "view",
      "type": "function"
    },
    {
      "inputs": [
        {
          "internalType": "address",
          "name": "treasury",
          "type": "address"
        }
      ],
      "name": "createFungibleToken",
      "outputs": [],
      "stateMutability": "payable",
      "type": "function"
    },
    {
      "inputs": [
        {
          "internalType": "address",
          "name": "user",
          "type": "address"
        }
      ],
      "name": "isUserAuthenticated",
      "outputs": [
        {
          "internalType": "bool",
          "name": "",
          "type": "bool"
        }
      ],
      "stateMutability": "view",
      "type": "function"
    },
    {
      "inputs": [
        {
          "internalType": "address",
          "name": "token",
          "type": "address"
        },
        {
          "internalType": "int64",
          "name": "amount",
          "type": "int64"
        },
        {
          "internalType": "bytes[]",
          "name": "metadata",
          "type": "bytes[]"
        }
      ],
      "name": "mintFungibleToken",
      "outputs": [
        {
          "internalType": "int256",
          "name": "responseCode",
          "type": "int256"
        },
        {
          "internalType": "int64",
          "name": "newTotalSupply",
          "type": "int64"
        },
        {
          "internalType": "int64[]",
          "name": "serialNumbers",
          "type": "int64[]"
        }
      ],
      "stateMutability": "nonpayable",
      "type": "function"
    },
    {
      "inputs": [],
      "name": "owner",
      "outputs": [
        {
          "internalType": "address payable",
          "name": "",
          "type": "address"
        }
      ],
      "stateMutability": "view",
      "type": "function"
    },
    {
      "inputs": [
        {
          "internalType": "address",
          "name": "token",
          "type": "address"
        },
        {
          "internalType": "bytes",
          "name": "encodedFunctionSelector",
          "type": "bytes"
        }
      ],
      "name": "redirectForToken",
      "outputs": [],
      "stateMutability": "nonpayable",
      "type": "function"
    },
    {
      "inputs": [
        {
          "internalType": "string",
          "name": "_name",
          "type": "string"
        },
        {
          "internalType": "string",
          "name": "_message",
          "type": "string"
        },
        {
          "internalType": "uint256",
          "name": "_score",
          "type": "uint256"
        }
      ],
      "name": "sendAssessmentResult",
      "outputs": [
        {
          "internalType": "uint256",
          "name": "",
          "type": "uint256"
        }
      ],
      "stateMutability": "payable",
      "type": "function"
    },
    {
      "inputs": [
        {
          "internalType": "address",
          "name": "token",
          "type": "address"
        },
        {
          "internalType": "address",
          "name": "from",
          "type": "address"
        },
        {
          "internalType": "address",
          "name": "to",
          "type": "address"
        },
        {
          "internalType": "uint256",
          "name": "amount",
          "type": "uint256"
        }
      ],
      "name": "transferFrom",
      "outputs": [
        {
          "internalType": "int64",
          "name": "responseCode",
          "type": "int64"
        }
      ],
      "stateMutability": "nonpayable",
      "type": "function"
    },
    {
      "inputs": [
        {
          "internalType": "address",
          "name": "token",
          "type": "address"
        },
        {
          "internalType": "address",
          "name": "from",
          "type": "address"
        },
        {
          "internalType": "address",
          "name": "to",
          "type": "address"
        },
        {
          "internalType": "uint256",
          "name": "serialNumber",
          "type": "uint256"
        }
      ],
      "name": "transferFromNFT",
      "outputs": [
        {
          "internalType": "int64",
          "name": "responseCode",
          "type": "int64"
        }
      ],
      "stateMutability": "nonpayable",
      "type": "function"
    }
  ],
  "bytecode": "0x60c0604052600b60809081526a63726561746f724e616d6560a81b60a0526002906200002c9082620002f5565b50604080518082019091526009815268746f6b656e4e616d6560b81b60208201526003906200005c9082620002f5565b5060408051808201909152600b81526a1d1bdad95b94de5b589bdb60aa1b60208201526004906200008e9082620002f5565b506040805180820190915260048152636d656d6f60e01b6020820152600590620000b99082620002f5565b50600680546001600160a81b031916700800000000000027100000000000002710179055348015620000ea57600080fd5b5060405162001e6a38038062001e6a8339810160408190526200010d9162000470565b600160208181527fa6eef7e35abe7026729641147f7915573c7e97b47efa546f5f6e3230263bcb499190915560027fcc69885fda6bcc1a4ace058b4a62bf5e179ea78fd58a1ccd71c22cc9b688792f81905560047fd9d16d34ffb15ba3a3d852f0d403e2ce1d691fb54de27ac87cd2f993f3ec330f5560087f7dfe757ecd65cbd7922a9c0161e935dd7fdbcc0e999689c7d31633896b1fc60b5560107fedc95719e9a3b28dd8e80877cb5880a9be7de1a13fc8b05e7999683b6b567643557fe2689cd4a84e23ad2f564004f1c9013e9589d260bde6380aba3ca7e09e4df40c91909155600660005260407f8f331abe73332f95a25873e8b430885974c0409691f89d643119a11623a7924a55620002258582620002f5565b50600680546001600160401b0319166001600160401b0392909216919091179055506200051b915050565b634e487b7160e01b600052604160045260246000fd5b600181811c908216806200027b57607f821691505b6020821081036200029c57634e487b7160e01b600052602260045260246000fd5b50919050565b601f821115620002f057600081815260208120601f850160051c81016020861015620002cb5750805b601f850160051c820191505b81811015620002ec57828155600101620002d7565b5050505b505050565b81516001600160401b0381111562000311576200031162000250565b620003298162000322845462000266565b84620002a2565b602080601f831160018114620003615760008415620003485750858301515b600019600386901b1c1916600185901b178555620002ec565b600085815260208120601f198616915b82811015620003925788860151825594840194600190910190840162000371565b5085821015620003b15787850151600019600388901b60f8161c191681555b5050505050600190811b01905550565b600082601f830112620003d357600080fd5b81516001600160401b0380821115620003f057620003f062000250565b604051601f8301601f19908116603f011681019082821181831017156200041b576200041b62000250565b816040528381526020925086838588010111156200043857600080fd5b600091505b838210156200045c57858201830151818301840152908201906200043d565b600093810190920192909252949350505050565b600080600080608085870312156200048757600080fd5b84516001600160401b03808211156200049f57600080fd5b620004ad88838901620003c1565b95506020870151915080821115620004c457600080fd5b620004d288838901620003c1565b94506040870151915080821115620004e957600080fd5b50620004f887828801620003c1565b92505060608501518060070b81146200051057600080fd5b939692955090935050565b61193f806200052b6000396000f3fe6080604052600436106100915760003560e01c80638da5cb5b116100595780638da5cb5b1461016f5780639b23d3d9146101a7578063b9ee7327146101c7578063bbe9cf00146101da578063c13e1f2c1461020957600080fd5b806315dacbea14610096578063380c7a67146100ce578063618dc65e146100e55780637091998a14610105578063717ca68114610126575b600080fd5b3480156100a257600080fd5b506100b66100b1366004610f9e565b610239565b60405160079190910b81526020015b60405180910390f35b3480156100da57600080fd5b506100e361032d565b005b3480156100f157600080fd5b506100e36101003660046110a6565b61036f565b6101186101133660046110f6565b61045d565b6040519081526020016100c5565b34801561013257600080fd5b5061015f610141366004611163565b6001600160a01b031660009081526009602052604090205460ff1690565b60405190151581526020016100c5565b34801561017b57600080fd5b5060075461018f906001600160a01b031681565b6040516001600160a01b0390911681526020016100c5565b3480156101b357600080fd5b506100b66101c2366004610f9e565b61060b565b6100e36101d5366004611163565b610650565b3480156101e657600080fd5b506101fa6101f53660046111b3565b610a6a565b6040516100c5939291906112ce565b34801561021557600080fd5b5061015f610224366004611163565b60096020526000908152604090205460ff1681565b6040516001600160a01b038581166024830152848116604483015283166064820152608481018290526000908190819061016790630aed65f560e11b9060a4015b60408051601f198184030181529181526020820180516001600160e01b03166001600160e01b03199094169390931790925290516102b8919061131d565b6000604051808303816000865af19150503d80600081146102f5576040519150601f19603f3d011682016040523d82523d6000602084013e6102fa565b606091505b50915091508161030b57601561031f565b8080602001905181019061031f9190611350565b60030b979650505050505050565b33600081815260096020526040808220805460ff19166001179055517fc33c48353ef54fd43cb788278ab804ec5fe708d0a0a7d9169563cdb83e0136279190a2565b6000806101676001600160a01b031663618dc65e60e01b8585604051602401610399929190611397565b60408051601f198184030181529181526020820180516001600160e01b03166001600160e01b03199094169390931790925290516103d7919061131d565b6000604051808303816000865af19150503d8060008114610414576040519150601f19603f3d011682016040523d82523d6000602084013e610419565b606091505b50915091507f4af4780e06fe8cb9df64b0794fa6f01399af979175bb988e35e0e57e594567bc828260405161044f9291906113c1565b60405180910390a150505050565b6000603282116104b35760405162461bcd60e51b815260206004820152601b60248201527f5175616c696669656420746f206561726e20746f6b656e73203a290000000000604482015260640160405180910390fd5b6040805160a081018252338152426020820190815291810186815260608201869052608082018590526008805460018101825560009190915282517ff3f7a9fe364faab93b216da50a3214154f22a0a2b415b23a84c8169e8b636ee36005909202918201805473ffffffffffffffffffffffffffffffffffffffff19166001600160a01b0390921691909117815593517ff3f7a9fe364faab93b216da50a3214154f22a0a2b415b23a84c8169e8b636ee482015590519192917ff3f7a9fe364faab93b216da50a3214154f22a0a2b415b23a84c8169e8b636ee59091019061059b9082611465565b50606082015160038201906105b09082611465565b50608091909101516004909101556006805461271091906000906105d890849060070b611525565b92506101000a81548167ffffffffffffffff021916908360070b67ffffffffffffffff1602179055503490509392505050565b6040516001600160a01b038581166024830152848116604483015283166064820152608481018290526000908190819061016790639b23d3d960e01b9060a40161027a565b60408051600580825260c08201909252600091816020015b610670610f29565b8152602001906001900390816106685790505090506106a360006006600060405180602001604052806000815250610b04565b816000815181106106b6576106b6611562565b60200260200101819052506106dd6001600060405180602001604052806000815250610b3b565b816001815181106106f0576106f0611562565b60200260200101819052506107176002600060405180602001604052806000815250610b3b565b8160028151811061072a5761072a611562565b60200260200101819052506107516003600060405180602001604052806000815250610b3b565b8160038151811061076457610764611562565b602002602001018190525061078b6004600060405180602001604052806000815250610b3b565b8160048151811061079e5761079e611562565b602002602001018190525060006040518060600160405280600060070b8152602001846001600160a01b03168152602001627a120060070b81525090506000604051806101200160405280600380546107f6906113dc565b80601f0160208091040260200160405190810160405280929190818152602001828054610822906113dc565b801561086f5780601f106108445761010080835404028352916020019161086f565b820191906000526020600020905b81548152906001019060200180831161085257829003601f168201915b5050505050815260200160048054610886906113dc565b80601f01602080910402602001604051908101604052809291908181526020018280546108b2906113dc565b80156108ff5780601f106108d4576101008083540402835291602001916108ff565b820191906000526020600020905b8154815290600101906020018083116108e257829003601f168201915b50505050508152602001856001600160a01b0316815260200160058054610925906113dc565b80601f0160208091040260200160405190810160405280929190818152602001828054610951906113dc565b801561099e5780601f106109735761010080835404028352916020019161099e565b820191906000526020600020905b81548152906001019060200180831161098157829003601f168201915b505050918352505060016020820152600654680100000000000000008104600790810b604084015260ff600160a01b830416151560608401526080830187905260a09092018590529192506000918291610a1491859181900b90700100000000000000000000000000000000900460030b610b70565b909250905060168214610a2657600080fd5b6040516001600160a01b03821681527f7bb17726df1f3adee8aa00ba8e8bc5d6f182af3bbf77604639cb7f008dd3b4ed9060200160405180910390a1505050505050565b6000806060610a7a868686610c98565b60405183815292955090935091507f90a5cf4cffe88b4edbb041cfc7a8a812c48a5ec30b84640fb37690875168e3aa9060200160405180910390a160168314610ac257600080fd5b7ffc6b20023c4bac8ff1c48c1693e0cea5cd3c2163e9c2da41c58f17dd6d9f163d8282604051610af3929190611578565b60405180910390a193509350939050565b610b0c610f29565b6040518060400160405280610b218787610d96565b8152602001610b308585610dd8565b905295945050505050565b610b43610f29565b6040518060400160405280610b5786610eea565b8152602001610b668585610dd8565b9052949350505050565b600080848061010001516000015160070b6000148015610b9a57506101008101516040015160070b155b15610bb0576101008101516276a7006040909101525b6000806101676001600160a01b031634630fb65bf360e01b8a8a8a604051602401610bdd93929190611658565b60408051601f198184030181529181526020820180516001600160e01b03166001600160e01b0319909416939093179092529051610c1b919061131d565b60006040518083038185875af1925050503d8060008114610c58576040519150601f19603f3d011682016040523d82523d6000602084013e610c5d565b606091505b509150915081610c705760156000610c84565b80806020019051810190610c84919061177f565b60039190910b999098509650505050505050565b60008060606000806101676001600160a01b031663e0f4059a60e01b898989604051602401610cc9939291906117b6565b60408051601f198184030181529181526020820180516001600160e01b03166001600160e01b0319909416939093179092529051610d07919061131d565b6000604051808303816000865af19150503d8060008114610d44576040519150601f19603f3d011682016040523d82523d6000602084013e610d49565b606091505b509150915081610d6c576040805160008082526020820190925260159190610d80565b80806020019051810190610d809190611833565b60039290920b9a90995090975095505050505050565b6000610dba836006811115610dad57610dad6118f3565b600160ff9091161b821790565b9050610dd1826006811115610dad57610dad6118f3565b9392505050565b610e1e6040518060a0016040528060001515815260200160006001600160a01b03168152602001606081526020016060815260200160006001600160a01b031681525090565b6000836004811115610e3257610e326118f3565b03610e405760018152610ee4565b6001836004811115610e5457610e546118f3565b03610e6f576000546001600160a01b03166020820152610ee4565b6002836004811115610e8357610e836118f3565b03610e945760408101829052610ee4565b6003836004811115610ea857610ea86118f3565b03610eb95760608101829052610ee4565b6004836004811115610ecd57610ecd6118f3565b03610ee4576000546001600160a01b031660808201525b92915050565b600060016000836006811115610f0257610f026118f3565b6006811115610f1357610f136118f3565b8152602001908152602001600020549050919050565b604051806040016040528060008152602001610f816040518060a0016040528060001515815260200160006001600160a01b03168152602001606081526020016060815260200160006001600160a01b031681525090565b905290565b6001600160a01b0381168114610f9b57600080fd5b50565b60008060008060808587031215610fb457600080fd5b8435610fbf81610f86565b93506020850135610fcf81610f86565b92506040850135610fdf81610f86565b9396929550929360600135925050565b634e487b7160e01b600052604160045260246000fd5b604051601f8201601f1916810167ffffffffffffffff8111828210171561102e5761102e610fef565b604052919050565b600082601f83011261104757600080fd5b813567ffffffffffffffff81111561106157611061610fef565b611074601f8201601f1916602001611005565b81815284602083860101111561108957600080fd5b816020850160208301376000918101602001919091529392505050565b600080604083850312156110b957600080fd5b82356110c481610f86565b9150602083013567ffffffffffffffff8111156110e057600080fd5b6110ec85828601611036565b9150509250929050565b60008060006060848603121561110b57600080fd5b833567ffffffffffffffff8082111561112357600080fd5b61112f87838801611036565b9450602086013591508082111561114557600080fd5b5061115286828701611036565b925050604084013590509250925092565b60006020828403121561117557600080fd5b8135610dd181610f86565b8060070b8114610f9b57600080fd5b600067ffffffffffffffff8211156111a9576111a9610fef565b5060051b60200190565b6000806000606084860312156111c857600080fd5b83356111d381610f86565b92506020848101356111e481611180565b9250604085013567ffffffffffffffff8082111561120157600080fd5b818701915087601f83011261121557600080fd5b81356112286112238261118f565b611005565b81815260059190911b8301840190848101908a83111561124757600080fd5b8585015b8381101561127f578035858111156112635760008081fd5b6112718d89838a0101611036565b84525091860191860161124b565b508096505050505050509250925092565b600081518084526020808501945080840160005b838110156112c357815160070b875295820195908201906001016112a4565b509495945050505050565b8381528260070b60208201526060604082015260006112f06060830184611290565b95945050505050565b60005b838110156113145781810151838201526020016112fc565b50506000910152565b6000825161132f8184602087016112f9565b9190910192915050565b8051600381900b811461134b57600080fd5b919050565b60006020828403121561136257600080fd5b610dd182611339565b600081518084526113838160208601602086016112f9565b601f01601f19169290920160200192915050565b6001600160a01b03831681526040602082015260006113b9604083018461136b565b949350505050565b82151581526040602082015260006113b9604083018461136b565b600181811c908216806113f057607f821691505b60208210810361141057634e487b7160e01b600052602260045260246000fd5b50919050565b601f82111561146057600081815260208120601f850160051c8101602086101561143d5750805b601f850160051c820191505b8181101561145c57828155600101611449565b5050505b505050565b815167ffffffffffffffff81111561147f5761147f610fef565b6114938161148d84546113dc565b84611416565b602080601f8311600181146114c857600084156114b05750858301515b600019600386901b1c1916600185901b17855561145c565b600085815260208120601f198616915b828110156114f7578886015182559484019460019091019084016114d8565b50858210156115155787850151600019600388901b60f8161c191681555b5050505050600190811b01905550565b600782810b9082900b03677fffffffffffffff198112677fffffffffffffff82131715610ee457634e487b7160e01b600052601160045260246000fd5b634e487b7160e01b600052603260045260246000fd5b8260070b81526040602082015260006113b96040830184611290565b600081518084526020808501808196508360051b8101915082860160005b8581101561164b5782840389528151604081518652868201519150808787015281511515818701528682015160606001600160a01b03808316828a015283850151935060a09250608083818b015261160d60e08b018661136b565b928601518a8403603f1901858c0152929450611629858461136b565b9501511660c098909801979097525050988501989350908401906001016115b2565b5091979650505050505050565b60608152600084516101608060608501526116776101c085018361136b565b91506020870151605f1980868503016080870152611695848361136b565b9350604089015191506116b360a08701836001600160a01b03169052565b60608901519150808685030160c08701526116ce848361136b565b9350608089015191506116e560e087018315159052565b60a089015191506101006116fd8188018460070b9052565b60c08a0151151561012088015260e08a0151878603830161014089015292506117268584611594565b9450808a01519250505061176282860182805160070b82526001600160a01b036020820151166020830152604081015160070b60408301525050565b5050600785900b602084015290506113b9604083018460030b9052565b6000806040838503121561179257600080fd5b61179b83611339565b915060208301516117ab81610f86565b809150509250929050565b6000606082016001600160a01b038616835260208560070b818501526060604085015281855180845260808601915060808160051b870101935082870160005b8281101561182457607f1988870301845261181286835161136b565b955092840192908401906001016117f6565b50939998505050505050505050565b60008060006060848603121561184857600080fd5b61185184611339565b925060208085015161186281611180565b604086015190935067ffffffffffffffff81111561187f57600080fd5b8501601f8101871361189057600080fd5b805161189e6112238261118f565b81815260059190911b820183019083810190898311156118bd57600080fd5b928401925b828410156118e45783516118d581611180565b825292840192908401906118c2565b80955050505050509250925092565b634e487b7160e01b600052602160045260246000fdfea2646970667358221220f0254847767f7a5f3c4de67f0ad9066eb5921d88d6e83e064ec19eac0ad0780464736f6c63430008130033",
  "linkReferences": {},
  "deployedLinkReferences": {}
}