{
  "_format": "hh-sol-artifact-1",
  "contractName": "CounterV2",
  "sourceName": "contracts/proxy-upgrade/counter/CounterV2.sol",
  "abi": [
    {
      "anonymous": false,
      "inputs": [
        {
          "indexed": false,
          "internalType": "address",
          "name": "previousAdmin",
          "type": "address"
        },
        {
          "indexed": false,
          "internalType": "address",
          "name": "newAdmin",
          "type": "address"
        }
      ],
      "name": "AdminChanged",
      "type": "event"
    },
    {
      "anonymous": false,
      "inputs": [
        {
          "indexed": true,
          "internalType": "address",
          "name": "beacon",
          "type": "address"
        }
      ],
      "name": "BeaconUpgraded",
      "type": "event"
    },
    {
      "anonymous": false,
      "inputs": [
        {
          "indexed": false,
          "internalType": "uint8",
          "name": "version",
          "type": "uint8"
        }
      ],
      "name": "Initialized",
      "type": "event"
    },
    {
      "anonymous": false,
      "inputs": [
        {
          "indexed": true,
          "internalType": "address",
          "name": "previousOwner",
          "type": "address"
        },
        {
          "indexed": true,
          "internalType": "address",
          "name": "newOwner",
          "type": "address"
        }
      ],
      "name": "OwnershipTransferred",
      "type": "event"
    },
    {
      "anonymous": false,
      "inputs": [
        {
          "indexed": true,
          "internalType": "address",
          "name": "implementation",
          "type": "address"
        }
      ],
      "name": "Upgraded",
      "type": "event"
    },
    {
      "inputs": [
        {
          "internalType": "string",
          "name": "_name",
          "type": "string"
        }
      ],
      "name": "changeName",
      "outputs": [],
      "stateMutability": "nonpayable",
      "type": "function"
    },
    {
      "inputs": [],
      "name": "count",
      "outputs": [
        {
          "internalType": "int256",
          "name": "",
          "type": "int256"
        }
      ],
      "stateMutability": "view",
      "type": "function"
    },
    {
      "inputs": [],
      "name": "decrement",
      "outputs": [
        {
          "internalType": "int256",
          "name": "",
          "type": "int256"
        }
      ],
      "stateMutability": "nonpayable",
      "type": "function"
    },
    {
      "inputs": [],
      "name": "increment",
      "outputs": [
        {
          "internalType": "int256",
          "name": "",
          "type": "int256"
        }
      ],
      "stateMutability": "nonpayable",
      "type": "function"
    },
    {
      "inputs": [
        {
          "internalType": "string",
          "name": "_name",
          "type": "string"
        }
      ],
      "name": "initialize",
      "outputs": [],
      "stateMutability": "nonpayable",
      "type": "function"
    },
    {
      "inputs": [],
      "name": "name",
      "outputs": [
        {
          "internalType": "string",
          "name": "",
          "type": "string"
        }
      ],
      "stateMutability": "view",
      "type": "function"
    },
    {
      "inputs": [],
      "name": "owner",
      "outputs": [
        {
          "internalType": "address",
          "name": "",
          "type": "address"
        }
      ],
      "stateMutability": "view",
      "type": "function"
    },
    {
      "inputs": [],
      "name": "proxiableUUID",
      "outputs": [
        {
          "internalType": "bytes32",
          "name": "",
          "type": "bytes32"
        }
      ],
      "stateMutability": "view",
      "type": "function"
    },
    {
      "inputs": [],
      "name": "renounceOwnership",
      "outputs": [],
      "stateMutability": "nonpayable",
      "type": "function"
    },
    {
      "inputs": [
        {
          "internalType": "address",
          "name": "newOwner",
          "type": "address"
        }
      ],
      "name": "transferOwnership",
      "outputs": [],
      "stateMutability": "nonpayable",
      "type": "function"
    },
    {
      "inputs": [
        {
          "internalType": "address",
          "name": "newImplementation",
          "type": "address"
        }
      ],
      "name": "upgradeTo",
      "outputs": [],
      "stateMutability": "nonpayable",
      "type": "function"
    },
    {
      "inputs": [
        {
          "internalType": "address",
          "name": "newImplementation",
          "type": "address"
        },
        {
          "internalType": "bytes",
          "name": "data",
          "type": "bytes"
        }
      ],
      "name": "upgradeToAndCall",
      "outputs": [],
      "stateMutability": "payable",
      "type": "function"
    }
  ],
  "bytecode": "0x60a06040523060805234801561001457600080fd5b5060805161121161004c600039600081816102de015281816103680152818161045e015281816104e301526105cd01526112116000f3fe6080604052600436106100c75760003560e01c80635353a2d811610074578063d09de08a1161004e578063d09de08a146101d3578063f2fde38b146101e8578063f62d18881461020857600080fd5b80635353a2d814610176578063715018a6146101965780638da5cb5b146101ab57600080fd5b80633659cfe6116100a55780633659cfe61461012c5780634f1ef2861461014e57806352d1902d1461016157600080fd5b806306661abd146100cc57806306fdde03146100f55780632baeceb714610117575b600080fd5b3480156100d857600080fd5b506100e260ca5481565b6040519081526020015b60405180910390f35b34801561010157600080fd5b5061010a610228565b6040516100ec9190610e2b565b34801561012357600080fd5b506100e26102b6565b34801561013857600080fd5b5061014c610147366004610e7a565b6102d4565b005b61014c61015c366004610f21565b610454565b34801561016d57600080fd5b506100e26105c0565b34801561018257600080fd5b5061014c610191366004610f83565b610685565b3480156101a257600080fd5b5061014c610691565b3480156101b757600080fd5b506033546040516001600160a01b0390911681526020016100ec565b3480156101df57600080fd5b506100e26106a5565b3480156101f457600080fd5b5061014c610203366004610e7a565b6106b6565b34801561021457600080fd5b5061014c610223366004610f83565b61072c565b60c9805461023590610fcc565b80601f016020809104026020016040519081016040528092919081815260200182805461026190610fcc565b80156102ae5780601f10610283576101008083540402835291602001916102ae565b820191906000526020600020905b81548152906001019060200180831161029157829003601f168201915b505050505081565b60ca8054600091826102c78361101c565b919050555060ca54905090565b6001600160a01b037f00000000000000000000000000000000000000000000000000000000000000001630036103665760405162461bcd60e51b815260206004820152602c60248201527f46756e6374696f6e206d7573742062652063616c6c6564207468726f7567682060448201526b19195b1959d85d1958d85b1b60a21b60648201526084015b60405180910390fd5b7f00000000000000000000000000000000000000000000000000000000000000006001600160a01b03166103c17f360894a13ba1a3210667c828492db98dca3e2076cc3735a920a3ca505d382bbc546001600160a01b031690565b6001600160a01b03161461042c5760405162461bcd60e51b815260206004820152602c60248201527f46756e6374696f6e206d7573742062652063616c6c6564207468726f7567682060448201526b6163746976652070726f787960a01b606482015260840161035d565b61043581610859565b6040805160008082526020820190925261045191839190610861565b50565b6001600160a01b037f00000000000000000000000000000000000000000000000000000000000000001630036104e15760405162461bcd60e51b815260206004820152602c60248201527f46756e6374696f6e206d7573742062652063616c6c6564207468726f7567682060448201526b19195b1959d85d1958d85b1b60a21b606482015260840161035d565b7f00000000000000000000000000000000000000000000000000000000000000006001600160a01b031661053c7f360894a13ba1a3210667c828492db98dca3e2076cc3735a920a3ca505d382bbc546001600160a01b031690565b6001600160a01b0316146105a75760405162461bcd60e51b815260206004820152602c60248201527f46756e6374696f6e206d7573742062652063616c6c6564207468726f7567682060448201526b6163746976652070726f787960a01b606482015260840161035d565b6105b082610859565b6105bc82826001610861565b5050565b6000306001600160a01b037f000000000000000000000000000000000000000000000000000000000000000016146106605760405162461bcd60e51b815260206004820152603860248201527f555550535570677261646561626c653a206d757374206e6f742062652063616c60448201527f6c6564207468726f7567682064656c656761746563616c6c0000000000000000606482015260840161035d565b507f360894a13ba1a3210667c828492db98dca3e2076cc3735a920a3ca505d382bbc90565b60c96105bc8282611087565b6106996109f2565b6106a36000610a4c565b565b60ca8054600091826102c783611147565b6106be6109f2565b6001600160a01b0381166107235760405162461bcd60e51b815260206004820152602660248201527f4f776e61626c653a206e6577206f776e657220697320746865207a65726f206160448201526564647265737360d01b606482015260840161035d565b61045181610a4c565b600054610100900460ff161580801561074c5750600054600160ff909116105b806107665750303b158015610766575060005460ff166001145b6107d85760405162461bcd60e51b815260206004820152602e60248201527f496e697469616c697a61626c653a20636f6e747261637420697320616c72656160448201527f647920696e697469616c697a6564000000000000000000000000000000000000606482015260840161035d565b6000805460ff1916600117905580156107fb576000805461ff0019166101001790555b60c96108078382611087565b50610810610aab565b80156105bc576000805461ff0019169055604051600181527f7f26b83ff96e1f2b6a682f133852f6798a09c465da95921460cefb38474024989060200160405180910390a15050565b6104516109f2565b7f4910fdfa16fed3260ed0e7147f7cc6da11a60208b5b9406d12a635614ffd91435460ff16156108995761089483610b1e565b505050565b826001600160a01b03166352d1902d6040518163ffffffff1660e01b8152600401602060405180830381865afa9250505080156108f3575060408051601f3d908101601f191682019092526108f09181019061117f565b60015b6109655760405162461bcd60e51b815260206004820152602e60248201527f45524331393637557067726164653a206e657720696d706c656d656e7461746960448201527f6f6e206973206e6f742055555053000000000000000000000000000000000000606482015260840161035d565b7f360894a13ba1a3210667c828492db98dca3e2076cc3735a920a3ca505d382bbc81146109e65760405162461bcd60e51b815260206004820152602960248201527f45524331393637557067726164653a20756e737570706f727465642070726f786044820152681a58589b195555525160ba1b606482015260840161035d565b50610894838383610bd9565b6033546001600160a01b031633146106a35760405162461bcd60e51b815260206004820181905260248201527f4f776e61626c653a2063616c6c6572206973206e6f7420746865206f776e6572604482015260640161035d565b603380546001600160a01b0383811673ffffffffffffffffffffffffffffffffffffffff19831681179093556040519116919082907f8be0079c531659141344cd1fd0a4f28419497f9722a3daafe3b4186f6b6457e090600090a35050565b600054610100900460ff16610b165760405162461bcd60e51b815260206004820152602b60248201527f496e697469616c697a61626c653a20636f6e7472616374206973206e6f74206960448201526a6e697469616c697a696e6760a81b606482015260840161035d565b6106a3610c04565b6001600160a01b0381163b610b8b5760405162461bcd60e51b815260206004820152602d60248201527f455243313936373a206e657720696d706c656d656e746174696f6e206973206e60448201526c1bdd08184818dbdb9d1c9858dd609a1b606482015260840161035d565b7f360894a13ba1a3210667c828492db98dca3e2076cc3735a920a3ca505d382bbc805473ffffffffffffffffffffffffffffffffffffffff19166001600160a01b0392909216919091179055565b610be283610c78565b600082511180610bef5750805b1561089457610bfe8383610cb8565b50505050565b600054610100900460ff16610c6f5760405162461bcd60e51b815260206004820152602b60248201527f496e697469616c697a61626c653a20636f6e7472616374206973206e6f74206960448201526a6e697469616c697a696e6760a81b606482015260840161035d565b6106a333610a4c565b610c8181610b1e565b6040516001600160a01b038216907fbc7cd75a20ee27fd9adebab32041f755214dbc6bffa90cc0225b39da2e5c2d3b90600090a250565b6060610cdd83836040518060600160405280602781526020016111b560279139610ce4565b9392505050565b6060600080856001600160a01b031685604051610d019190611198565b600060405180830381855af49150503d8060008114610d3c576040519150601f19603f3d011682016040523d82523d6000602084013e610d41565b606091505b5091509150610d5286838387610d5c565b9695505050505050565b60608315610dcb578251600003610dc4576001600160a01b0385163b610dc45760405162461bcd60e51b815260206004820152601d60248201527f416464726573733a2063616c6c20746f206e6f6e2d636f6e7472616374000000604482015260640161035d565b5081610dd5565b610dd58383610ddd565b949350505050565b815115610ded5781518083602001fd5b8060405162461bcd60e51b815260040161035d9190610e2b565b60005b83811015610e22578181015183820152602001610e0a565b50506000910152565b6020815260008251806020840152610e4a816040850160208701610e07565b601f01601f19169190910160400192915050565b80356001600160a01b0381168114610e7557600080fd5b919050565b600060208284031215610e8c57600080fd5b610cdd82610e5e565b634e487b7160e01b600052604160045260246000fd5b600067ffffffffffffffff80841115610ec657610ec6610e95565b604051601f8501601f19908116603f01168101908282118183101715610eee57610eee610e95565b81604052809350858152868686011115610f0757600080fd5b858560208301376000602087830101525050509392505050565b60008060408385031215610f3457600080fd5b610f3d83610e5e565b9150602083013567ffffffffffffffff811115610f5957600080fd5b8301601f81018513610f6a57600080fd5b610f7985823560208401610eab565b9150509250929050565b600060208284031215610f9557600080fd5b813567ffffffffffffffff811115610fac57600080fd5b8201601f81018413610fbd57600080fd5b610dd584823560208401610eab565b600181811c90821680610fe057607f821691505b60208210810361100057634e487b7160e01b600052602260045260246000fd5b50919050565b634e487b7160e01b600052601160045260246000fd5b6000600160ff1b820161103157611031611006565b506000190190565b601f82111561089457600081815260208120601f850160051c810160208610156110605750805b601f850160051c820191505b8181101561107f5782815560010161106c565b505050505050565b815167ffffffffffffffff8111156110a1576110a1610e95565b6110b5816110af8454610fcc565b84611039565b602080601f8311600181146110ea57600084156110d25750858301515b600019600386901b1c1916600185901b17855561107f565b600085815260208120601f198616915b82811015611119578886015182559484019460019091019084016110fa565b50858210156111375787850151600019600388901b60f8161c191681555b5050505050600190811b01905550565b60007f7fffffffffffffffffffffffffffffffffffffffffffffffffffffffffffffff820361117857611178611006565b5060010190565b60006020828403121561119157600080fd5b5051919050565b600082516111aa818460208701610e07565b919091019291505056fe416464726573733a206c6f772d6c6576656c2064656c65676174652063616c6c206661696c6564a2646970667358221220d320513ab679d8c22dcaab9cde1bc4d00aa726c829dc308e849e446a724ee35064736f6c63430008130033",
  "linkReferences": {},
  "deployedLinkReferences": {}
}