{
  "_format": "hh-sol-artifact-1",
  "contractName": "TokenCreateContract",
  "sourceName": "contracts/hts-precompile/examples/token-create/TokenCreateContract.sol",
  "abi": [
    {
      "anonymous": false,
      "inputs": [
        {
          "indexed": false,
          "internalType": "bool",
          "name": "",
          "type": "bool"
        },
        {
          "indexed": false,
          "internalType": "bytes",
          "name": "",
          "type": "bytes"
        }
      ],
      "name": "CallResponseEvent",
      "type": "event"
    },
    {
      "anonymous": false,
      "inputs": [
        {
          "indexed": false,
          "internalType": "address",
          "name": "tokenAddress",
          "type": "address"
        }
      ],
      "name": "CreatedToken",
      "type": "event"
    },
    {
      "anonymous": false,
      "inputs": [
        {
          "indexed": false,
          "internalType": "bool",
          "name": "kycGranted",
          "type": "bool"
        }
      ],
      "name": "KycGranted",
      "type": "event"
    },
    {
      "anonymous": false,
      "inputs": [
        {
          "indexed": false,
          "internalType": "int64",
          "name": "newTotalSupply",
          "type": "int64"
        },
        {
          "indexed": false,
          "internalType": "int64[]",
          "name": "serialNumbers",
          "type": "int64[]"
        }
      ],
      "name": "MintedToken",
      "type": "event"
    },
    {
      "anonymous": false,
      "inputs": [
        {
          "indexed": false,
          "internalType": "int256",
          "name": "responseCode",
          "type": "int256"
        }
      ],
      "name": "ResponseCode",
      "type": "event"
    },
    {
      "inputs": [
        {
          "internalType": "address",
          "name": "token",
          "type": "address"
        },
        {
          "internalType": "address",
          "name": "spender",
          "type": "address"
        },
        {
          "internalType": "uint256",
          "name": "amount",
          "type": "uint256"
        }
      ],
      "name": "approvePublic",
      "outputs": [
        {
          "internalType": "int256",
          "name": "responseCode",
          "type": "int256"
        }
      ],
      "stateMutability": "nonpayable",
      "type": "function"
    },
    {
      "inputs": [
        {
          "internalType": "address",
          "name": "account",
          "type": "address"
        },
        {
          "internalType": "address",
          "name": "token",
          "type": "address"
        }
      ],
      "name": "associateTokenPublic",
      "outputs": [
        {
          "internalType": "int256",
          "name": "responseCode",
          "type": "int256"
        }
      ],
      "stateMutability": "nonpayable",
      "type": "function"
    },
    {
      "inputs": [
        {
          "internalType": "address",
          "name": "account",
          "type": "address"
        },
        {
          "internalType": "address[]",
          "name": "tokens",
          "type": "address[]"
        }
      ],
      "name": "associateTokensPublic",
      "outputs": [
        {
          "internalType": "int256",
          "name": "responseCode",
          "type": "int256"
        }
      ],
      "stateMutability": "nonpayable",
      "type": "function"
    },
    {
      "inputs": [
        {
          "internalType": "address",
          "name": "treasury",
          "type": "address"
        }
      ],
      "name": "createFungibleTokenPublic",
      "outputs": [],
      "stateMutability": "payable",
      "type": "function"
    },
    {
      "inputs": [
        {
          "internalType": "address",
          "name": "treasury",
          "type": "address"
        },
        {
          "internalType": "address",
          "name": "fixedFeeTokenAddress",
          "type": "address"
        }
      ],
      "name": "createFungibleTokenWithCustomFeesPublic",
      "outputs": [],
      "stateMutability": "payable",
      "type": "function"
    },
    {
      "inputs": [
        {
          "internalType": "address",
          "name": "treasury",
          "type": "address"
        },
        {
          "internalType": "bytes",
          "name": "adminKey",
          "type": "bytes"
        },
        {
          "internalType": "int64",
          "name": "amount",
          "type": "int64"
        }
      ],
      "name": "createFungibleTokenWithSECP256K1AdminKeyAssociateAndTransferToAddressPublic",
      "outputs": [],
      "stateMutability": "payable",
      "type": "function"
    },
    {
      "inputs": [
        {
          "internalType": "address",
          "name": "treasury",
          "type": "address"
        },
        {
          "internalType": "bytes",
          "name": "adminKey",
          "type": "bytes"
        }
      ],
      "name": "createFungibleTokenWithSECP256K1AdminKeyPublic",
      "outputs": [
        {
          "internalType": "address",
          "name": "",
          "type": "address"
        }
      ],
      "stateMutability": "payable",
      "type": "function"
    },
    {
      "inputs": [
        {
          "internalType": "address",
          "name": "treasury",
          "type": "address"
        },
        {
          "internalType": "bytes",
          "name": "adminKey",
          "type": "bytes"
        }
      ],
      "name": "createFungibleTokenWithSECP256K1AdminKeyWithoutKYCPublic",
      "outputs": [
        {
          "internalType": "address",
          "name": "",
          "type": "address"
        }
      ],
      "stateMutability": "payable",
      "type": "function"
    },
    {
      "inputs": [
        {
          "internalType": "address",
          "name": "treasury",
          "type": "address"
        }
      ],
      "name": "createNonFungibleTokenPublic",
      "outputs": [],
      "stateMutability": "payable",
      "type": "function"
    },
    {
      "inputs": [
        {
          "internalType": "address",
          "name": "treasury",
          "type": "address"
        },
        {
          "internalType": "address",
          "name": "fixedFeeTokenAddress",
          "type": "address"
        }
      ],
      "name": "createNonFungibleTokenWithCustomFeesPublic",
      "outputs": [],
      "stateMutability": "payable",
      "type": "function"
    },
    {
      "inputs": [
        {
          "internalType": "address",
          "name": "treasury",
          "type": "address"
        },
        {
          "internalType": "bytes",
          "name": "adminKey",
          "type": "bytes"
        }
      ],
      "name": "createNonFungibleTokenWithSECP256K1AdminKeyPublic",
      "outputs": [],
      "stateMutability": "payable",
      "type": "function"
    },
    {
      "inputs": [
        {
          "internalType": "address",
          "name": "treasury",
          "type": "address"
        },
        {
          "internalType": "bytes",
          "name": "adminKey",
          "type": "bytes"
        }
      ],
      "name": "createNonFungibleTokenWithSECP256K1AdminKeyWithoutKYCPublic",
      "outputs": [],
      "stateMutability": "payable",
      "type": "function"
    },
    {
      "inputs": [
        {
          "internalType": "address",
          "name": "token",
          "type": "address"
        },
        {
          "internalType": "address",
          "name": "account",
          "type": "address"
        }
      ],
      "name": "grantTokenKycPublic",
      "outputs": [
        {
          "internalType": "int64",
          "name": "responseCode",
          "type": "int64"
        }
      ],
      "stateMutability": "nonpayable",
      "type": "function"
    },
    {
      "inputs": [
        {
          "internalType": "address",
          "name": "token",
          "type": "address"
        },
        {
          "internalType": "int64",
          "name": "amount",
          "type": "int64"
        },
        {
          "internalType": "bytes[]",
          "name": "metadata",
          "type": "bytes[]"
        }
      ],
      "name": "mintTokenPublic",
      "outputs": [
        {
          "internalType": "int256",
          "name": "responseCode",
          "type": "int256"
        },
        {
          "internalType": "int64",
          "name": "newTotalSupply",
          "type": "int64"
        },
        {
          "internalType": "int64[]",
          "name": "serialNumbers",
          "type": "int64[]"
        }
      ],
      "stateMutability": "nonpayable",
      "type": "function"
    },
    {
      "inputs": [
        {
          "internalType": "address",
          "name": "token",
          "type": "address"
        },
        {
          "internalType": "int64",
          "name": "amount",
          "type": "int64"
        },
        {
          "internalType": "bytes[]",
          "name": "metadata",
          "type": "bytes[]"
        }
      ],
      "name": "mintTokenToAddressPublic",
      "outputs": [
        {
          "internalType": "int256",
          "name": "responseCode",
          "type": "int256"
        },
        {
          "internalType": "int64",
          "name": "newTotalSupply",
          "type": "int64"
        },
        {
          "internalType": "int64[]",
          "name": "serialNumbers",
          "type": "int64[]"
        }
      ],
      "stateMutability": "nonpayable",
      "type": "function"
    },
    {
      "inputs": [
        {
          "internalType": "address",
          "name": "token",
          "type": "address"
        },
        {
          "internalType": "bytes",
          "name": "encodedFunctionSelector",
          "type": "bytes"
        }
      ],
      "name": "redirectForToken",
      "outputs": [],
      "stateMutability": "nonpayable",
      "type": "function"
    },
    {
      "inputs": [
        {
          "internalType": "address",
          "name": "token",
          "type": "address"
        },
        {
          "internalType": "address",
          "name": "from",
          "type": "address"
        },
        {
          "internalType": "address",
          "name": "to",
          "type": "address"
        },
        {
          "internalType": "uint256",
          "name": "amount",
          "type": "uint256"
        }
      ],
      "name": "transferFrom",
      "outputs": [
        {
          "internalType": "int64",
          "name": "responseCode",
          "type": "int64"
        }
      ],
      "stateMutability": "nonpayable",
      "type": "function"
    },
    {
      "inputs": [
        {
          "internalType": "address",
          "name": "token",
          "type": "address"
        },
        {
          "internalType": "address",
          "name": "from",
          "type": "address"
        },
        {
          "internalType": "address",
          "name": "to",
          "type": "address"
        },
        {
          "internalType": "uint256",
          "name": "serialNumber",
          "type": "uint256"
        }
      ],
      "name": "transferFromNFT",
      "outputs": [
        {
          "internalType": "int64",
          "name": "responseCode",
          "type": "int64"
        }
      ],
      "stateMutability": "nonpayable",
      "type": "function"
    },
    {
      "inputs": [
        {
          "internalType": "address",
          "name": "token",
          "type": "address"
        },
        {
          "components": [
            {
              "internalType": "string",
              "name": "name",
              "type": "string"
            },
            {
              "internalType": "string",
              "name": "symbol",
              "type": "string"
            },
            {
              "internalType": "address",
              "name": "treasury",
              "type": "address"
            },
            {
              "internalType": "string",
              "name": "memo",
              "type": "string"
            },
            {
              "internalType": "bool",
              "name": "tokenSupplyType",
              "type": "bool"
            },
            {
              "internalType": "int64",
              "name": "maxSupply",
              "type": "int64"
            },
            {
              "internalType": "bool",
              "name": "freezeDefault",
              "type": "bool"
            },
            {
              "components": [
                {
                  "internalType": "uint256",
                  "name": "keyType",
                  "type": "uint256"
                },
                {
                  "components": [
                    {
                      "internalType": "bool",
                      "name": "inheritAccountKey",
                      "type": "bool"
                    },
                    {
                      "internalType": "address",
                      "name": "contractId",
                      "type": "address"
                    },
                    {
                      "internalType": "bytes",
                      "name": "ed25519",
                      "type": "bytes"
                    },
                    {
                      "internalType": "bytes",
                      "name": "ECDSA_secp256k1",
                      "type": "bytes"
                    },
                    {
                      "internalType": "address",
                      "name": "delegatableContractId",
                      "type": "address"
                    }
                  ],
                  "internalType": "struct IHederaTokenService.KeyValue",
                  "name": "key",
                  "type": "tuple"
                }
              ],
              "internalType": "struct IHederaTokenService.TokenKey[]",
              "name": "tokenKeys",
              "type": "tuple[]"
            },
            {
              "components": [
                {
                  "internalType": "int64",
                  "name": "second",
                  "type": "int64"
                },
                {
                  "internalType": "address",
                  "name": "autoRenewAccount",
                  "type": "address"
                },
                {
                  "internalType": "int64",
                  "name": "autoRenewPeriod",
                  "type": "int64"
                }
              ],
              "internalType": "struct IHederaTokenService.Expiry",
              "name": "expiry",
              "type": "tuple"
            }
          ],
          "internalType": "struct IHederaTokenService.HederaToken",
          "name": "tokenInfo",
          "type": "tuple"
        }
      ],
      "name": "updateTokenInfoPublic",
      "outputs": [
        {
          "internalType": "int256",
          "name": "responseCode",
          "type": "int256"
        }
      ],
      "stateMutability": "nonpayable",
      "type": "function"
    }
  ],
  "bytecode": "0x60c06040526009608090815268746f6b656e4e616d6560b81b60a0526002906200002a90826200026a565b5060408051808201909152600b81526a1d1bdad95b94de5b589bdb60aa1b60208201526003906200005c90826200026a565b50604080518082019091526004808252636d656d6f60e01b6020830152906200008690826200026a565b50600580546001600160a81b031916700800000000000003e800000000000003e8179055348015620000b757600080fd5b50600160208181527fa6eef7e35abe7026729641147f7915573c7e97b47efa546f5f6e3230263bcb499190915560027fcc69885fda6bcc1a4ace058b4a62bf5e179ea78fd58a1ccd71c22cc9b688792f5560047fd9d16d34ffb15ba3a3d852f0d403e2ce1d691fb54de27ac87cd2f993f3ec330f5560087f7dfe757ecd65cbd7922a9c0161e935dd7fdbcc0e999689c7d31633896b1fc60b5560107fedc95719e9a3b28dd8e80877cb5880a9be7de1a13fc8b05e7999683b6b567643557fe2689cd4a84e23ad2f564004f1c9013e9589d260bde6380aba3ca7e09e4df40c55600660005260407f8f331abe73332f95a25873e8b430885974c0409691f89d643119a11623a7924a5562000336565b634e487b7160e01b600052604160045260246000fd5b600181811c90821680620001f057607f821691505b6020821081036200021157634e487b7160e01b600052602260045260246000fd5b50919050565b601f8211156200026557600081815260208120601f850160051c81016020861015620002405750805b601f850160051c820191505b8181101562000261578281556001016200024c565b5050505b505050565b81516001600160401b03811115620002865762000286620001c5565b6200029e81620002978454620001db565b8462000217565b602080601f831160018114620002d65760008415620002bd5750858301515b600019600386901b1c1916600185901b17855562000261565b600085815260208120601f198616915b828110156200030757888601518255948401946001909101908401620002e6565b5085821015620003265787850151600019600388901b60f8161c191681555b5050505050600190811b01905550565b613e1f80620003466000396000f3fe6080604052600436106101145760003560e01c80638ba74da0116100a0578063d85f74c111610064578063d85f74c1146102cd578063de84a779146102e0578063e9f7322614610300578063f4a01e5b14610313578063f848fec41461033357600080fd5b80638ba74da0146102495780638f74a17b1461025c5780639b23d3d914610287578063b35d417a146102a7578063cc265af4146102ba57600080fd5b806336348de3116100e757806336348de3146101b45780634b5c6687146101d45780634d1769d6146101e7578063618dc65e1461021657806371de37071461023657600080fd5b80630488c939146101195780630fd2601e1461012e578063118741e71461016657806315dacbea14610194575b600080fd5b61012c610127366004612e33565b610353565b005b34801561013a57600080fd5b5061014e610149366004612e33565b6108c6565b60405160079190910b81526020015b60405180910390f35b34801561017257600080fd5b50610186610181366004612f47565b610923565b60405190815260200161015d565b3480156101a057600080fd5b5061014e6101af366004612ffb565b610977565b3480156101c057600080fd5b506101866101cf3660046132c1565b610a6b565b61012c6101e2366004613409565b610a77565b3480156101f357600080fd5b50610207610202366004613426565b610e7f565b60405161015d9392919061353c565b34801561022257600080fd5b5061012c610231366004613567565b610f40565b61012c6102443660046135b7565b61102e565b61012c610257366004612e33565b611193565b61026f61026a366004613567565b6115ff565b6040516001600160a01b03909116815260200161015d565b34801561029357600080fd5b5061014e6102a2366004612ffb565b6119c1565b61012c6102b5366004613567565b611a06565b61012c6102c8366004613567565b611dac565b61012c6102db366004613409565b611e83565b3480156102ec57600080fd5b506102076102fb366004613426565b61221e565b61026f61030e366004613567565b6122b8565b34801561031f57600080fd5b5061018661032e366004612e33565b612392565b34801561033f57600080fd5b5061018661034e36600461361b565b61239e565b60408051600580825260c08201909252600091816020015b610373612dae565b81526020019060019003908161036b5790505090506103a6600060066000604051806020016040528060008152506123fa565b816000815181106103b9576103b961365c565b60200260200101819052506103e06001600060405180602001604052806000815250612431565b816001815181106103f3576103f361365c565b602002602001018190525061041a6002600060405180602001604052806000815250612431565b8160028151811061042d5761042d61365c565b60200260200101819052506104546004600060405180602001604052806000815250612431565b816003815181106104675761046761365c565b602002602001018190525061048e6003600060405180602001604052806000815250612431565b816004815181106104a1576104a161365c565b602002602001018190525060006040518060600160405280600060070b8152602001856001600160a01b03168152602001627a120060070b81525090506000604051806101200160405280600280546104f990613672565b80601f016020809104026020016040519081016040528092919081815260200182805461052590613672565b80156105725780601f1061054757610100808354040283529160200191610572565b820191906000526020600020905b81548152906001019060200180831161055557829003601f168201915b505050505081526020016003805461058990613672565b80601f01602080910402602001604051908101604052809291908181526020018280546105b590613672565b80156106025780601f106105d757610100808354040283529160200191610602565b820191906000526020600020905b8154815290600101906020018083116105e557829003601f168201915b50505050508152602001866001600160a01b031681526020016004805461062890613672565b80601f016020809104026020016040519081016040528092919081815260200182805461065490613672565b80156106a15780601f10610676576101008083540402835291602001916106a1565b820191906000526020600020905b81548152906001019060200180831161068457829003601f168201915b5050509183525050600160208201819052600554600160401b810460070b6040840152600160a01b900460ff16151560608301526080820186905260a090910184905290915060009060405190808252806020026020018201604052801561074357816020015b6040805160a0810182526000808252602080830182905292820181905260608201819052608082015282526000199092019101816107085790505b506040805160a081018252600181526001600160a01b0380891660208301526000928201839052606082018390528916608082015282519293509183919061078d5761078d61365c565b6020908102919091010152604080516001808252818301909252600091816020015b6040805160c08101825260008082526020808301829052928201819052606082018190526080820181905260a082015282526000199092019101816107af5790505090506040518060c00160405280600460070b8152602001600560070b8152602001600a60070b8152602001876001600160a01b03168152602001600015158152602001886001600160a01b0316815250816000815181106108545761085461365c565b602002602001018190525060008061086d858585612466565b90925090506016821461087f57600080fd5b6040516001600160a01b03821681527f7bb17726df1f3adee8aa00ba8e8bc5d6f182af3bbf77604639cb7f008dd3b4ed9060200160405180910390a1505050505050505050565b60006108d2838361258e565b604051600782900b81529091507f90a5cf4cffe88b4edbb041cfc7a8a812c48a5ec30b84640fb37690875168e3aa9060200160405180910390a1600781900b60161461091d57600080fd5b92915050565b600061092f8383612671565b90507f90a5cf4cffe88b4edbb041cfc7a8a812c48a5ec30b84640fb37690875168e3aa8160405161096291815260200190565b60405180910390a16016811461091d57600080fd5b6040516001600160a01b038581166024830152848116604483015283166064820152608481018290526000908190819061016790630aed65f560e11b9060a4015b60408051601f198184030181529181526020820180516001600160e01b03166001600160e01b03199094169390931790925290516109f691906136d0565b6000604051808303816000865af19150503d8060008114610a33576040519150601f19603f3d011682016040523d82523d6000602084013e610a38565b606091505b509150915081610a49576015610a5d565b80806020019051810190610a5d91906136fe565b60030b979650505050505050565b600061092f838361269d565b60408051600580825260c08201909252600091816020015b610a97612dae565b815260200190600190039081610a8f579050509050610aca600060066000604051806020016040528060008152506123fa565b81600081518110610add57610add61365c565b6020026020010181905250610b046001600060405180602001604052806000815250612431565b81600181518110610b1757610b1761365c565b6020026020010181905250610b3e6002600060405180602001604052806000815250612431565b81600281518110610b5157610b5161365c565b6020026020010181905250610b786003600060405180602001604052806000815250612431565b81600381518110610b8b57610b8b61365c565b6020026020010181905250610bb26004600060405180602001604052806000815250612431565b81600481518110610bc557610bc561365c565b602002602001018190525060006040518060600160405280600060070b8152602001846001600160a01b03168152602001627a120060070b8152509050600060405180610120016040528060028054610c1d90613672565b80601f0160208091040260200160405190810160405280929190818152602001828054610c4990613672565b8015610c965780601f10610c6b57610100808354040283529160200191610c96565b820191906000526020600020905b815481529060010190602001808311610c7957829003601f168201915b5050505050815260200160038054610cad90613672565b80601f0160208091040260200160405190810160405280929190818152602001828054610cd990613672565b8015610d265780601f10610cfb57610100808354040283529160200191610d26565b820191906000526020600020905b815481529060010190602001808311610d0957829003601f168201915b50505050508152602001856001600160a01b0316815260200160048054610d4c90613672565b80601f0160208091040260200160405190810160405280929190818152602001828054610d7890613672565b8015610dc55780601f10610d9a57610100808354040283529160200191610dc5565b820191906000526020600020905b815481529060010190602001808311610da857829003601f168201915b505050918352505060016020820152600554600160401b8104600790810b604084015260ff600160a01b830416151560608401526080830187905260a09092018590529192506000918291610e2991859181900b90600160801b900460030b6126c9565b909250905060168214610e3b57600080fd5b6040516001600160a01b03821681527f7bb17726df1f3adee8aa00ba8e8bc5d6f182af3bbf77604639cb7f008dd3b4ed9060200160405180910390a1505050505050565b6000806060610e8f868686612736565b60405183815292955090935091507f90a5cf4cffe88b4edbb041cfc7a8a812c48a5ec30b84640fb37690875168e3aa9060200160405180910390a160168314610ed757600080fd5b7ffc6b20023c4bac8ff1c48c1693e0cea5cd3c2163e9c2da41c58f17dd6d9f163d8282604051610f08929190613719565b60405180910390a1610f3686303384600081518110610f2957610f2961365c565b6020026020010151612834565b5093509350939050565b6000806101676001600160a01b031663618dc65e60e01b8585604051602401610f6a929190613769565b60408051601f198184030181529181526020820180516001600160e01b03166001600160e01b0319909416939093179092529051610fa891906136d0565b6000604051808303816000865af19150503d8060008114610fe5576040519150601f19603f3d011682016040523d82523d6000602084013e610fea565b606091505b50915091507f4af4780e06fe8cb9df64b0794fa6f01399af979175bb988e35e0e57e594567bc828260405161102092919061378b565b60405180910390a150505050565b604051638f74a17b60e01b81526000903090638f74a17b9034906110589088908890600401613769565b60206040518083038185885af1158015611076573d6000803e3d6000fd5b50505050506040513d601f19601f8201168201806040525081019061109b91906137a6565b60405163f4a01e5b60e01b81523360048201526001600160a01b0382166024820152909150309063f4a01e5b906044016020604051808303816000875af11580156110ea573d6000803e3d6000fd5b505050506040513d601f19601f8201168201806040525081019061110e91906137c3565b506040516307e9300f60e11b81526001600160a01b03821660048201523360248201523090630fd2601e906044016020604051808303816000875af115801561115b573d6000803e3d6000fd5b505050506040513d601f19601f8201168201806040525081019061117f91906137dc565b5061118c8130338561287c565b5050505050565b604080516001808252818301909252600091816020015b6111b2612dae565b8152602001906001900390816111aa5790505090506111e46000806000604051806020016040528060008152506123fa565b816000815181106111f7576111f761365c565b602002602001018190525060006040518060600160405280600060070b8152602001856001600160a01b03168152602001627a120060070b815250905060006040518061012001604052806002805461124f90613672565b80601f016020809104026020016040519081016040528092919081815260200182805461127b90613672565b80156112c85780601f1061129d576101008083540402835291602001916112c8565b820191906000526020600020905b8154815290600101906020018083116112ab57829003601f168201915b50505050508152602001600380546112df90613672565b80601f016020809104026020016040519081016040528092919081815260200182805461130b90613672565b80156113585780601f1061132d57610100808354040283529160200191611358565b820191906000526020600020905b81548152906001019060200180831161133b57829003601f168201915b50505050508152602001866001600160a01b031681526020016004805461137e90613672565b80601f01602080910402602001604051908101604052809291908181526020018280546113aa90613672565b80156113f75780601f106113cc576101008083540402835291602001916113f7565b820191906000526020600020905b8154815290600101906020018083116113da57829003601f168201915b5050509183525050600160208201819052600554600160401b900460070b6040808401919091526000606084018190526080840188905260a09093018690528051828152808201909152929350909190816020015b6040805160a08101825260008082526020808301829052928201819052606082018190526080820152825260001990920191018161144c5750506040805160a081018252600181526001600160a01b038881166020830152600092820183905260608201839052891660808201528251929350918391906114cf576114cf61365c565b6020908102919091010152604080516001808252818301909252600091816020015b6040805160c08101825260008082526020808301829052928201819052606082018190526080820181905260a082015282526000199092019101816114f15750506040805160c0810182526004815260056020820152600a91810191909152601e60608201526000608082018190526001600160a01b038a1660a0830152825192935090918391906115855761158561365c565b602090810291909101015260055460009081906115b5908690600781900b90600160801b900460030b87876128c4565b915091507f90a5cf4cffe88b4edbb041cfc7a8a812c48a5ec30b84640fb37690875168e3aa826040516115ea91815260200190565b60405180910390a16016821461087f57600080fd5b60408051600580825260c08201909252600091829190816020015b611622612dae565b81526020019060019003908161161a579050509050611646600060066003866123fa565b816000815181106116595761165961365c565b60200260200101819052506116716001600385612431565b816001815181106116845761168461365c565b602002602001018190525061169c6002600385612431565b816002815181106116af576116af61365c565b60200260200101819052506116c76004600385612431565b816003815181106116da576116da61365c565b60200260200101819052506116f160038085612431565b816004815181106117045761170461365c565b602002602001018190525060006040518060600160405280600060070b8152602001866001600160a01b03168152602001627a120060070b815250905060006040518061012001604052806002805461175c90613672565b80601f016020809104026020016040519081016040528092919081815260200182805461178890613672565b80156117d55780601f106117aa576101008083540402835291602001916117d5565b820191906000526020600020905b8154815290600101906020018083116117b857829003601f168201915b50505050508152602001600380546117ec90613672565b80601f016020809104026020016040519081016040528092919081815260200182805461181890613672565b80156118655780601f1061183a57610100808354040283529160200191611865565b820191906000526020600020905b81548152906001019060200180831161184857829003601f168201915b50505050508152602001876001600160a01b031681526020016004805461188b90613672565b80601f01602080910402602001604051908101604052809291908181526020018280546118b790613672565b80156119045780601f106118d957610100808354040283529160200191611904565b820191906000526020600020905b8154815290600101906020018083116118e757829003601f168201915b505050918352505060016020820152600554600160401b8104600790810b604084015260ff600160a01b830416151560608401526080830187905260a0909201859052919250600091829161196891859181900b90600160801b900460030b6126c9565b90925090506016821461197a57600080fd5b6040516001600160a01b03821681527f7bb17726df1f3adee8aa00ba8e8bc5d6f182af3bbf77604639cb7f008dd3b4ed9060200160405180910390a1979650505050505050565b6040516001600160a01b038581166024830152848116604483015283166064820152608481018290526000908190819061016790639b23d3d960e01b9060a4016109b8565b60408051600580825260c08201909252600091816020015b611a26612dae565b815260200190600190039081611a1e579050509050611a4a600060066003856123fa565b81600081518110611a5d57611a5d61365c565b6020026020010181905250611a756001600384612431565b81600181518110611a8857611a8861365c565b6020026020010181905250611aa06002600384612431565b81600281518110611ab357611ab361365c565b6020026020010181905250611acb6004600384612431565b81600381518110611ade57611ade61365c565b6020026020010181905250611af560038084612431565b81600481518110611b0857611b0861365c565b602002602001018190525060006040518060600160405280600060070b8152602001856001600160a01b03168152602001627a120060070b8152509050600060405180610120016040528060028054611b6090613672565b80601f0160208091040260200160405190810160405280929190818152602001828054611b8c90613672565b8015611bd95780601f10611bae57610100808354040283529160200191611bd9565b820191906000526020600020905b815481529060010190602001808311611bbc57829003601f168201915b5050505050815260200160038054611bf090613672565b80601f0160208091040260200160405190810160405280929190818152602001828054611c1c90613672565b8015611c695780601f10611c3e57610100808354040283529160200191611c69565b820191906000526020600020905b815481529060010190602001808311611c4c57829003601f168201915b50505050508152602001866001600160a01b0316815260200160048054611c8f90613672565b80601f0160208091040260200160405190810160405280929190818152602001828054611cbb90613672565b8015611d085780601f10611cdd57610100808354040283529160200191611d08565b820191906000526020600020905b815481529060010190602001808311611ceb57829003601f168201915b505050918352505060016020820152600554600160401b810460070b6040830152600160a01b900460ff16151560608201526080810185905260a0018390529050600080611d55836129f2565b909250905060168214611d6757600080fd5b6040516001600160a01b03821681527f7bb17726df1f3adee8aa00ba8e8bc5d6f182af3bbf77604639cb7f008dd3b4ed9060200160405180910390a150505050505050565b60408051600480825260a08201909252600091816020015b611dcc612dae565b815260200190600190039081611dc4579050509050611df0600060066003856123fa565b81600081518110611e0357611e0361365c565b6020026020010181905250611e1b6002600384612431565b81600181518110611e2e57611e2e61365c565b6020026020010181905250611e466004600384612431565b81600281518110611e5957611e5961365c565b6020026020010181905250611e7060038084612431565b81600381518110611b0857611b0861365c565b60408051600580825260c08201909252600091816020015b611ea3612dae565b815260200190600190039081611e9b579050509050611ed6600060066000604051806020016040528060008152506123fa565b81600081518110611ee957611ee961365c565b6020026020010181905250611f106001600060405180602001604052806000815250612431565b81600181518110611f2357611f2361365c565b6020026020010181905250611f4a6002600060405180602001604052806000815250612431565b81600281518110611f5d57611f5d61365c565b6020026020010181905250611f846004600060405180602001604052806000815250612431565b81600381518110611f9757611f9761365c565b6020026020010181905250611fbe6003600060405180602001604052806000815250612431565b81600481518110611fd157611fd161365c565b602002602001018190525060006040518060600160405280600060070b8152602001846001600160a01b03168152602001627a120060070b815250905060006040518061012001604052806002805461202990613672565b80601f016020809104026020016040519081016040528092919081815260200182805461205590613672565b80156120a25780601f10612077576101008083540402835291602001916120a2565b820191906000526020600020905b81548152906001019060200180831161208557829003601f168201915b50505050508152602001600380546120b990613672565b80601f01602080910402602001604051908101604052809291908181526020018280546120e590613672565b80156121325780601f1061210757610100808354040283529160200191612132565b820191906000526020600020905b81548152906001019060200180831161211557829003601f168201915b50505050508152602001856001600160a01b031681526020016004805461215890613672565b80601f016020809104026020016040519081016040528092919081815260200182805461218490613672565b80156121d15780601f106121a6576101008083540402835291602001916121d1565b820191906000526020600020905b8154815290600101906020018083116121b457829003601f168201915b505050918352505060016020820152600554600160401b810460070b6040830152600160a01b900460ff16151560608201526080810185905260a0018390529050600080610e29836129f2565b600080606061222e868686612736565b60405183815292955090935091507f90a5cf4cffe88b4edbb041cfc7a8a812c48a5ec30b84640fb37690875168e3aa9060200160405180910390a16016831461227657600080fd5b7ffc6b20023c4bac8ff1c48c1693e0cea5cd3c2163e9c2da41c58f17dd6d9f163d82826040516122a7929190613719565b60405180910390a193509350939050565b60408051600480825260a08201909252600091829190816020015b6122db612dae565b8152602001906001900390816122d35790505090506122ff600060066003866123fa565b816000815181106123125761231261365c565b602002602001018190525061232a6002600385612431565b8160018151811061233d5761233d61365c565b60200260200101819052506123556004600385612431565b816002815181106123685761236861365c565b602002602001018190525061237f60038085612431565b816003815181106117045761170461365c565b600061092f8383612b14565b60006123ab848484612b4a565b90507f90a5cf4cffe88b4edbb041cfc7a8a812c48a5ec30b84640fb37690875168e3aa816040516123de91815260200190565b60405180910390a1601681146123f357600080fd5b9392505050565b612402612dae565b60405180604001604052806124178787612c23565b81526020016124268585612c5e565b905295945050505050565b612439612dae565b604051806040016040528061244d86612d6f565b815260200161245c8585612c5e565b9052949350505050565b600080848061010001516000015160070b600014801561249057506101008101516040015160070b155b156124a6576101008101516276a7006040909101525b6000806101676001600160a01b03163463abb54eb560e01b8a8a8a6040516024016124d393929190613a2c565b60408051601f198184030181529181526020820180516001600160e01b03166001600160e01b031990941693909317909252905161251191906136d0565b60006040518083038185875af1925050503d806000811461254e576040519150601f19603f3d011682016040523d82523d6000602084013e612553565b606091505b509150915081612566576015600061257a565b8080602001905181019061257a9190613ae3565b60039190910b999098509650505050505050565b6040516001600160a01b038381166024830152821660448201526000908190819061016790638f8d7f9960e01b906064015b60408051601f198184030181529181526020820180516001600160e01b03166001600160e01b03199094169390931790925290516125fe91906136d0565b6000604051808303816000865af19150503d806000811461263b576040519150601f19603f3d011682016040523d82523d6000602084013e612640565b606091505b509150915081612651576015612665565b8080602001905181019061266591906136fe565b60030b95945050505050565b60008060006101676001600160a01b0316632e63879b60e01b86866040516024016125c0929190613b0f565b60008060006101676001600160a01b0316637d305cfa60e01b86866040516024016125c0929190613b6a565b600080848061010001516000015160070b60001480156126f357506101008101516040015160070b155b15612709576101008101516276a7006040909101525b6000806101676001600160a01b031634630fb65bf360e01b8a8a8a6040516024016124d393929190613b8c565b60008060606000806101676001600160a01b031663e0f4059a60e01b89898960405160240161276793929190613bbb565b60408051601f198184030181529181526020820180516001600160e01b03166001600160e01b03199094169390931790925290516127a591906136d0565b6000604051808303816000865af19150503d80600081146127e2576040519150601f19603f3d011682016040523d82523d6000602084013e6127e7565b606091505b50915091508161280a57604080516000808252602082019092526015919061281e565b8080602001905181019061281e9190613c38565b60039290920b9a90995090975095505050505050565b6040516001600160a01b038581166024830152848116604483015283166064820152600782900b60848201526000908190819061016790635cfc901160e01b9060a4016109b8565b6040516001600160a01b038581166024830152848116604483015283166064820152600782900b6084820152600090819081906101679063eca3691760e01b9060a4016109b8565b600080868061010001516000015160070b60001480156128ee57506101008101516040015160070b155b15612904576101008101516276a7006040909101525b6000806101676001600160a01b031634632af0c59a60e01b8c8c8c8c8c604051602401612935959493929190613cf8565b60408051601f198184030181529181526020820180516001600160e01b03166001600160e01b031990941693909317909252905161297391906136d0565b60006040518083038185875af1925050503d80600081146129b0576040519150601f19603f3d011682016040523d82523d6000602084013e6129b5565b606091505b5091509150816129c857601560006129dc565b808060200190518101906129dc9190613ae3565b60039190910b9b909a5098505050505050505050565b600080828061010001516000015160070b6000148015612a1c57506101008101516040015160070b155b15612a32576101008101516276a7006040909101525b6000806101676001600160a01b03163463ea83f29360e01b88604051602401612a5b9190613dc0565b60408051601f198184030181529181526020820180516001600160e01b03166001600160e01b0319909416939093179092529051612a9991906136d0565b60006040518083038185875af1925050503d8060008114612ad6576040519150601f19603f3d011682016040523d82523d6000602084013e612adb565b606091505b509150915081612aee5760156000612b02565b80806020019051810190612b029190613ae3565b60039190910b97909650945050505050565b6040516001600160a01b03838116602483015282166044820152600090819081906101679063248a35ef60e11b906064016125c0565b604080516001600160a01b03858116602483015284166044820152606480820184905282518083039091018152608490910182526020810180516001600160e01b031663e1f21c6760e01b17905290516000918291829161016791612baf91906136d0565b6000604051808303816000865af19150503d8060008114612bec576040519150601f19603f3d011682016040523d82523d6000602084013e612bf1565b606091505b509150915081612c02576015612c16565b80806020019051810190612c1691906136fe565b60030b9695505050505050565b6000612c47836006811115612c3a57612c3a613dd3565b600160ff9091161b821790565b90506123f3826006811115612c3a57612c3a613dd3565b612ca46040518060a0016040528060001515815260200160006001600160a01b03168152602001606081526020016060815260200160006001600160a01b031681525090565b6000836004811115612cb857612cb8613dd3565b03612cc6576001815261091d565b6001836004811115612cda57612cda613dd3565b03612cf5576000546001600160a01b0316602082015261091d565b6002836004811115612d0957612d09613dd3565b03612d1a576040810182905261091d565b6003836004811115612d2e57612d2e613dd3565b03612d3f576060810182905261091d565b6004836004811115612d5357612d53613dd3565b0361091d576000546001600160a01b0316608082015292915050565b600060016000836006811115612d8757612d87613dd3565b6006811115612d9857612d98613dd3565b8152602001908152602001600020549050919050565b604051806040016040528060008152602001612e066040518060a0016040528060001515815260200160006001600160a01b03168152602001606081526020016060815260200160006001600160a01b031681525090565b905290565b6001600160a01b0381168114612e2057600080fd5b50565b8035612e2e81612e0b565b919050565b60008060408385031215612e4657600080fd5b8235612e5181612e0b565b91506020830135612e6181612e0b565b809150509250929050565b634e487b7160e01b600052604160045260246000fd5b6040805190810167ffffffffffffffff81118282101715612ea557612ea5612e6c565b60405290565b60405160a0810167ffffffffffffffff81118282101715612ea557612ea5612e6c565b604051610120810167ffffffffffffffff81118282101715612ea557612ea5612e6c565b604051601f8201601f1916810167ffffffffffffffff81118282101715612f1b57612f1b612e6c565b604052919050565b600067ffffffffffffffff821115612f3d57612f3d612e6c565b5060051b60200190565b60008060408385031215612f5a57600080fd5b8235612f6581612e0b565b915060208381013567ffffffffffffffff811115612f8257600080fd5b8401601f81018613612f9357600080fd5b8035612fa6612fa182612f23565b612ef2565b81815260059190911b82018301908381019088831115612fc557600080fd5b928401925b82841015612fec578335612fdd81612e0b565b82529284019290840190612fca565b80955050505050509250929050565b6000806000806080858703121561301157600080fd5b843561301c81612e0b565b9350602085013561302c81612e0b565b9250604085013561303c81612e0b565b9396929550929360600135925050565b600082601f83011261305d57600080fd5b813567ffffffffffffffff81111561307757613077612e6c565b61308a601f8201601f1916602001612ef2565b81815284602083860101111561309f57600080fd5b816020850160208301376000918101602001919091529392505050565b80358015158114612e2e57600080fd5b8060070b8114612e2057600080fd5b8035612e2e816130cc565b600082601f8301126130f757600080fd5b81356020613107612fa183612f23565b82815260059290921b8401810191818101908684111561312657600080fd5b8286015b8481101561324057803567ffffffffffffffff8082111561314a57600080fd5b908801906040601f19838c03810182131561316457600080fd5b61316c612e82565b888501358152828501358481111561318357600080fd5b949094019360a0858e038301121561319b5760008081fd5b6131a3612eab565b91506131b08986016130bc565b8252828501356131bf81612e0b565b828a0152606085810135858111156131d75760008081fd5b6131e58f8c838a010161304c565b85850152506080935083860135858111156132005760008081fd5b61320e8f8c838a010161304c565b82850152505060a0850135945061322485612e0b565b918101939093528087019290925250835291830191830161312a565b509695505050505050565b60006060828403121561325d57600080fd5b6040516060810181811067ffffffffffffffff8211171561328057613280612e6c565b6040529050808235613291816130cc565b815260208301356132a181612e0b565b602082015260408301356132b4816130cc565b6040919091015292915050565b600080604083850312156132d457600080fd5b82356132df81612e0b565b9150602083013567ffffffffffffffff808211156132fc57600080fd5b90840190610160828703121561331157600080fd5b613319612ece565b82358281111561332857600080fd5b6133348882860161304c565b82525060208301358281111561334957600080fd5b6133558882860161304c565b60208301525061336760408401612e23565b604082015260608301358281111561337e57600080fd5b61338a8882860161304c565b60608301525061339c608084016130bc565b60808201526133ad60a084016130db565b60a08201526133be60c084016130bc565b60c082015260e0830135828111156133d557600080fd5b6133e1888286016130e6565b60e08301525061010091506133f88783850161324b565b828201528093505050509250929050565b60006020828403121561341b57600080fd5b81356123f381612e0b565b60008060006060848603121561343b57600080fd5b833561344681612e0b565b9250602084810135613457816130cc565b9250604085013567ffffffffffffffff8082111561347457600080fd5b818701915087601f83011261348857600080fd5b8135613496612fa182612f23565b81815260059190911b8301840190848101908a8311156134b557600080fd5b8585015b838110156134ed578035858111156134d15760008081fd5b6134df8d89838a010161304c565b8452509186019186016134b9565b508096505050505050509250925092565b600081518084526020808501945080840160005b8381101561353157815160070b87529582019590820190600101613512565b509495945050505050565b8381528260070b602082015260606040820152600061355e60608301846134fe565b95945050505050565b6000806040838503121561357a57600080fd5b823561358581612e0b565b9150602083013567ffffffffffffffff8111156135a157600080fd5b6135ad8582860161304c565b9150509250929050565b6000806000606084860312156135cc57600080fd5b83356135d781612e0b565b9250602084013567ffffffffffffffff8111156135f357600080fd5b6135ff8682870161304c565b9250506040840135613610816130cc565b809150509250925092565b60008060006060848603121561363057600080fd5b833561363b81612e0b565b9250602084013561364b81612e0b565b929592945050506040919091013590565b634e487b7160e01b600052603260045260246000fd5b600181811c9082168061368657607f821691505b6020821081036136a657634e487b7160e01b600052602260045260246000fd5b50919050565b60005b838110156136c75781810151838201526020016136af565b50506000910152565b600082516136e28184602087016136ac565b9190910192915050565b8051600381900b8114612e2e57600080fd5b60006020828403121561371057600080fd5b6123f3826136ec565b8260070b815260406020820152600061373560408301846134fe565b949350505050565b600081518084526137558160208601602086016136ac565b601f01601f19169290920160200192915050565b6001600160a01b0383168152604060208201526000613735604083018461373d565b8215158152604060208201526000613735604083018461373d565b6000602082840312156137b857600080fd5b81516123f381612e0b565b6000602082840312156137d557600080fd5b5051919050565b6000602082840312156137ee57600080fd5b81516123f3816130cc565b600081518084526020808501808196508360051b8101915082860160005b858110156138b05782840389528151604081518652868201519150808787015281511515818701528682015160606001600160a01b03808316828a015283850151935060a09250608083818b015261387260e08b018661373d565b928601518a8403603f1901858c015292945061388e858461373d565b9501511660c09890980197909752505098850198935090840190600101613817565b5091979650505050505050565b600061016082518185526138d38286018261373d565b915050602083015184820360208601526138ed828261373d565b915050604083015161390a60408601826001600160a01b03169052565b5060608301518482036060860152613922828261373d565b9150506080830151613938608086018215159052565b5060a083015161394d60a086018260070b9052565b5060c083015161396160c086018215159052565b5060e083015184820360e086015261397982826137f9565b915050610100808401516139b582870182805160070b82526001600160a01b036020820151166020830152604081015160070b60408301525050565b5090949350505050565b600081518084526020808501945080840160005b83811015613531578151805160070b8852838101516001600160a01b03908116858a01526040808301511515908a01526060808301511515908a0152608091820151169088015260a090960195908201906001016139d3565b60006060808352613a3f818401876138bd565b602084820381860152613a5282886139bf565b91506040858303818701528287518085528385019150838901945060005b81811015613ad35785518051600790810b855286820151810b8786015285820151900b85850152878101516001600160a01b039081168986015260808083015115159086015260a09182015116908401529484019460c090920191600101613a70565b50909a9950505050505050505050565b60008060408385031215613af657600080fd5b613aff836136ec565b91506020830151612e6181612e0b565b6000604082016001600160a01b0380861684526020604081860152828651808552606087019150828801945060005b81811015613b5c578551851683529483019491830191600101613b3e565b509098975050505050505050565b6001600160a01b038316815260406020820152600061373560408301846138bd565b606081526000613b9f60608301866138bd565b90508360070b60208301528260030b6040830152949350505050565b6000606082016001600160a01b038616835260208560070b818501526060604085015281855180845260808601915060808160051b870101935082870160005b82811015613c2957607f19888703018452613c1786835161373d565b95509284019290840190600101613bfb565b50939998505050505050505050565b600080600060608486031215613c4d57600080fd5b613c56846136ec565b9250602080850151613c67816130cc565b604086015190935067ffffffffffffffff811115613c8457600080fd5b8501601f81018713613c9557600080fd5b8051613ca3612fa182612f23565b81815260059190911b82018301908381019089831115613cc257600080fd5b928401925b82841015613ce9578351613cda816130cc565b82529284019290840190613cc7565b80955050505050509250925092565b600060a0808352613d0b818401896138bd565b6020600789810b8287015260408960030b81880152606087850381890152613d33858b6139bf565b94506080888603818a0152858a518088528688019150868c01975060005b81811015613dab5788518051880b845288810151880b8985015286810151880b8785015285810151880b86850152848101511515858501528a01516001600160a01b03168a8401529787019760c090920191600101613d51565b50909f9e505050505050505050505050505050565b6020815260006123f360208301846138bd565b634e487b7160e01b600052602160045260246000fdfea26469706673582212209d9eec5eca68ec06410fb02134f5f525552ba362094f4c260a8722f6db2e448864736f6c63430008130033",
  "linkReferences": {},
  "deployedLinkReferences": {}
}