{
  "_format": "hh-sol-artifact-1",
  "contractName": "TokenTransferContract",
  "sourceName": "contracts/hts-precompile/examples/token-transfer/TokenTransferContract.sol",
  "abi": [
    {
      "anonymous": false,
      "inputs": [
        {
          "indexed": false,
          "internalType": "bool",
          "name": "",
          "type": "bool"
        },
        {
          "indexed": false,
          "internalType": "bytes",
          "name": "",
          "type": "bytes"
        }
      ],
      "name": "CallResponseEvent",
      "type": "event"
    },
    {
      "anonymous": false,
      "inputs": [
        {
          "indexed": false,
          "internalType": "int256",
          "name": "responseCode",
          "type": "int256"
        }
      ],
      "name": "ResponseCode",
      "type": "event"
    },
    {
      "inputs": [
        {
          "internalType": "address",
          "name": "token",
          "type": "address"
        },
        {
          "internalType": "address",
          "name": "approved",
          "type": "address"
        },
        {
          "internalType": "uint256",
          "name": "serialNumber",
          "type": "uint256"
        }
      ],
      "name": "approveNFTPublic",
      "outputs": [
        {
          "internalType": "int256",
          "name": "responseCode",
          "type": "int256"
        }
      ],
      "stateMutability": "nonpayable",
      "type": "function"
    },
    {
      "inputs": [
        {
          "internalType": "address",
          "name": "token",
          "type": "address"
        },
        {
          "internalType": "address",
          "name": "spender",
          "type": "address"
        },
        {
          "internalType": "uint256",
          "name": "amount",
          "type": "uint256"
        }
      ],
      "name": "approvePublic",
      "outputs": [
        {
          "internalType": "int256",
          "name": "responseCode",
          "type": "int256"
        }
      ],
      "stateMutability": "nonpayable",
      "type": "function"
    },
    {
      "inputs": [
        {
          "components": [
            {
              "components": [
                {
                  "internalType": "address",
                  "name": "accountID",
                  "type": "address"
                },
                {
                  "internalType": "int64",
                  "name": "amount",
                  "type": "int64"
                },
                {
                  "internalType": "bool",
                  "name": "isApproval",
                  "type": "bool"
                }
              ],
              "internalType": "struct IHederaTokenService.AccountAmount[]",
              "name": "transfers",
              "type": "tuple[]"
            }
          ],
          "internalType": "struct IHederaTokenService.TransferList",
          "name": "transferList",
          "type": "tuple"
        },
        {
          "components": [
            {
              "internalType": "address",
              "name": "token",
              "type": "address"
            },
            {
              "components": [
                {
                  "internalType": "address",
                  "name": "accountID",
                  "type": "address"
                },
                {
                  "internalType": "int64",
                  "name": "amount",
                  "type": "int64"
                },
                {
                  "internalType": "bool",
                  "name": "isApproval",
                  "type": "bool"
                }
              ],
              "internalType": "struct IHederaTokenService.AccountAmount[]",
              "name": "transfers",
              "type": "tuple[]"
            },
            {
              "components": [
                {
                  "internalType": "address",
                  "name": "senderAccountID",
                  "type": "address"
                },
                {
                  "internalType": "address",
                  "name": "receiverAccountID",
                  "type": "address"
                },
                {
                  "internalType": "int64",
                  "name": "serialNumber",
                  "type": "int64"
                },
                {
                  "internalType": "bool",
                  "name": "isApproval",
                  "type": "bool"
                }
              ],
              "internalType": "struct IHederaTokenService.NftTransfer[]",
              "name": "nftTransfers",
              "type": "tuple[]"
            }
          ],
          "internalType": "struct IHederaTokenService.TokenTransferList[]",
          "name": "tokenTransferList",
          "type": "tuple[]"
        }
      ],
      "name": "cryptoTransferPublic",
      "outputs": [
        {
          "internalType": "int256",
          "name": "responseCode",
          "type": "int256"
        }
      ],
      "stateMutability": "nonpayable",
      "type": "function"
    },
    {
      "inputs": [
        {
          "internalType": "address",
          "name": "token",
          "type": "address"
        },
        {
          "internalType": "bytes",
          "name": "encodedFunctionSelector",
          "type": "bytes"
        }
      ],
      "name": "redirectForToken",
      "outputs": [],
      "stateMutability": "nonpayable",
      "type": "function"
    },
    {
      "inputs": [
        {
          "internalType": "address",
          "name": "token",
          "type": "address"
        },
        {
          "internalType": "address",
          "name": "operator",
          "type": "address"
        },
        {
          "internalType": "bool",
          "name": "approved",
          "type": "bool"
        }
      ],
      "name": "setApprovalForAllPublic",
      "outputs": [
        {
          "internalType": "int256",
          "name": "responseCode",
          "type": "int256"
        }
      ],
      "stateMutability": "nonpayable",
      "type": "function"
    },
    {
      "inputs": [
        {
          "internalType": "address",
          "name": "token",
          "type": "address"
        },
        {
          "internalType": "address",
          "name": "from",
          "type": "address"
        },
        {
          "internalType": "address",
          "name": "to",
          "type": "address"
        },
        {
          "internalType": "uint256",
          "name": "amount",
          "type": "uint256"
        }
      ],
      "name": "transferFrom",
      "outputs": [
        {
          "internalType": "int64",
          "name": "responseCode",
          "type": "int64"
        }
      ],
      "stateMutability": "nonpayable",
      "type": "function"
    },
    {
      "inputs": [
        {
          "internalType": "address",
          "name": "token",
          "type": "address"
        },
        {
          "internalType": "address",
          "name": "from",
          "type": "address"
        },
        {
          "internalType": "address",
          "name": "to",
          "type": "address"
        },
        {
          "internalType": "uint256",
          "name": "serialNumber",
          "type": "uint256"
        }
      ],
      "name": "transferFromNFT",
      "outputs": [
        {
          "internalType": "int64",
          "name": "responseCode",
          "type": "int64"
        }
      ],
      "stateMutability": "nonpayable",
      "type": "function"
    },
    {
      "inputs": [
        {
          "internalType": "address",
          "name": "token",
          "type": "address"
        },
        {
          "internalType": "address",
          "name": "from",
          "type": "address"
        },
        {
          "internalType": "address",
          "name": "to",
          "type": "address"
        },
        {
          "internalType": "uint256",
          "name": "serialNumber",
          "type": "uint256"
        }
      ],
      "name": "transferFromNFTPublic",
      "outputs": [
        {
          "internalType": "int64",
          "name": "responseCode",
          "type": "int64"
        }
      ],
      "stateMutability": "nonpayable",
      "type": "function"
    },
    {
      "inputs": [
        {
          "internalType": "address",
          "name": "token",
          "type": "address"
        },
        {
          "internalType": "address",
          "name": "from",
          "type": "address"
        },
        {
          "internalType": "address",
          "name": "to",
          "type": "address"
        },
        {
          "internalType": "uint256",
          "name": "amount",
          "type": "uint256"
        }
      ],
      "name": "transferFromPublic",
      "outputs": [
        {
          "internalType": "int64",
          "name": "responseCode",
          "type": "int64"
        }
      ],
      "stateMutability": "nonpayable",
      "type": "function"
    },
    {
      "inputs": [
        {
          "internalType": "address",
          "name": "token",
          "type": "address"
        },
        {
          "internalType": "address",
          "name": "sender",
          "type": "address"
        },
        {
          "internalType": "address",
          "name": "receiver",
          "type": "address"
        },
        {
          "internalType": "int64",
          "name": "serialNumber",
          "type": "int64"
        }
      ],
      "name": "transferNFTPublic",
      "outputs": [
        {
          "internalType": "int256",
          "name": "responseCode",
          "type": "int256"
        }
      ],
      "stateMutability": "nonpayable",
      "type": "function"
    },
    {
      "inputs": [
        {
          "internalType": "address",
          "name": "token",
          "type": "address"
        },
        {
          "internalType": "address[]",
          "name": "sender",
          "type": "address[]"
        },
        {
          "internalType": "address[]",
          "name": "receiver",
          "type": "address[]"
        },
        {
          "internalType": "int64[]",
          "name": "serialNumber",
          "type": "int64[]"
        }
      ],
      "name": "transferNFTsPublic",
      "outputs": [
        {
          "internalType": "int256",
          "name": "responseCode",
          "type": "int256"
        }
      ],
      "stateMutability": "nonpayable",
      "type": "function"
    },
    {
      "inputs": [
        {
          "internalType": "address",
          "name": "token",
          "type": "address"
        },
        {
          "internalType": "address",
          "name": "sender",
          "type": "address"
        },
        {
          "internalType": "address",
          "name": "receiver",
          "type": "address"
        },
        {
          "internalType": "int64",
          "name": "amount",
          "type": "int64"
        }
      ],
      "name": "transferTokenPublic",
      "outputs": [
        {
          "internalType": "int256",
          "name": "responseCode",
          "type": "int256"
        }
      ],
      "stateMutability": "nonpayable",
      "type": "function"
    },
    {
      "inputs": [
        {
          "internalType": "address",
          "name": "token",
          "type": "address"
        },
        {
          "internalType": "address[]",
          "name": "accountId",
          "type": "address[]"
        },
        {
          "internalType": "int64[]",
          "name": "amount",
          "type": "int64[]"
        }
      ],
      "name": "transferTokensPublic",
      "outputs": [
        {
          "internalType": "int256",
          "name": "responseCode",
          "type": "int256"
        }
      ],
      "stateMutability": "nonpayable",
      "type": "function"
    }
  ],
  "bytecode": "0x608060405234801561001057600080fd5b50600160208181527fa6eef7e35abe7026729641147f7915573c7e97b47efa546f5f6e3230263bcb499190915560027fcc69885fda6bcc1a4ace058b4a62bf5e179ea78fd58a1ccd71c22cc9b688792f5560047fd9d16d34ffb15ba3a3d852f0d403e2ce1d691fb54de27ac87cd2f993f3ec330f5560087f7dfe757ecd65cbd7922a9c0161e935dd7fdbcc0e999689c7d31633896b1fc60b5560107fedc95719e9a3b28dd8e80877cb5880a9be7de1a13fc8b05e7999683b6b567643557fe2689cd4a84e23ad2f564004f1c9013e9589d260bde6380aba3ca7e09e4df40c55600660005260407f8f331abe73332f95a25873e8b430885974c0409691f89d643119a11623a7924a556114e0806101276000396000f3fe608060405234801561001057600080fd5b50600436106100df5760003560e01c8063842b71db1161008c578063cc2528f011610066578063cc2528f0146101b7578063df6c06f5146101ca578063f25b1200146101dd578063f848fec4146101f057600080fd5b8063842b71db1461017e578063970e23d2146101915780639b23d3d9146101a457600080fd5b8063618dc65e116100bd578063618dc65e146101435780636c40a777146101585780636da6b1f01461016b57600080fd5b806315dacbea146100e45780634ba670351461010f5780635813155114610130575b600080fd5b6100f76100f23660046109ab565b610203565b60405160079190910b81526020015b60405180910390f35b61012261011d366004610a08565b6102f7565b604051908152602001610106565b61012261013e366004610beb565b610355565b610156610151366004610c5f565b6103b1565b005b6100f76101663660046109ab565b61049f565b610122610179366004610a08565b61056f565b6100f761018c3660046109ab565b61057d565b61012261019f366004610d05565b6105c3565b6100f76101b23660046109ab565b6105e0565b6101226101c5366004610da7565b610625565b6101226101d8366004610e40565b610633565b6101226101eb366004610e8c565b610640565b6101226101fe366004610e40565b61064d565b6040516001600160a01b038581166024830152848116604483015283166064820152608481018290526000908190819061016790630aed65f560e11b9060a4015b60408051601f198184030181529181526020820180516001600160e01b03166001600160e01b03199094169390931790925290516102829190610ef3565b6000604051808303816000865af19150503d80600081146102bf576040519150601f19603f3d011682016040523d82523d6000602084013e6102c4565b606091505b5091509150816102d55760156102e9565b808060200190518101906102e99190610f0f565b60030b979650505050505050565b60006103058585858561065a565b90507f90a5cf4cffe88b4edbb041cfc7a8a812c48a5ec30b84640fb37690875168e3aa8160405161033891815260200190565b60405180910390a16016811461034d57600080fd5b949350505050565b60006103628484846106a2565b90507f90a5cf4cffe88b4edbb041cfc7a8a812c48a5ec30b84640fb37690875168e3aa8160405161039591815260200190565b60405180910390a1601681146103aa57600080fd5b9392505050565b6000806101676001600160a01b031663618dc65e60e01b85856040516024016103db929190610f5e565b60408051601f198184030181529181526020820180516001600160e01b03166001600160e01b03199094169390931790925290516104199190610ef3565b6000604051808303816000865af19150503d8060008114610456576040519150601f19603f3d011682016040523d82523d6000602084013e61045b565b606091505b50915091507f4af4780e06fe8cb9df64b0794fa6f01399af979175bb988e35e0e57e594567bc8282604051610491929190610f80565b60405180910390a150505050565b604051639b23d3d960e01b81526001600160a01b038086166004830152808516602483015283166044820152606481018290526000903090639b23d3d9906084015b6020604051808303816000875af1158015610500573d6000803e3d6000fd5b505050506040513d601f19601f820116820180604052508101906105249190610f9b565b604051600782900b81529091507f90a5cf4cffe88b4edbb041cfc7a8a812c48a5ec30b84640fb37690875168e3aa9060200160405180910390a1600781900b60161461034d57600080fd5b600061030585858585610782565b604051630aed65f560e11b81526001600160a01b0380861660048301528085166024830152831660448201526064810182905260009030906315dacbea906084016104e1565b60006103626105d185611063565b6105db84866110c4565b6107ca565b6040516001600160a01b038581166024830152848116604483015283166064820152608481018290526000908190819061016790639b23d3d960e01b9060a401610244565b6000610305858585856108a7565b60006103628484846108d7565b6000610362848484610914565b6000610362848484610952565b6040516001600160a01b038581166024830152848116604483015283166064820152600782900b6084820152600090819081906101679063eca3691760e01b9060a401610244565b60008060006101676001600160a01b03166382bba49360e01b8787876040516024016106d0939291906112c8565b60408051601f198184030181529181526020820180516001600160e01b03166001600160e01b031990941693909317909252905161070e9190610ef3565b6000604051808303816000865af19150503d806000811461074b576040519150601f19603f3d011682016040523d82523d6000602084013e610750565b606091505b509150915081610761576015610775565b808060200190518101906107759190610f0f565b60030b9695505050505050565b6040516001600160a01b038581166024830152848116604483015283166064820152600782900b60848201526000908190819061016790635cfc901160e01b9060a401610244565b60008060006101676001600160a01b0316630e71804f60e01b86866040516024016107f692919061135a565b60408051601f198184030181529181526020820180516001600160e01b03166001600160e01b03199094169390931790925290516108349190610ef3565b6000604051808303816000865af19150503d8060008114610871576040519150601f19603f3d011682016040523d82523d6000602084013e610876565b606091505b50915091508161088757601561089b565b8080602001905181019061089b9190610f0f565b60030b95945050505050565b60008060006101676001600160a01b0316632c4ba19160e01b888888886040516024016102449493929190611457565b6040516001600160a01b038481166024830152831660448201526064810182905260009081908190610167906307336aaf60e41b906084016106d0565b6040516001600160a01b0384811660248301528316604482015281151560648201526000908190819061016790631b3b02e560e11b906084016106d0565b6040516001600160a01b0384811660248301528316604482015260648101829052600090819081906101679063e1f21c6760e01b906084016106d0565b80356001600160a01b03811681146109a657600080fd5b919050565b600080600080608085870312156109c157600080fd5b6109ca8561098f565b93506109d86020860161098f565b92506109e66040860161098f565b9396929550929360600135925050565b8060070b8114610a0557600080fd5b50565b60008060008060808587031215610a1e57600080fd5b610a278561098f565b9350610a356020860161098f565b9250610a436040860161098f565b91506060850135610a53816109f6565b939692955090935050565b634e487b7160e01b600052604160045260246000fd5b6040516060810167ffffffffffffffff81118282101715610a9757610a97610a5e565b60405290565b6040516080810167ffffffffffffffff81118282101715610a9757610a97610a5e565b604051601f8201601f1916810167ffffffffffffffff81118282101715610ae957610ae9610a5e565b604052919050565b600067ffffffffffffffff821115610b0b57610b0b610a5e565b5060051b60200190565b600082601f830112610b2657600080fd5b81356020610b3b610b3683610af1565b610ac0565b82815260059290921b84018101918181019086841115610b5a57600080fd5b8286015b84811015610b7c57610b6f8161098f565b8352918301918301610b5e565b509695505050505050565b600082601f830112610b9857600080fd5b81356020610ba8610b3683610af1565b82815260059290921b84018101918181019086841115610bc757600080fd5b8286015b84811015610b7c578035610bde816109f6565b8352918301918301610bcb565b600080600060608486031215610c0057600080fd5b610c098461098f565b9250602084013567ffffffffffffffff80821115610c2657600080fd5b610c3287838801610b15565b93506040860135915080821115610c4857600080fd5b50610c5586828701610b87565b9150509250925092565b60008060408385031215610c7257600080fd5b610c7b8361098f565b915060208084013567ffffffffffffffff80821115610c9957600080fd5b818601915086601f830112610cad57600080fd5b813581811115610cbf57610cbf610a5e565b610cd1601f8201601f19168501610ac0565b91508082528784828501011115610ce757600080fd5b80848401858401376000848284010152508093505050509250929050565b600080600060408486031215610d1a57600080fd5b833567ffffffffffffffff80821115610d3257600080fd5b9085019060208288031215610d4657600080fd5b90935060208501359080821115610d5c57600080fd5b818601915086601f830112610d7057600080fd5b813581811115610d7f57600080fd5b8760208260051b8501011115610d9457600080fd5b6020830194508093505050509250925092565b60008060008060808587031215610dbd57600080fd5b610dc68561098f565b9350602085013567ffffffffffffffff80821115610de357600080fd5b610def88838901610b15565b94506040870135915080821115610e0557600080fd5b610e1188838901610b15565b93506060870135915080821115610e2757600080fd5b50610e3487828801610b87565b91505092959194509250565b600080600060608486031215610e5557600080fd5b610e5e8461098f565b9250610e6c6020850161098f565b9150604084013590509250925092565b803580151581146109a657600080fd5b600080600060608486031215610ea157600080fd5b610eaa8461098f565b9250610eb86020850161098f565b9150610ec660408501610e7c565b90509250925092565b60005b83811015610eea578181015183820152602001610ed2565b50506000910152565b60008251610f05818460208701610ecf565b9190910192915050565b600060208284031215610f2157600080fd5b81518060030b81146103aa57600080fd5b60008151808452610f4a816020860160208601610ecf565b601f01601f19169290920160200192915050565b6001600160a01b038316815260406020820152600061034d6040830184610f32565b821515815260406020820152600061034d6040830184610f32565b600060208284031215610fad57600080fd5b81516103aa816109f6565b600082601f830112610fc957600080fd5b81356020610fd9610b3683610af1565b82815260609283028501820192828201919087851115610ff857600080fd5b8387015b858110156110565781818a0312156110145760008081fd5b61101c610a74565b6110258261098f565b815285820135611034816109f6565b818701526040611045838201610e7c565b908201528452928401928101610ffc565b5090979650505050505050565b60006020823603121561107557600080fd5b6040516020810167ffffffffffffffff828210818311171561109957611099610a5e565b8160405284359150808211156110ae57600080fd5b506110bb36828601610fb8565b82525092915050565b60006110d2610b3684610af1565b80848252602080830192508560051b8501368111156110f057600080fd5b855b8181101561124557803567ffffffffffffffff808211156111135760008081fd5b8189019150606080833603121561112a5760008081fd5b611132610a74565b61113b8461098f565b8152868401358381111561114f5760008081fd5b61115b36828701610fb8565b8883015250604080850135848111156111745760008081fd5b949094019336601f86011261118b57600093508384fd5b8435935061119b610b3685610af1565b84815260079490941b850188019388810190368611156111bb5760008081fd5b958901955b8587101561122d57608087360312156111d95760008081fd5b6111e1610a9d565b6111ea8861098f565b81526111f78b890161098f565b8b82015283880135611208816109f6565b81850152611217888701610e7c565b81870152825260809690960195908901906111c0565b918301919091525088525050509382019382016110f2565b50919695505050505050565b600081518084526020808501945080840160005b8381101561128a5781516001600160a01b031687529582019590820190600101611265565b509495945050505050565b600081518084526020808501945080840160005b8381101561128a57815160070b875295820195908201906001016112a9565b6001600160a01b03841681526060602082015260006112ea6060830185611251565b82810360408401526112fc8185611295565b9695505050505050565b600081518084526020808501945080840160005b8381101561128a57815180516001600160a01b031688528381015160070b848901526040908101511515908801526060909601959082019060010161131a565b60006040808352606085516020808487015261137883870183611306565b9150858203818701528187518084528284019150828160051b850101838a0160005b8381101561144657601f1987840301855281516001600160a01b03808251168552878201518a898701526113d08b870182611306565b928c0151868403878e01528051808552908a0193600092508a01905b808310156114305784518051851683528b81015185168c8401528e81015160070b8f8401528d015115158d830152938a0193600192909201916080909101906113ec565b509789019795505050918601915060010161139a565b50909b9a5050505050505050505050565b6001600160a01b03851681526080602082015260006114796080830186611251565b828103604084015261148b8186611251565b9050828103606084015261149f8185611295565b97965050505050505056fea264697066735822122099e771bdc1cddeeb512499c12e145ed223c4b19d74b24130de27f93b16c0a33064736f6c63430008130033",
  "linkReferences": {},
  "deployedLinkReferences": {}
}