{
  "_format": "hh-sol-artifact-1",
  "contractName": "SafeOperations",
  "sourceName": "contracts/safe-hts-precompile/SafeOperations.sol",
  "abi": [
    {
      "anonymous": false,
      "inputs": [
        {
          "components": [
            {
              "components": [
                {
                  "components": [
                    {
                      "internalType": "string",
                      "name": "name",
                      "type": "string"
                    },
                    {
                      "internalType": "string",
                      "name": "symbol",
                      "type": "string"
                    },
                    {
                      "internalType": "address",
                      "name": "treasury",
                      "type": "address"
                    },
                    {
                      "internalType": "string",
                      "name": "memo",
                      "type": "string"
                    },
                    {
                      "internalType": "bool",
                      "name": "tokenSupplyType",
                      "type": "bool"
                    },
                    {
                      "internalType": "int64",
                      "name": "maxSupply",
                      "type": "int64"
                    },
                    {
                      "internalType": "bool",
                      "name": "freezeDefault",
                      "type": "bool"
                    },
                    {
                      "components": [
                        {
                          "internalType": "uint256",
                          "name": "keyType",
                          "type": "uint256"
                        },
                        {
                          "components": [
                            {
                              "internalType": "bool",
                              "name": "inheritAccountKey",
                              "type": "bool"
                            },
                            {
                              "internalType": "address",
                              "name": "contractId",
                              "type": "address"
                            },
                            {
                              "internalType": "bytes",
                              "name": "ed25519",
                              "type": "bytes"
                            },
                            {
                              "internalType": "bytes",
                              "name": "ECDSA_secp256k1",
                              "type": "bytes"
                            },
                            {
                              "internalType": "address",
                              "name": "delegatableContractId",
                              "type": "address"
                            }
                          ],
                          "internalType": "struct IHederaTokenService.KeyValue",
                          "name": "key",
                          "type": "tuple"
                        }
                      ],
                      "internalType": "struct IHederaTokenService.TokenKey[]",
                      "name": "tokenKeys",
                      "type": "tuple[]"
                    },
                    {
                      "components": [
                        {
                          "internalType": "int64",
                          "name": "second",
                          "type": "int64"
                        },
                        {
                          "internalType": "address",
                          "name": "autoRenewAccount",
                          "type": "address"
                        },
                        {
                          "internalType": "int64",
                          "name": "autoRenewPeriod",
                          "type": "int64"
                        }
                      ],
                      "internalType": "struct IHederaTokenService.Expiry",
                      "name": "expiry",
                      "type": "tuple"
                    }
                  ],
                  "internalType": "struct IHederaTokenService.HederaToken",
                  "name": "token",
                  "type": "tuple"
                },
                {
                  "internalType": "int64",
                  "name": "totalSupply",
                  "type": "int64"
                },
                {
                  "internalType": "bool",
                  "name": "deleted",
                  "type": "bool"
                },
                {
                  "internalType": "bool",
                  "name": "defaultKycStatus",
                  "type": "bool"
                },
                {
                  "internalType": "bool",
                  "name": "pauseStatus",
                  "type": "bool"
                },
                {
                  "components": [
                    {
                      "internalType": "int64",
                      "name": "amount",
                      "type": "int64"
                    },
                    {
                      "internalType": "address",
                      "name": "tokenId",
                      "type": "address"
                    },
                    {
                      "internalType": "bool",
                      "name": "useHbarsForPayment",
                      "type": "bool"
                    },
                    {
                      "internalType": "bool",
                      "name": "useCurrentTokenForPayment",
                      "type": "bool"
                    },
                    {
                      "internalType": "address",
                      "name": "feeCollector",
                      "type": "address"
                    }
                  ],
                  "internalType": "struct IHederaTokenService.FixedFee[]",
                  "name": "fixedFees",
                  "type": "tuple[]"
                },
                {
                  "components": [
                    {
                      "internalType": "int64",
                      "name": "numerator",
                      "type": "int64"
                    },
                    {
                      "internalType": "int64",
                      "name": "denominator",
                      "type": "int64"
                    },
                    {
                      "internalType": "int64",
                      "name": "minimumAmount",
                      "type": "int64"
                    },
                    {
                      "internalType": "int64",
                      "name": "maximumAmount",
                      "type": "int64"
                    },
                    {
                      "internalType": "bool",
                      "name": "netOfTransfers",
                      "type": "bool"
                    },
                    {
                      "internalType": "address",
                      "name": "feeCollector",
                      "type": "address"
                    }
                  ],
                  "internalType": "struct IHederaTokenService.FractionalFee[]",
                  "name": "fractionalFees",
                  "type": "tuple[]"
                },
                {
                  "components": [
                    {
                      "internalType": "int64",
                      "name": "numerator",
                      "type": "int64"
                    },
                    {
                      "internalType": "int64",
                      "name": "denominator",
                      "type": "int64"
                    },
                    {
                      "internalType": "int64",
                      "name": "amount",
                      "type": "int64"
                    },
                    {
                      "internalType": "address",
                      "name": "tokenId",
                      "type": "address"
                    },
                    {
                      "internalType": "bool",
                      "name": "useHbarsForPayment",
                      "type": "bool"
                    },
                    {
                      "internalType": "address",
                      "name": "feeCollector",
                      "type": "address"
                    }
                  ],
                  "internalType": "struct IHederaTokenService.RoyaltyFee[]",
                  "name": "royaltyFees",
                  "type": "tuple[]"
                },
                {
                  "internalType": "string",
                  "name": "ledgerId",
                  "type": "string"
                }
              ],
              "internalType": "struct IHederaTokenService.TokenInfo",
              "name": "tokenInfo",
              "type": "tuple"
            },
            {
              "internalType": "int32",
              "name": "decimals",
              "type": "int32"
            }
          ],
          "indexed": false,
          "internalType": "struct IHederaTokenService.FungibleTokenInfo",
          "name": "fungibleTokenInfo",
          "type": "tuple"
        }
      ],
      "name": "FungibleTokenInfoEvent",
      "type": "event"
    },
    {
      "anonymous": false,
      "inputs": [
        {
          "indexed": false,
          "internalType": "address",
          "name": "token",
          "type": "address"
        }
      ],
      "name": "TokenCreated",
      "type": "event"
    },
    {
      "anonymous": false,
      "inputs": [
        {
          "components": [
            {
              "components": [
                {
                  "internalType": "string",
                  "name": "name",
                  "type": "string"
                },
                {
                  "internalType": "string",
                  "name": "symbol",
                  "type": "string"
                },
                {
                  "internalType": "address",
                  "name": "treasury",
                  "type": "address"
                },
                {
                  "internalType": "string",
                  "name": "memo",
                  "type": "string"
                },
                {
                  "internalType": "bool",
                  "name": "tokenSupplyType",
                  "type": "bool"
                },
                {
                  "internalType": "int64",
                  "name": "maxSupply",
                  "type": "int64"
                },
                {
                  "internalType": "bool",
                  "name": "freezeDefault",
                  "type": "bool"
                },
                {
                  "components": [
                    {
                      "internalType": "uint256",
                      "name": "keyType",
                      "type": "uint256"
                    },
                    {
                      "components": [
                        {
                          "internalType": "bool",
                          "name": "inheritAccountKey",
                          "type": "bool"
                        },
                        {
                          "internalType": "address",
                          "name": "contractId",
                          "type": "address"
                        },
                        {
                          "internalType": "bytes",
                          "name": "ed25519",
                          "type": "bytes"
                        },
                        {
                          "internalType": "bytes",
                          "name": "ECDSA_secp256k1",
                          "type": "bytes"
                        },
                        {
                          "internalType": "address",
                          "name": "delegatableContractId",
                          "type": "address"
                        }
                      ],
                      "internalType": "struct IHederaTokenService.KeyValue",
                      "name": "key",
                      "type": "tuple"
                    }
                  ],
                  "internalType": "struct IHederaTokenService.TokenKey[]",
                  "name": "tokenKeys",
                  "type": "tuple[]"
                },
                {
                  "components": [
                    {
                      "internalType": "int64",
                      "name": "second",
                      "type": "int64"
                    },
                    {
                      "internalType": "address",
                      "name": "autoRenewAccount",
                      "type": "address"
                    },
                    {
                      "internalType": "int64",
                      "name": "autoRenewPeriod",
                      "type": "int64"
                    }
                  ],
                  "internalType": "struct IHederaTokenService.Expiry",
                  "name": "expiry",
                  "type": "tuple"
                }
              ],
              "internalType": "struct IHederaTokenService.HederaToken",
              "name": "token",
              "type": "tuple"
            },
            {
              "internalType": "int64",
              "name": "totalSupply",
              "type": "int64"
            },
            {
              "internalType": "bool",
              "name": "deleted",
              "type": "bool"
            },
            {
              "internalType": "bool",
              "name": "defaultKycStatus",
              "type": "bool"
            },
            {
              "internalType": "bool",
              "name": "pauseStatus",
              "type": "bool"
            },
            {
              "components": [
                {
                  "internalType": "int64",
                  "name": "amount",
                  "type": "int64"
                },
                {
                  "internalType": "address",
                  "name": "tokenId",
                  "type": "address"
                },
                {
                  "internalType": "bool",
                  "name": "useHbarsForPayment",
                  "type": "bool"
                },
                {
                  "internalType": "bool",
                  "name": "useCurrentTokenForPayment",
                  "type": "bool"
                },
                {
                  "internalType": "address",
                  "name": "feeCollector",
                  "type": "address"
                }
              ],
              "internalType": "struct IHederaTokenService.FixedFee[]",
              "name": "fixedFees",
              "type": "tuple[]"
            },
            {
              "components": [
                {
                  "internalType": "int64",
                  "name": "numerator",
                  "type": "int64"
                },
                {
                  "internalType": "int64",
                  "name": "denominator",
                  "type": "int64"
                },
                {
                  "internalType": "int64",
                  "name": "minimumAmount",
                  "type": "int64"
                },
                {
                  "internalType": "int64",
                  "name": "maximumAmount",
                  "type": "int64"
                },
                {
                  "internalType": "bool",
                  "name": "netOfTransfers",
                  "type": "bool"
                },
                {
                  "internalType": "address",
                  "name": "feeCollector",
                  "type": "address"
                }
              ],
              "internalType": "struct IHederaTokenService.FractionalFee[]",
              "name": "fractionalFees",
              "type": "tuple[]"
            },
            {
              "components": [
                {
                  "internalType": "int64",
                  "name": "numerator",
                  "type": "int64"
                },
                {
                  "internalType": "int64",
                  "name": "denominator",
                  "type": "int64"
                },
                {
                  "internalType": "int64",
                  "name": "amount",
                  "type": "int64"
                },
                {
                  "internalType": "address",
                  "name": "tokenId",
                  "type": "address"
                },
                {
                  "internalType": "bool",
                  "name": "useHbarsForPayment",
                  "type": "bool"
                },
                {
                  "internalType": "address",
                  "name": "feeCollector",
                  "type": "address"
                }
              ],
              "internalType": "struct IHederaTokenService.RoyaltyFee[]",
              "name": "royaltyFees",
              "type": "tuple[]"
            },
            {
              "internalType": "string",
              "name": "ledgerId",
              "type": "string"
            }
          ],
          "indexed": false,
          "internalType": "struct IHederaTokenService.TokenInfo",
          "name": "tokenInfo",
          "type": "tuple"
        }
      ],
      "name": "TokenInfoEvent",
      "type": "event"
    },
    {
      "inputs": [
        {
          "internalType": "address",
          "name": "token",
          "type": "address"
        },
        {
          "internalType": "address",
          "name": "owner",
          "type": "address"
        },
        {
          "internalType": "address",
          "name": "spender",
          "type": "address"
        }
      ],
      "name": "safeAllowance",
      "outputs": [
        {
          "internalType": "uint256",
          "name": "allowance",
          "type": "uint256"
        }
      ],
      "stateMutability": "nonpayable",
      "type": "function"
    },
    {
      "inputs": [
        {
          "internalType": "address",
          "name": "token",
          "type": "address"
        },
        {
          "internalType": "address",
          "name": "spender",
          "type": "address"
        },
        {
          "internalType": "uint256",
          "name": "amount",
          "type": "uint256"
        }
      ],
      "name": "safeApprove",
      "outputs": [],
      "stateMutability": "nonpayable",
      "type": "function"
    },
    {
      "inputs": [
        {
          "internalType": "address",
          "name": "token",
          "type": "address"
        },
        {
          "internalType": "address",
          "name": "approved",
          "type": "address"
        },
        {
          "internalType": "int64",
          "name": "serialNumber",
          "type": "int64"
        }
      ],
      "name": "safeApproveNFT",
      "outputs": [],
      "stateMutability": "nonpayable",
      "type": "function"
    },
    {
      "inputs": [
        {
          "internalType": "address",
          "name": "sender",
          "type": "address"
        },
        {
          "internalType": "address",
          "name": "tokenAddress",
          "type": "address"
        }
      ],
      "name": "safeAssociateToken",
      "outputs": [],
      "stateMutability": "nonpayable",
      "type": "function"
    },
    {
      "inputs": [
        {
          "internalType": "address",
          "name": "account",
          "type": "address"
        },
        {
          "internalType": "address[]",
          "name": "tokens",
          "type": "address[]"
        }
      ],
      "name": "safeAssociateTokens",
      "outputs": [],
      "stateMutability": "nonpayable",
      "type": "function"
    },
    {
      "inputs": [
        {
          "internalType": "address",
          "name": "token",
          "type": "address"
        },
        {
          "internalType": "int64",
          "name": "amount",
          "type": "int64"
        },
        {
          "internalType": "int64[]",
          "name": "serialNumbers",
          "type": "int64[]"
        }
      ],
      "name": "safeBurnToken",
      "outputs": [
        {
          "internalType": "int64",
          "name": "newTotalSupply",
          "type": "int64"
        }
      ],
      "stateMutability": "nonpayable",
      "type": "function"
    },
    {
      "inputs": [],
      "name": "safeCreateFungibleToken",
      "outputs": [
        {
          "internalType": "address",
          "name": "tokenAddress",
          "type": "address"
        }
      ],
      "stateMutability": "payable",
      "type": "function"
    },
    {
      "inputs": [
        {
          "internalType": "address",
          "name": "feeCollector",
          "type": "address"
        },
        {
          "internalType": "address",
          "name": "existingTokenAddress",
          "type": "address"
        }
      ],
      "name": "safeCreateFungibleTokenWithCustomFees",
      "outputs": [
        {
          "internalType": "address",
          "name": "tokenAddress",
          "type": "address"
        }
      ],
      "stateMutability": "payable",
      "type": "function"
    },
    {
      "inputs": [],
      "name": "safeCreateNonFungibleToken",
      "outputs": [
        {
          "internalType": "address",
          "name": "tokenAddress",
          "type": "address"
        }
      ],
      "stateMutability": "payable",
      "type": "function"
    },
    {
      "inputs": [
        {
          "internalType": "address",
          "name": "feeCollector",
          "type": "address"
        },
        {
          "internalType": "address",
          "name": "existingTokenAddress",
          "type": "address"
        }
      ],
      "name": "safeCreateNonFungibleTokenWithCustomFees",
      "outputs": [
        {
          "internalType": "address",
          "name": "tokenAddress",
          "type": "address"
        }
      ],
      "stateMutability": "payable",
      "type": "function"
    },
    {
      "inputs": [
        {
          "components": [
            {
              "internalType": "address",
              "name": "token",
              "type": "address"
            },
            {
              "components": [
                {
                  "internalType": "address",
                  "name": "accountID",
                  "type": "address"
                },
                {
                  "internalType": "int64",
                  "name": "amount",
                  "type": "int64"
                },
                {
                  "internalType": "bool",
                  "name": "isApproval",
                  "type": "bool"
                }
              ],
              "internalType": "struct IHederaTokenService.AccountAmount[]",
              "name": "transfers",
              "type": "tuple[]"
            },
            {
              "components": [
                {
                  "internalType": "address",
                  "name": "senderAccountID",
                  "type": "address"
                },
                {
                  "internalType": "address",
                  "name": "receiverAccountID",
                  "type": "address"
                },
                {
                  "internalType": "int64",
                  "name": "serialNumber",
                  "type": "int64"
                },
                {
                  "internalType": "bool",
                  "name": "isApproval",
                  "type": "bool"
                }
              ],
              "internalType": "struct IHederaTokenService.NftTransfer[]",
              "name": "nftTransfers",
              "type": "tuple[]"
            }
          ],
          "internalType": "struct IHederaTokenService.TokenTransferList[]",
          "name": "tokenTransfers",
          "type": "tuple[]"
        }
      ],
      "name": "safeCryptoTransfer",
      "outputs": [],
      "stateMutability": "nonpayable",
      "type": "function"
    },
    {
      "inputs": [
        {
          "internalType": "address",
          "name": "token",
          "type": "address"
        }
      ],
      "name": "safeDeleteToken",
      "outputs": [],
      "stateMutability": "nonpayable",
      "type": "function"
    },
    {
      "inputs": [
        {
          "internalType": "address",
          "name": "sender",
          "type": "address"
        },
        {
          "internalType": "address",
          "name": "tokenAddress",
          "type": "address"
        }
      ],
      "name": "safeDissociateToken",
      "outputs": [],
      "stateMutability": "nonpayable",
      "type": "function"
    },
    {
      "inputs": [
        {
          "internalType": "address",
          "name": "account",
          "type": "address"
        },
        {
          "internalType": "address[]",
          "name": "tokens",
          "type": "address[]"
        }
      ],
      "name": "safeDissociateTokens",
      "outputs": [],
      "stateMutability": "nonpayable",
      "type": "function"
    },
    {
      "inputs": [
        {
          "internalType": "address",
          "name": "token",
          "type": "address"
        },
        {
          "internalType": "address",
          "name": "account",
          "type": "address"
        }
      ],
      "name": "safeFreezeToken",
      "outputs": [],
      "stateMutability": "nonpayable",
      "type": "function"
    },
    {
      "inputs": [
        {
          "internalType": "address",
          "name": "token",
          "type": "address"
        },
        {
          "internalType": "int64",
          "name": "serialNumber",
          "type": "int64"
        }
      ],
      "name": "safeGetApproved",
      "outputs": [
        {
          "internalType": "address",
          "name": "approved",
          "type": "address"
        }
      ],
      "stateMutability": "nonpayable",
      "type": "function"
    },
    {
      "inputs": [
        {
          "internalType": "address",
          "name": "token",
          "type": "address"
        }
      ],
      "name": "safeGetFungibleTokenInfo",
      "outputs": [
        {
          "components": [
            {
              "components": [
                {
                  "components": [
                    {
                      "internalType": "string",
                      "name": "name",
                      "type": "string"
                    },
                    {
                      "internalType": "string",
                      "name": "symbol",
                      "type": "string"
                    },
                    {
                      "internalType": "address",
                      "name": "treasury",
                      "type": "address"
                    },
                    {
                      "internalType": "string",
                      "name": "memo",
                      "type": "string"
                    },
                    {
                      "internalType": "bool",
                      "name": "tokenSupplyType",
                      "type": "bool"
                    },
                    {
                      "internalType": "int64",
                      "name": "maxSupply",
                      "type": "int64"
                    },
                    {
                      "internalType": "bool",
                      "name": "freezeDefault",
                      "type": "bool"
                    },
                    {
                      "components": [
                        {
                          "internalType": "uint256",
                          "name": "keyType",
                          "type": "uint256"
                        },
                        {
                          "components": [
                            {
                              "internalType": "bool",
                              "name": "inheritAccountKey",
                              "type": "bool"
                            },
                            {
                              "internalType": "address",
                              "name": "contractId",
                              "type": "address"
                            },
                            {
                              "internalType": "bytes",
                              "name": "ed25519",
                              "type": "bytes"
                            },
                            {
                              "internalType": "bytes",
                              "name": "ECDSA_secp256k1",
                              "type": "bytes"
                            },
                            {
                              "internalType": "address",
                              "name": "delegatableContractId",
                              "type": "address"
                            }
                          ],
                          "internalType": "struct IHederaTokenService.KeyValue",
                          "name": "key",
                          "type": "tuple"
                        }
                      ],
                      "internalType": "struct IHederaTokenService.TokenKey[]",
                      "name": "tokenKeys",
                      "type": "tuple[]"
                    },
                    {
                      "components": [
                        {
                          "internalType": "int64",
                          "name": "second",
                          "type": "int64"
                        },
                        {
                          "internalType": "address",
                          "name": "autoRenewAccount",
                          "type": "address"
                        },
                        {
                          "internalType": "int64",
                          "name": "autoRenewPeriod",
                          "type": "int64"
                        }
                      ],
                      "internalType": "struct IHederaTokenService.Expiry",
                      "name": "expiry",
                      "type": "tuple"
                    }
                  ],
                  "internalType": "struct IHederaTokenService.HederaToken",
                  "name": "token",
                  "type": "tuple"
                },
                {
                  "internalType": "int64",
                  "name": "totalSupply",
                  "type": "int64"
                },
                {
                  "internalType": "bool",
                  "name": "deleted",
                  "type": "bool"
                },
                {
                  "internalType": "bool",
                  "name": "defaultKycStatus",
                  "type": "bool"
                },
                {
                  "internalType": "bool",
                  "name": "pauseStatus",
                  "type": "bool"
                },
                {
                  "components": [
                    {
                      "internalType": "int64",
                      "name": "amount",
                      "type": "int64"
                    },
                    {
                      "internalType": "address",
                      "name": "tokenId",
                      "type": "address"
                    },
                    {
                      "internalType": "bool",
                      "name": "useHbarsForPayment",
                      "type": "bool"
                    },
                    {
                      "internalType": "bool",
                      "name": "useCurrentTokenForPayment",
                      "type": "bool"
                    },
                    {
                      "internalType": "address",
                      "name": "feeCollector",
                      "type": "address"
                    }
                  ],
                  "internalType": "struct IHederaTokenService.FixedFee[]",
                  "name": "fixedFees",
                  "type": "tuple[]"
                },
                {
                  "components": [
                    {
                      "internalType": "int64",
                      "name": "numerator",
                      "type": "int64"
                    },
                    {
                      "internalType": "int64",
                      "name": "denominator",
                      "type": "int64"
                    },
                    {
                      "internalType": "int64",
                      "name": "minimumAmount",
                      "type": "int64"
                    },
                    {
                      "internalType": "int64",
                      "name": "maximumAmount",
                      "type": "int64"
                    },
                    {
                      "internalType": "bool",
                      "name": "netOfTransfers",
                      "type": "bool"
                    },
                    {
                      "internalType": "address",
                      "name": "feeCollector",
                      "type": "address"
                    }
                  ],
                  "internalType": "struct IHederaTokenService.FractionalFee[]",
                  "name": "fractionalFees",
                  "type": "tuple[]"
                },
                {
                  "components": [
                    {
                      "internalType": "int64",
                      "name": "numerator",
                      "type": "int64"
                    },
                    {
                      "internalType": "int64",
                      "name": "denominator",
                      "type": "int64"
                    },
                    {
                      "internalType": "int64",
                      "name": "amount",
                      "type": "int64"
                    },
                    {
                      "internalType": "address",
                      "name": "tokenId",
                      "type": "address"
                    },
                    {
                      "internalType": "bool",
                      "name": "useHbarsForPayment",
                      "type": "bool"
                    },
                    {
                      "internalType": "address",
                      "name": "feeCollector",
                      "type": "address"
                    }
                  ],
                  "internalType": "struct IHederaTokenService.RoyaltyFee[]",
                  "name": "royaltyFees",
                  "type": "tuple[]"
                },
                {
                  "internalType": "string",
                  "name": "ledgerId",
                  "type": "string"
                }
              ],
              "internalType": "struct IHederaTokenService.TokenInfo",
              "name": "tokenInfo",
              "type": "tuple"
            },
            {
              "internalType": "int32",
              "name": "decimals",
              "type": "int32"
            }
          ],
          "internalType": "struct IHederaTokenService.FungibleTokenInfo",
          "name": "fungibleTokenInfo",
          "type": "tuple"
        }
      ],
      "stateMutability": "nonpayable",
      "type": "function"
    },
    {
      "inputs": [
        {
          "internalType": "address",
          "name": "token",
          "type": "address"
        },
        {
          "internalType": "int64",
          "name": "serialNumber",
          "type": "int64"
        }
      ],
      "name": "safeGetNonFungibleTokenInfo",
      "outputs": [
        {
          "components": [
            {
              "components": [
                {
                  "components": [
                    {
                      "internalType": "string",
                      "name": "name",
                      "type": "string"
                    },
                    {
                      "internalType": "string",
                      "name": "symbol",
                      "type": "string"
                    },
                    {
                      "internalType": "address",
                      "name": "treasury",
                      "type": "address"
                    },
                    {
                      "internalType": "string",
                      "name": "memo",
                      "type": "string"
                    },
                    {
                      "internalType": "bool",
                      "name": "tokenSupplyType",
                      "type": "bool"
                    },
                    {
                      "internalType": "int64",
                      "name": "maxSupply",
                      "type": "int64"
                    },
                    {
                      "internalType": "bool",
                      "name": "freezeDefault",
                      "type": "bool"
                    },
                    {
                      "components": [
                        {
                          "internalType": "uint256",
                          "name": "keyType",
                          "type": "uint256"
                        },
                        {
                          "components": [
                            {
                              "internalType": "bool",
                              "name": "inheritAccountKey",
                              "type": "bool"
                            },
                            {
                              "internalType": "address",
                              "name": "contractId",
                              "type": "address"
                            },
                            {
                              "internalType": "bytes",
                              "name": "ed25519",
                              "type": "bytes"
                            },
                            {
                              "internalType": "bytes",
                              "name": "ECDSA_secp256k1",
                              "type": "bytes"
                            },
                            {
                              "internalType": "address",
                              "name": "delegatableContractId",
                              "type": "address"
                            }
                          ],
                          "internalType": "struct IHederaTokenService.KeyValue",
                          "name": "key",
                          "type": "tuple"
                        }
                      ],
                      "internalType": "struct IHederaTokenService.TokenKey[]",
                      "name": "tokenKeys",
                      "type": "tuple[]"
                    },
                    {
                      "components": [
                        {
                          "internalType": "int64",
                          "name": "second",
                          "type": "int64"
                        },
                        {
                          "internalType": "address",
                          "name": "autoRenewAccount",
                          "type": "address"
                        },
                        {
                          "internalType": "int64",
                          "name": "autoRenewPeriod",
                          "type": "int64"
                        }
                      ],
                      "internalType": "struct IHederaTokenService.Expiry",
                      "name": "expiry",
                      "type": "tuple"
                    }
                  ],
                  "internalType": "struct IHederaTokenService.HederaToken",
                  "name": "token",
                  "type": "tuple"
                },
                {
                  "internalType": "int64",
                  "name": "totalSupply",
                  "type": "int64"
                },
                {
                  "internalType": "bool",
                  "name": "deleted",
                  "type": "bool"
                },
                {
                  "internalType": "bool",
                  "name": "defaultKycStatus",
                  "type": "bool"
                },
                {
                  "internalType": "bool",
                  "name": "pauseStatus",
                  "type": "bool"
                },
                {
                  "components": [
                    {
                      "internalType": "int64",
                      "name": "amount",
                      "type": "int64"
                    },
                    {
                      "internalType": "address",
                      "name": "tokenId",
                      "type": "address"
                    },
                    {
                      "internalType": "bool",
                      "name": "useHbarsForPayment",
                      "type": "bool"
                    },
                    {
                      "internalType": "bool",
                      "name": "useCurrentTokenForPayment",
                      "type": "bool"
                    },
                    {
                      "internalType": "address",
                      "name": "feeCollector",
                      "type": "address"
                    }
                  ],
                  "internalType": "struct IHederaTokenService.FixedFee[]",
                  "name": "fixedFees",
                  "type": "tuple[]"
                },
                {
                  "components": [
                    {
                      "internalType": "int64",
                      "name": "numerator",
                      "type": "int64"
                    },
                    {
                      "internalType": "int64",
                      "name": "denominator",
                      "type": "int64"
                    },
                    {
                      "internalType": "int64",
                      "name": "minimumAmount",
                      "type": "int64"
                    },
                    {
                      "internalType": "int64",
                      "name": "maximumAmount",
                      "type": "int64"
                    },
                    {
                      "internalType": "bool",
                      "name": "netOfTransfers",
                      "type": "bool"
                    },
                    {
                      "internalType": "address",
                      "name": "feeCollector",
                      "type": "address"
                    }
                  ],
                  "internalType": "struct IHederaTokenService.FractionalFee[]",
                  "name": "fractionalFees",
                  "type": "tuple[]"
                },
                {
                  "components": [
                    {
                      "internalType": "int64",
                      "name": "numerator",
                      "type": "int64"
                    },
                    {
                      "internalType": "int64",
                      "name": "denominator",
                      "type": "int64"
                    },
                    {
                      "internalType": "int64",
                      "name": "amount",
                      "type": "int64"
                    },
                    {
                      "internalType": "address",
                      "name": "tokenId",
                      "type": "address"
                    },
                    {
                      "internalType": "bool",
                      "name": "useHbarsForPayment",
                      "type": "bool"
                    },
                    {
                      "internalType": "address",
                      "name": "feeCollector",
                      "type": "address"
                    }
                  ],
                  "internalType": "struct IHederaTokenService.RoyaltyFee[]",
                  "name": "royaltyFees",
                  "type": "tuple[]"
                },
                {
                  "internalType": "string",
                  "name": "ledgerId",
                  "type": "string"
                }
              ],
              "internalType": "struct IHederaTokenService.TokenInfo",
              "name": "tokenInfo",
              "type": "tuple"
            },
            {
              "internalType": "int64",
              "name": "serialNumber",
              "type": "int64"
            },
            {
              "internalType": "address",
              "name": "ownerId",
              "type": "address"
            },
            {
              "internalType": "int64",
              "name": "creationTime",
              "type": "int64"
            },
            {
              "internalType": "bytes",
              "name": "metadata",
              "type": "bytes"
            },
            {
              "internalType": "address",
              "name": "spenderId",
              "type": "address"
            }
          ],
          "internalType": "struct IHederaTokenService.NonFungibleTokenInfo",
          "name": "nonFungibleTokenInfo",
          "type": "tuple"
        }
      ],
      "stateMutability": "nonpayable",
      "type": "function"
    },
    {
      "inputs": [
        {
          "internalType": "address",
          "name": "token",
          "type": "address"
        }
      ],
      "name": "safeGetTokenCustomFees",
      "outputs": [
        {
          "components": [
            {
              "internalType": "int64",
              "name": "amount",
              "type": "int64"
            },
            {
              "internalType": "address",
              "name": "tokenId",
              "type": "address"
            },
            {
              "internalType": "bool",
              "name": "useHbarsForPayment",
              "type": "bool"
            },
            {
              "internalType": "bool",
              "name": "useCurrentTokenForPayment",
              "type": "bool"
            },
            {
              "internalType": "address",
              "name": "feeCollector",
              "type": "address"
            }
          ],
          "internalType": "struct IHederaTokenService.FixedFee[]",
          "name": "fixedFees",
          "type": "tuple[]"
        },
        {
          "components": [
            {
              "internalType": "int64",
              "name": "numerator",
              "type": "int64"
            },
            {
              "internalType": "int64",
              "name": "denominator",
              "type": "int64"
            },
            {
              "internalType": "int64",
              "name": "minimumAmount",
              "type": "int64"
            },
            {
              "internalType": "int64",
              "name": "maximumAmount",
              "type": "int64"
            },
            {
              "internalType": "bool",
              "name": "netOfTransfers",
              "type": "bool"
            },
            {
              "internalType": "address",
              "name": "feeCollector",
              "type": "address"
            }
          ],
          "internalType": "struct IHederaTokenService.FractionalFee[]",
          "name": "fractionalFees",
          "type": "tuple[]"
        },
        {
          "components": [
            {
              "internalType": "int64",
              "name": "numerator",
              "type": "int64"
            },
            {
              "internalType": "int64",
              "name": "denominator",
              "type": "int64"
            },
            {
              "internalType": "int64",
              "name": "amount",
              "type": "int64"
            },
            {
              "internalType": "address",
              "name": "tokenId",
              "type": "address"
            },
            {
              "internalType": "bool",
              "name": "useHbarsForPayment",
              "type": "bool"
            },
            {
              "internalType": "address",
              "name": "feeCollector",
              "type": "address"
            }
          ],
          "internalType": "struct IHederaTokenService.RoyaltyFee[]",
          "name": "royaltyFees",
          "type": "tuple[]"
        }
      ],
      "stateMutability": "nonpayable",
      "type": "function"
    },
    {
      "inputs": [
        {
          "internalType": "address",
          "name": "token",
          "type": "address"
        }
      ],
      "name": "safeGetTokenDefaultFreezeStatus",
      "outputs": [
        {
          "internalType": "bool",
          "name": "defaultFreezeStatus",
          "type": "bool"
        }
      ],
      "stateMutability": "nonpayable",
      "type": "function"
    },
    {
      "inputs": [
        {
          "internalType": "address",
          "name": "token",
          "type": "address"
        }
      ],
      "name": "safeGetTokenDefaultKycStatus",
      "outputs": [
        {
          "internalType": "bool",
          "name": "defaultKycStatus",
          "type": "bool"
        }
      ],
      "stateMutability": "nonpayable",
      "type": "function"
    },
    {
      "inputs": [
        {
          "internalType": "address",
          "name": "token",
          "type": "address"
        }
      ],
      "name": "safeGetTokenExpiryInfo",
      "outputs": [
        {
          "components": [
            {
              "internalType": "int64",
              "name": "second",
              "type": "int64"
            },
            {
              "internalType": "address",
              "name": "autoRenewAccount",
              "type": "address"
            },
            {
              "internalType": "int64",
              "name": "autoRenewPeriod",
              "type": "int64"
            }
          ],
          "internalType": "struct IHederaTokenService.Expiry",
          "name": "expiry",
          "type": "tuple"
        }
      ],
      "stateMutability": "nonpayable",
      "type": "function"
    },
    {
      "inputs": [
        {
          "internalType": "address",
          "name": "token",
          "type": "address"
        }
      ],
      "name": "safeGetTokenInfo",
      "outputs": [
        {
          "components": [
            {
              "components": [
                {
                  "internalType": "string",
                  "name": "name",
                  "type": "string"
                },
                {
                  "internalType": "string",
                  "name": "symbol",
                  "type": "string"
                },
                {
                  "internalType": "address",
                  "name": "treasury",
                  "type": "address"
                },
                {
                  "internalType": "string",
                  "name": "memo",
                  "type": "string"
                },
                {
                  "internalType": "bool",
                  "name": "tokenSupplyType",
                  "type": "bool"
                },
                {
                  "internalType": "int64",
                  "name": "maxSupply",
                  "type": "int64"
                },
                {
                  "internalType": "bool",
                  "name": "freezeDefault",
                  "type": "bool"
                },
                {
                  "components": [
                    {
                      "internalType": "uint256",
                      "name": "keyType",
                      "type": "uint256"
                    },
                    {
                      "components": [
                        {
                          "internalType": "bool",
                          "name": "inheritAccountKey",
                          "type": "bool"
                        },
                        {
                          "internalType": "address",
                          "name": "contractId",
                          "type": "address"
                        },
                        {
                          "internalType": "bytes",
                          "name": "ed25519",
                          "type": "bytes"
                        },
                        {
                          "internalType": "bytes",
                          "name": "ECDSA_secp256k1",
                          "type": "bytes"
                        },
                        {
                          "internalType": "address",
                          "name": "delegatableContractId",
                          "type": "address"
                        }
                      ],
                      "internalType": "struct IHederaTokenService.KeyValue",
                      "name": "key",
                      "type": "tuple"
                    }
                  ],
                  "internalType": "struct IHederaTokenService.TokenKey[]",
                  "name": "tokenKeys",
                  "type": "tuple[]"
                },
                {
                  "components": [
                    {
                      "internalType": "int64",
                      "name": "second",
                      "type": "int64"
                    },
                    {
                      "internalType": "address",
                      "name": "autoRenewAccount",
                      "type": "address"
                    },
                    {
                      "internalType": "int64",
                      "name": "autoRenewPeriod",
                      "type": "int64"
                    }
                  ],
                  "internalType": "struct IHederaTokenService.Expiry",
                  "name": "expiry",
                  "type": "tuple"
                }
              ],
              "internalType": "struct IHederaTokenService.HederaToken",
              "name": "token",
              "type": "tuple"
            },
            {
              "internalType": "int64",
              "name": "totalSupply",
              "type": "int64"
            },
            {
              "internalType": "bool",
              "name": "deleted",
              "type": "bool"
            },
            {
              "internalType": "bool",
              "name": "defaultKycStatus",
              "type": "bool"
            },
            {
              "internalType": "bool",
              "name": "pauseStatus",
              "type": "bool"
            },
            {
              "components": [
                {
                  "internalType": "int64",
                  "name": "amount",
                  "type": "int64"
                },
                {
                  "internalType": "address",
                  "name": "tokenId",
                  "type": "address"
                },
                {
                  "internalType": "bool",
                  "name": "useHbarsForPayment",
                  "type": "bool"
                },
                {
                  "internalType": "bool",
                  "name": "useCurrentTokenForPayment",
                  "type": "bool"
                },
                {
                  "internalType": "address",
                  "name": "feeCollector",
                  "type": "address"
                }
              ],
              "internalType": "struct IHederaTokenService.FixedFee[]",
              "name": "fixedFees",
              "type": "tuple[]"
            },
            {
              "components": [
                {
                  "internalType": "int64",
                  "name": "numerator",
                  "type": "int64"
                },
                {
                  "internalType": "int64",
                  "name": "denominator",
                  "type": "int64"
                },
                {
                  "internalType": "int64",
                  "name": "minimumAmount",
                  "type": "int64"
                },
                {
                  "internalType": "int64",
                  "name": "maximumAmount",
                  "type": "int64"
                },
                {
                  "internalType": "bool",
                  "name": "netOfTransfers",
                  "type": "bool"
                },
                {
                  "internalType": "address",
                  "name": "feeCollector",
                  "type": "address"
                }
              ],
              "internalType": "struct IHederaTokenService.FractionalFee[]",
              "name": "fractionalFees",
              "type": "tuple[]"
            },
            {
              "components": [
                {
                  "internalType": "int64",
                  "name": "numerator",
                  "type": "int64"
                },
                {
                  "internalType": "int64",
                  "name": "denominator",
                  "type": "int64"
                },
                {
                  "internalType": "int64",
                  "name": "amount",
                  "type": "int64"
                },
                {
                  "internalType": "address",
                  "name": "tokenId",
                  "type": "address"
                },
                {
                  "internalType": "bool",
                  "name": "useHbarsForPayment",
                  "type": "bool"
                },
                {
                  "internalType": "address",
                  "name": "feeCollector",
                  "type": "address"
                }
              ],
              "internalType": "struct IHederaTokenService.RoyaltyFee[]",
              "name": "royaltyFees",
              "type": "tuple[]"
            },
            {
              "internalType": "string",
              "name": "ledgerId",
              "type": "string"
            }
          ],
          "internalType": "struct IHederaTokenService.TokenInfo",
          "name": "tokenInfo",
          "type": "tuple"
        }
      ],
      "stateMutability": "nonpayable",
      "type": "function"
    },
    {
      "inputs": [
        {
          "internalType": "address",
          "name": "token",
          "type": "address"
        },
        {
          "internalType": "uint256",
          "name": "keyType",
          "type": "uint256"
        }
      ],
      "name": "safeGetTokenKey",
      "outputs": [
        {
          "components": [
            {
              "internalType": "bool",
              "name": "inheritAccountKey",
              "type": "bool"
            },
            {
              "internalType": "address",
              "name": "contractId",
              "type": "address"
            },
            {
              "internalType": "bytes",
              "name": "ed25519",
              "type": "bytes"
            },
            {
              "internalType": "bytes",
              "name": "ECDSA_secp256k1",
              "type": "bytes"
            },
            {
              "internalType": "address",
              "name": "delegatableContractId",
              "type": "address"
            }
          ],
          "internalType": "struct IHederaTokenService.KeyValue",
          "name": "key",
          "type": "tuple"
        }
      ],
      "stateMutability": "nonpayable",
      "type": "function"
    },
    {
      "inputs": [
        {
          "internalType": "address",
          "name": "token",
          "type": "address"
        }
      ],
      "name": "safeGetTokenType",
      "outputs": [
        {
          "internalType": "int32",
          "name": "tokenType",
          "type": "int32"
        }
      ],
      "stateMutability": "nonpayable",
      "type": "function"
    },
    {
      "inputs": [
        {
          "internalType": "address",
          "name": "token",
          "type": "address"
        },
        {
          "internalType": "address",
          "name": "account",
          "type": "address"
        }
      ],
      "name": "safeGrantTokenKyc",
      "outputs": [],
      "stateMutability": "nonpayable",
      "type": "function"
    },
    {
      "inputs": [
        {
          "internalType": "address",
          "name": "token",
          "type": "address"
        },
        {
          "internalType": "address",
          "name": "owner",
          "type": "address"
        },
        {
          "internalType": "address",
          "name": "operator",
          "type": "address"
        }
      ],
      "name": "safeIsApprovedForAll",
      "outputs": [
        {
          "internalType": "bool",
          "name": "approved",
          "type": "bool"
        }
      ],
      "stateMutability": "nonpayable",
      "type": "function"
    },
    {
      "inputs": [
        {
          "internalType": "address",
          "name": "token",
          "type": "address"
        },
        {
          "internalType": "address",
          "name": "account",
          "type": "address"
        }
      ],
      "name": "safeIsFrozen",
      "outputs": [
        {
          "internalType": "bool",
          "name": "frozen",
          "type": "bool"
        }
      ],
      "stateMutability": "nonpayable",
      "type": "function"
    },
    {
      "inputs": [
        {
          "internalType": "address",
          "name": "token",
          "type": "address"
        },
        {
          "internalType": "address",
          "name": "account",
          "type": "address"
        }
      ],
      "name": "safeIsKyc",
      "outputs": [
        {
          "internalType": "bool",
          "name": "kycGranted",
          "type": "bool"
        }
      ],
      "stateMutability": "nonpayable",
      "type": "function"
    },
    {
      "inputs": [
        {
          "internalType": "address",
          "name": "token",
          "type": "address"
        }
      ],
      "name": "safeIsToken",
      "outputs": [
        {
          "internalType": "bool",
          "name": "isToken",
          "type": "bool"
        }
      ],
      "stateMutability": "nonpayable",
      "type": "function"
    },
    {
      "inputs": [
        {
          "internalType": "address",
          "name": "token",
          "type": "address"
        },
        {
          "internalType": "int64",
          "name": "amount",
          "type": "int64"
        },
        {
          "internalType": "bytes[]",
          "name": "metadata",
          "type": "bytes[]"
        }
      ],
      "name": "safeMintToken",
      "outputs": [
        {
          "internalType": "int64",
          "name": "newTotalSupply",
          "type": "int64"
        },
        {
          "internalType": "int64[]",
          "name": "serialNumbers",
          "type": "int64[]"
        }
      ],
      "stateMutability": "nonpayable",
      "type": "function"
    },
    {
      "inputs": [
        {
          "internalType": "address",
          "name": "token",
          "type": "address"
        }
      ],
      "name": "safePauseToken",
      "outputs": [],
      "stateMutability": "nonpayable",
      "type": "function"
    },
    {
      "inputs": [
        {
          "internalType": "address",
          "name": "token",
          "type": "address"
        },
        {
          "internalType": "address",
          "name": "account",
          "type": "address"
        }
      ],
      "name": "safeRevokeTokenKyc",
      "outputs": [],
      "stateMutability": "nonpayable",
      "type": "function"
    },
    {
      "inputs": [
        {
          "internalType": "address",
          "name": "token",
          "type": "address"
        },
        {
          "internalType": "address",
          "name": "operator",
          "type": "address"
        },
        {
          "internalType": "bool",
          "name": "approved",
          "type": "bool"
        }
      ],
      "name": "safeSetApprovalForAll",
      "outputs": [],
      "stateMutability": "nonpayable",
      "type": "function"
    },
    {
      "inputs": [
        {
          "internalType": "address",
          "name": "token",
          "type": "address"
        },
        {
          "internalType": "address",
          "name": "sender",
          "type": "address"
        },
        {
          "internalType": "address",
          "name": "receiver",
          "type": "address"
        },
        {
          "internalType": "int64",
          "name": "serialNum",
          "type": "int64"
        }
      ],
      "name": "safeTransferNFT",
      "outputs": [],
      "stateMutability": "nonpayable",
      "type": "function"
    },
    {
      "inputs": [
        {
          "internalType": "address",
          "name": "token",
          "type": "address"
        },
        {
          "internalType": "address[]",
          "name": "sender",
          "type": "address[]"
        },
        {
          "internalType": "address[]",
          "name": "receiver",
          "type": "address[]"
        },
        {
          "internalType": "int64[]",
          "name": "serialNumber",
          "type": "int64[]"
        }
      ],
      "name": "safeTransferNFTs",
      "outputs": [],
      "stateMutability": "nonpayable",
      "type": "function"
    },
    {
      "inputs": [
        {
          "internalType": "address",
          "name": "token",
          "type": "address"
        },
        {
          "internalType": "address",
          "name": "sender",
          "type": "address"
        },
        {
          "internalType": "address",
          "name": "receiver",
          "type": "address"
        },
        {
          "internalType": "int64",
          "name": "amount",
          "type": "int64"
        }
      ],
      "name": "safeTransferToken",
      "outputs": [],
      "stateMutability": "nonpayable",
      "type": "function"
    },
    {
      "inputs": [
        {
          "internalType": "address",
          "name": "token",
          "type": "address"
        },
        {
          "internalType": "address[]",
          "name": "accountIds",
          "type": "address[]"
        },
        {
          "internalType": "int64[]",
          "name": "amounts",
          "type": "int64[]"
        }
      ],
      "name": "safeTransferTokens",
      "outputs": [],
      "stateMutability": "nonpayable",
      "type": "function"
    },
    {
      "inputs": [
        {
          "internalType": "address",
          "name": "token",
          "type": "address"
        },
        {
          "internalType": "address",
          "name": "account",
          "type": "address"
        }
      ],
      "name": "safeUnfreezeToken",
      "outputs": [],
      "stateMutability": "nonpayable",
      "type": "function"
    },
    {
      "inputs": [
        {
          "internalType": "address",
          "name": "token",
          "type": "address"
        }
      ],
      "name": "safeUnpauseToken",
      "outputs": [],
      "stateMutability": "nonpayable",
      "type": "function"
    },
    {
      "inputs": [
        {
          "internalType": "address",
          "name": "token",
          "type": "address"
        },
        {
          "components": [
            {
              "internalType": "int64",
              "name": "second",
              "type": "int64"
            },
            {
              "internalType": "address",
              "name": "autoRenewAccount",
              "type": "address"
            },
            {
              "internalType": "int64",
              "name": "autoRenewPeriod",
              "type": "int64"
            }
          ],
          "internalType": "struct IHederaTokenService.Expiry",
          "name": "expiryInfo",
          "type": "tuple"
        }
      ],
      "name": "safeUpdateTokenExpiryInfo",
      "outputs": [],
      "stateMutability": "nonpayable",
      "type": "function"
    },
    {
      "inputs": [
        {
          "internalType": "address",
          "name": "token",
          "type": "address"
        },
        {
          "components": [
            {
              "internalType": "string",
              "name": "name",
              "type": "string"
            },
            {
              "internalType": "string",
              "name": "symbol",
              "type": "string"
            },
            {
              "internalType": "address",
              "name": "treasury",
              "type": "address"
            },
            {
              "internalType": "string",
              "name": "memo",
              "type": "string"
            },
            {
              "internalType": "bool",
              "name": "tokenSupplyType",
              "type": "bool"
            },
            {
              "internalType": "int64",
              "name": "maxSupply",
              "type": "int64"
            },
            {
              "internalType": "bool",
              "name": "freezeDefault",
              "type": "bool"
            },
            {
              "components": [
                {
                  "internalType": "uint256",
                  "name": "keyType",
                  "type": "uint256"
                },
                {
                  "components": [
                    {
                      "internalType": "bool",
                      "name": "inheritAccountKey",
                      "type": "bool"
                    },
                    {
                      "internalType": "address",
                      "name": "contractId",
                      "type": "address"
                    },
                    {
                      "internalType": "bytes",
                      "name": "ed25519",
                      "type": "bytes"
                    },
                    {
                      "internalType": "bytes",
                      "name": "ECDSA_secp256k1",
                      "type": "bytes"
                    },
                    {
                      "internalType": "address",
                      "name": "delegatableContractId",
                      "type": "address"
                    }
                  ],
                  "internalType": "struct IHederaTokenService.KeyValue",
                  "name": "key",
                  "type": "tuple"
                }
              ],
              "internalType": "struct IHederaTokenService.TokenKey[]",
              "name": "tokenKeys",
              "type": "tuple[]"
            },
            {
              "components": [
                {
                  "internalType": "int64",
                  "name": "second",
                  "type": "int64"
                },
                {
                  "internalType": "address",
                  "name": "autoRenewAccount",
                  "type": "address"
                },
                {
                  "internalType": "int64",
                  "name": "autoRenewPeriod",
                  "type": "int64"
                }
              ],
              "internalType": "struct IHederaTokenService.Expiry",
              "name": "expiry",
              "type": "tuple"
            }
          ],
          "internalType": "struct IHederaTokenService.HederaToken",
          "name": "tokenInfo",
          "type": "tuple"
        }
      ],
      "name": "safeUpdateTokenInfo",
      "outputs": [],
      "stateMutability": "nonpayable",
      "type": "function"
    },
    {
      "inputs": [
        {
          "internalType": "address",
          "name": "token",
          "type": "address"
        },
        {
          "components": [
            {
              "internalType": "uint256",
              "name": "keyType",
              "type": "uint256"
            },
            {
              "components": [
                {
                  "internalType": "bool",
                  "name": "inheritAccountKey",
                  "type": "bool"
                },
                {
                  "internalType": "address",
                  "name": "contractId",
                  "type": "address"
                },
                {
                  "internalType": "bytes",
                  "name": "ed25519",
                  "type": "bytes"
                },
                {
                  "internalType": "bytes",
                  "name": "ECDSA_secp256k1",
                  "type": "bytes"
                },
                {
                  "internalType": "address",
                  "name": "delegatableContractId",
                  "type": "address"
                }
              ],
              "internalType": "struct IHederaTokenService.KeyValue",
              "name": "key",
              "type": "tuple"
            }
          ],
          "internalType": "struct IHederaTokenService.TokenKey[]",
          "name": "keys",
          "type": "tuple[]"
        }
      ],
      "name": "safeUpdateTokenKeys",
      "outputs": [],
      "stateMutability": "nonpayable",
      "type": "function"
    },
    {
      "inputs": [
        {
          "internalType": "address",
          "name": "token",
          "type": "address"
        },
        {
          "internalType": "address",
          "name": "account",
          "type": "address"
        },
        {
          "internalType": "int64",
          "name": "amount",
          "type": "int64"
        }
      ],
      "name": "safeWipeTokenAccount",
      "outputs": [],
      "stateMutability": "nonpayable",
      "type": "function"
    },
    {
      "inputs": [
        {
          "internalType": "address",
          "name": "token",
          "type": "address"
        },
        {
          "internalType": "address",
          "name": "account",
          "type": "address"
        },
        {
          "internalType": "int64[]",
          "name": "serialNumbers",
          "type": "int64[]"
        }
      ],
      "name": "safeWipeTokenAccountNFT",
      "outputs": [],
      "stateMutability": "nonpayable",
      "type": "function"
    }
  ],
  "bytecode": "0x608060405234801561001057600080fd5b506149bb806100206000396000f3fe6080604052600436106102c25760003560e01c806368b03db81161017f578063978df2a2116100e1578063cf58c3ea1161008a578063eb5625d911610064578063eb5625d914610882578063eccc07c6146108a2578063ed02ae71146108c257600080fd5b8063cf58c3ea1461083a578063dfb3bfc41461085a578063e1e787841461087a57600080fd5b8063b8a39cdd116100bb578063b8a39cdd146107cc578063ba2ad973146107ec578063be83aa991461081a57600080fd5b8063978df2a2146107795780639c7e98d0146107995780639d632dc6146107b957600080fd5b80637c6c6a8411610143578063894c66531161011d578063894c6653146107195780638d1433dd1461073957806394f74f3e1461075957600080fd5b80637c6c6a84146106b957806382ddffbf146106d957806387e6877c146106f957600080fd5b806368b03db8146106195780636e4333fd146106445780636efe63a514610671578063705314a01461069157806371e3ecb3146106b157600080fd5b80633e54fba81161022857806349c8532b116101ec57806354a0b16c116101c657806354a0b16c1461059957806355caeb09146105c6578063587da69a146105f957600080fd5b806349c8532b146105395780634ddd613b146105595780635140d67d1461057957600080fd5b80633e54fba81461046e578063421d02281461049e57806344f8e471146104cc57806348b14613146104f95780634959707b1461051957600080fd5b80631e4b26541161028a5780632ad145af116102645780632ad145af146103ff57806330d2a9f21461041f5780633364596e1461043f57600080fd5b80631e4b26541461038c5780631ffbb8d7146103ac57806327a84817146103cc57600080fd5b8063042a34b8146102c757806305923cee146102fd578063067fa1221461031f57806312d4da5e1461034c57806319cdce7e1461036c575b600080fd5b3480156102d357600080fd5b506102e76102e23660046122e3565b6108e2565b6040516102f4919061278e565b60405180910390f35b34801561030957600080fd5b5061031d6103183660046127dd565b6109a7565b005b34801561032b57600080fd5b5061033f61033a3660046122e3565b610a2a565b6040516102f49190612828565b34801561035857600080fd5b5061031d610367366004612bcc565b610ae3565b34801561037857600080fd5b5061031d6103873660046122e3565b610b50565b34801561039857600080fd5b5061031d6103a73660046127dd565b610bbf565b3480156103b857600080fd5b5061031d6103c7366004612d14565b610c11565b3480156103d857600080fd5b506103ec6103e7366004612db1565b610c59565b60405160079190910b81526020016102f4565b34801561040b57600080fd5b5061031d61041a366004612d14565b610ce0565b34801561042b57600080fd5b5061031d61043a366004612eca565b610d28565b34801561044b57600080fd5b5061045f61045a3660046122e3565b610d5f565b6040516102f493929190613099565b34801561047a57600080fd5b5061048e6104893660046130d2565b610df3565b60405190151581526020016102f4565b3480156104aa57600080fd5b506104be6104b9366004613112565b610e82565b6040516102f49291906131ea565b3480156104d857600080fd5b506104ec6104e736600461323f565b610f12565b6040516102f4919061326b565b34801561050557600080fd5b5061031d61051436600461327e565b610fe6565b34801561052557600080fd5b5061048e610534366004612d14565b611036565b34801561054557600080fd5b5061031d6105543660046132be565b6110be565b34801561056557600080fd5b5061048e6105743660046122e3565b61114a565b34801561058557600080fd5b5061048e610594366004612d14565b6111d0565b3480156105a557600080fd5b506105b96105b436600461331a565b61121b565b6040516102f49190613348565b3480156105d257600080fd5b506105e66105e13660046122e3565b6112ad565b60405160039190910b81526020016102f4565b34801561060557600080fd5b5061031d6106143660046132be565b61132c565b61062c610627366004612d14565b611386565b6040516001600160a01b0390911681526020016102f4565b34801561065057600080fd5b5061066461065f3660046122e3565b611491565b6040516102f491906133cc565b34801561067d57600080fd5b5061031d61068c366004613400565b611526565b34801561069d57600080fd5b5061031d6106ac366004613494565b611561565b61062c61159a565b3480156106c557600080fd5b5061031d6106d43660046134e4565b6116b0565b3480156106e557600080fd5b5061031d6106f4366004612d14565b6116ed565b34801561070557600080fd5b5061031d610714366004613494565b611735565b34801561072557600080fd5b5061031d6107343660046122e3565b61176e565b34801561074557600080fd5b5061048e6107543660046122e3565b6117ae565b34801561076557600080fd5b5061031d610774366004612d14565b6117f1565b34801561078557600080fd5b5061062c61079436600461331a565b611839565b3480156107a557600080fd5b5061031d6107b4366004612d14565b6118c2565b61062c6107c7366004612d14565b61190a565b3480156107d857600080fd5b5061031d6107e736600461357f565b611a78565b3480156107f857600080fd5b5061080c6108073660046130d2565b611ab1565b6040519081526020016102f4565b34801561082657600080fd5b5061031d6108353660046135b5565b611b40565b34801561084657600080fd5b5061031d6108553660046122e3565b611b7b565b34801561086657600080fd5b5061048e6108753660046122e3565b611bbb565b61062c611bfe565b34801561088e57600080fd5b5061031d61089d366004613621565b611cf0565b3480156108ae57600080fd5b5061031d6108bd366004612d14565b611d3f565b3480156108ce57600080fd5b5061031d6108dd366004613662565b611d87565b6108ea6121a2565b6040516285469760e31b81526001600160a01b038316600482015273__$64a275930a611d2694d2a05feb4a8b2aa0$__9063042a34b890602401600060405180830381865af4158015610941573d6000803e3d6000fd5b505050506040513d6000823e601f3d908101601f191682016040526109699190810190613d88565b90507f7f7b8516e7531232cb589acb38a8b5b904865145667f48fe2ed0623a86e4a1f08160405161099a919061278e565b60405180910390a1919050565b6040516302c91e7760e11b81526001600160a01b03808516600483015283166024820152600782900b604482015273__$64a275930a611d2694d2a05feb4a8b2aa0$__906305923cee906064015b60006040518083038186803b158015610a0d57600080fd5b505af4158015610a21573d6000803e3d6000fd5b50505050505050565b610a326121c2565b60405163033fd09160e11b81526001600160a01b038316600482015273__$64a275930a611d2694d2a05feb4a8b2aa0$__9063067fa12290602401600060405180830381865af4158015610a8a573d6000803e3d6000fd5b505050506040513d6000823e601f3d908101601f19168201604052610ab29190810190613e06565b90507f0ec0178c2674bea6c710e3ebf8acac901f6be0d51ab96110959e01fb1b223b278160405161099a9190612828565b6040516367ac845360e01b815273__$64a275930a611d2694d2a05feb4a8b2aa0$__906367ac845390610b1c9085908590600401613fbb565b60006040518083038186803b158015610b3457600080fd5b505af4158015610b48573d6000803e3d6000fd5b505050505050565b604051630ce6e73f60e11b81526001600160a01b038216600482015273__$64a275930a611d2694d2a05feb4a8b2aa0$__906319cdce7e906024015b60006040518083038186803b158015610ba457600080fd5b505af4158015610bb8573d6000803e3d6000fd5b5050505050565b604051630792c99560e21b81526001600160a01b03808516600483015283166024820152600782900b604482015273__$64a275930a611d2694d2a05feb4a8b2aa0$__90631e4b2654906064016109f5565b604051631ffbb8d760e01b81526001600160a01b0380841660048301528216602482015273__$64a275930a611d2694d2a05feb4a8b2aa0$__90631ffbb8d790604401610b1c565b6040516327a8481760e01b815260009073__$64a275930a611d2694d2a05feb4a8b2aa0$__906327a8481790610c9790879087908790600401614010565b602060405180830381865af4158015610cb4573d6000803e3d6000fd5b505050506040513d601f19601f82011682018060405250810190610cd8919061403b565b949350505050565b604051632ad145af60e01b81526001600160a01b0380831660048301528316602482015273__$64a275930a611d2694d2a05feb4a8b2aa0$__90632ad145af90604401610b1c565b604051630962e27b60e01b815273__$64a275930a611d2694d2a05feb4a8b2aa0$__90630962e27b90610b8c9084906004016140b9565b6040516319b22cb760e11b81526001600160a01b03821660048201526060908190819073__$64a275930a611d2694d2a05feb4a8b2aa0$__90633364596e90602401600060405180830381865af4158015610dbe573d6000803e3d6000fd5b505050506040513d6000823e601f3d908101601f19168201604052610de69190810190614190565b9196909550909350915050565b6040516307ca9f7560e31b81526001600160a01b03808516600483015280841660248301528216604482015260009073__$64a275930a611d2694d2a05feb4a8b2aa0$__90633e54fba890606401602060405180830381865af4158015610e5e573d6000803e3d6000fd5b505050506040513d601f19601f82011682018060405250810190610cd8919061420e565b6000606073__$64a275930a611d2694d2a05feb4a8b2aa0$__63421d02288686866040518463ffffffff1660e01b8152600401610ec19392919061422b565b600060405180830381865af4158015610ede573d6000803e3d6000fd5b505050506040513d6000823e601f3d908101601f19168201604052610f0691908101906142a8565b90969095509350505050565b610f586040518060a0016040528060001515815260200160006001600160a01b03168152602001606081526020016060815260200160006001600160a01b031681525090565b6040516344f8e47160e01b81526001600160a01b03841660048201526024810183905273__$64a275930a611d2694d2a05feb4a8b2aa0$__906344f8e47190604401600060405180830381865af4158015610fb7573d6000803e3d6000fd5b505050506040513d6000823e601f3d908101601f19168201604052610fdf9190810190614359565b9392505050565b6040516348b1461360e01b81526001600160a01b03808516600483015283166024820152811515604482015273__$64a275930a611d2694d2a05feb4a8b2aa0$__906348b14613906064016109f5565b604051634959707b60e01b81526001600160a01b0380841660048301528216602482015260009073__$64a275930a611d2694d2a05feb4a8b2aa0$__90634959707b906044015b602060405180830381865af415801561109a573d6000803e3d6000fd5b505050506040513d601f19601f82011682018060405250810190610fdf919061420e565b6040516349c8532b60e01b81526001600160a01b038086166004830152808516602483015283166044820152600782900b606482015273__$64a275930a611d2694d2a05feb4a8b2aa0$__906349c8532b906084015b60006040518083038186803b15801561112c57600080fd5b505af4158015611140573d6000803e3d6000fd5b5050505050505050565b604051634ddd613b60e01b81526001600160a01b038216600482015260009073__$64a275930a611d2694d2a05feb4a8b2aa0$__90634ddd613b906024015b602060405180830381865af41580156111a6573d6000803e3d6000fd5b505050506040513d601f19601f820116820180604052508101906111ca919061420e565b92915050565b604051635140d67d60e01b81526001600160a01b0380841660048301528216602482015260009073__$64a275930a611d2694d2a05feb4a8b2aa0$__90635140d67d9060440161107d565b61122361221d565b6040516315282c5b60e21b81526001600160a01b0384166004820152600783900b602482015273__$64a275930a611d2694d2a05feb4a8b2aa0$__906354a0b16c90604401600060405180830381865af4158015611285573d6000803e3d6000fd5b505050506040513d6000823e601f3d908101601f19168201604052610fdf919081019061438e565b6040516355caeb0960e01b81526001600160a01b038216600482015260009073__$64a275930a611d2694d2a05feb4a8b2aa0$__906355caeb0990602401602060405180830381865af4158015611308573d6000803e3d6000fd5b505050506040513d601f19601f820116820180604052508101906111ca9190614463565b604051632c3ed34d60e11b81526001600160a01b038086166004830152808516602483015283166044820152600782900b606482015273__$64a275930a611d2694d2a05feb4a8b2aa0$__9063587da69a90608401611114565b6000611390612258565b6040805180820182526009815268746f6b656e4e616d6560b81b60208083019190915290835281518083018352600b81526a1d1bdad95b94de5b589bdb60aa1b8183015290830152309082015260006113eb60018587611dc0565b9050600061140260046005600a601e60018b611f48565b6040516341e3eeab60e01b815290915073__$64a275930a611d2694d2a05feb4a8b2aa0$__906341e3eeab9061144690869060c890600890889088906004016144f9565b602060405180830381865af4158015611463573d6000803e3d6000fd5b505050506040513d601f19601f8201168201806040525081019061148791906145cc565b9695505050505050565b60408051606081018252600080825260208201819052818301529051636e4333fd60e01b81526001600160a01b038316600482015273__$64a275930a611d2694d2a05feb4a8b2aa0$__90636e4333fd90602401606060405180830381865af4158015611502573d6000803e3d6000fd5b505050506040513d601f19601f820116820180604052508101906111ca91906145e9565b604051636efe63a560e01b815273__$64a275930a611d2694d2a05feb4a8b2aa0$__90636efe63a5906109f590869086908690600401614605565b60405163038298a560e51b815273__$64a275930a611d2694d2a05feb4a8b2aa0$__9063705314a090610b1c908590859060040161466a565b60006115a4612258565b6040805180820182526009815268746f6b656e4e616d6560b81b60208083019190915290835281518083018352600b81526a1d1bdad95b94de5b589bdb60aa1b81830152908301523082820152516302004ccd60e01b815273__$64a275930a611d2694d2a05feb4a8b2aa0$__906302004ccd9061162c90849060c89060089060040161468c565b602060405180830381865af4158015611649573d6000803e3d6000fd5b505050506040513d601f19601f8201168201806040525081019061166d91906145cc565b6040516001600160a01b03821681529092507f2e2b3f61b70d2d131b2a807371103cc98d51adcaa5e9a8f9c32658ad8426e74e9060200160405180910390a15090565b604051631f1b1aa160e21b815273__$64a275930a611d2694d2a05feb4a8b2aa0$__90637c6c6a84906111149087908790879087906004016146bb565b6040516382ddffbf60e01b81526001600160a01b0380841660048301528216602482015273__$64a275930a611d2694d2a05feb4a8b2aa0$__906382ddffbf90604401610b1c565b6040516321f9a1df60e21b815273__$64a275930a611d2694d2a05feb4a8b2aa0$__906387e6877c90610b1c908590859060040161466a565b60405163894c665360e01b81526001600160a01b038216600482015273__$64a275930a611d2694d2a05feb4a8b2aa0$__9063894c665390602401610b8c565b604051638d1433dd60e01b81526001600160a01b038216600482015260009073__$64a275930a611d2694d2a05feb4a8b2aa0$__90638d1433dd90602401611189565b604051634a7ba79f60e11b81526001600160a01b0380841660048301528216602482015273__$64a275930a611d2694d2a05feb4a8b2aa0$__906394f74f3e90604401610b1c565b604051634bc6f95160e11b81526001600160a01b0383166004820152600782900b602482015260009073__$64a275930a611d2694d2a05feb4a8b2aa0$__9063978df2a290604401602060405180830381865af415801561189e573d6000803e3d6000fd5b505050506040513d601f19601f82011682018060405250810190610fdf91906145cc565b6040516309c7e98d60e41b81526001600160a01b0380831660048301528316602482015273__$64a275930a611d2694d2a05feb4a8b2aa0$__90639c7e98d090604401610b1c565b6000611914612258565b6040805180820182526009815268746f6b656e4e616d6560b81b60208083019190915290835281518083018352600b81526a1d1bdad95b94de5b589bdb60aa1b8183015283820152815180830183526004808252636d656d6f60e01b9282019290925260608401523091830191909152600090611996906005600a8789612010565b905073__$64a275930a611d2694d2a05feb4a8b2aa0$__63ccc261fe836000604051908082528060200260200182016040528015611a0e57816020015b6040805160a0810182526000808252602080830182905292820181905260608201819052608082015282526000199092019101816119d35790505b50846040518463ffffffff1660e01b8152600401611a2e9392919061470e565b602060405180830381865af4158015611a4b573d6000803e3d6000fd5b505050506040513d601f19601f82011682018060405250810190611a6f91906145cc565b95945050505050565b6040516310e9065560e01b815273__$64a275930a611d2694d2a05feb4a8b2aa0$__906310e9065590610b1c90859085906004016147c2565b60405163ba2ad97360e01b81526001600160a01b03808516600483015280841660248301528216604482015260009073__$64a275930a611d2694d2a05feb4a8b2aa0$__9063ba2ad97390606401602060405180830381865af4158015611b1c573d6000803e3d6000fd5b505050506040513d601f19601f82011682018060405250810190610cd89190614805565b60405163be83aa9960e01b815273__$64a275930a611d2694d2a05feb4a8b2aa0$__9063be83aa99906109f59086908690869060040161481e565b6040516367ac61f560e11b81526001600160a01b038216600482015273__$64a275930a611d2694d2a05feb4a8b2aa0$__9063cf58c3ea90602401610b8c565b6040516337eceff160e21b81526001600160a01b038216600482015260009073__$64a275930a611d2694d2a05feb4a8b2aa0$__9063dfb3bfc490602401611189565b6000611c08612258565b6040805180820182526009815268746f6b656e4e616d6560b81b60208083019190915290835281518083018352600b81526a1d1bdad95b94de5b589bdb60aa1b8183015283820152815180830183526004808252636d656d6f60e01b9282019290925260608401523083830152905163910f271160e01b815273__$64a275930a611d2694d2a05feb4a8b2aa0$__9163910f271191611ca991859101614852565b602060405180830381865af4158015611cc6573d6000803e3d6000fd5b505050506040513d601f19601f82011682018060405250810190611cea91906145cc565b91505090565b60405163eb5625d960e01b81526001600160a01b038085166004830152831660248201526044810182905273__$64a275930a611d2694d2a05feb4a8b2aa0$__9063eb5625d9906064016109f5565b60405163766603e360e11b81526001600160a01b0380841660048301528216602482015273__$64a275930a611d2694d2a05feb4a8b2aa0$__9063eccc07c690604401610b1c565b604051634e03000f60e01b815273__$64a275930a611d2694d2a05feb4a8b2aa0$__90634e03000f90610b1c9085908590600401614865565b60408051600380825260808201909252606091816020015b6040805160a081018252600080825260208083018290529282018190526060820181905260808201528252600019909201910181611dd85750506040805160a081018252600091810182905260608101829052600387900b81526001600160a01b03868116602083015285166080820152919250611e92611e5a87600261493a565b856040805160a081018252600060208201819052606082015260039390930b83526001908301526001600160a01b0316608082015290565b90506000611edf611ea488600461493a565b866040805160a0810182526000602082018190529181019190915260039290920b8252600160608301526001600160a01b0316608082015290565b90508284600081518110611ef557611ef561496f565b60200260200101819052508184600181518110611f1457611f1461496f565b60200260200101819052508084600281518110611f3357611f3361496f565b60200260200101819052505050509392505050565b604080516001808252818301909252606091816020015b6040805160c08101825260008082526020808301829052928201819052606082018190526080820181905260a08201528252600019909201910181611f5f5750506040805160c08101825260038a810b825289810b602083015288810b928201929092529086900b606082015284151560808201526001600160a01b03841660a08201529091508082600081518110611ffa57611ffa61496f565b6020026020010181905250509695505050505050565b60408051600380825260808201909252606091816020015b6040805160c08101825260008082526020808301829052928201819052606082018190526080820181905260a082015282526000199092019101816120285750506040805160c08101825260009181018290526060810182905260808101829052600389810b825288900b60208201526001600160a01b03851660a0820152919250906040805160c08101825260038a810b825289810b602083015288900b91810191909152600060608201819052600160808301526001600160a01b03861660a08301529192506040805160c08101825260038b810b82528a810b602083015289900b918101919091526001600160a01b03808816606083015260006080830181905290871660a08301529192509050828460008151811061214d5761214d61496f565b6020026020010181905250818460018151811061216c5761216c61496f565b6020026020010181905250808460028151811061218b5761218b61496f565b602002602001018190525050505095945050505050565b60405180604001604052806121b56121c2565b8152600060209091015290565b6040518061012001604052806121d6612258565b8152602001600060070b8152602001600015158152602001600015158152602001600015158152602001606081526020016060815260200160608152602001606081525090565b6040518060c001604052806122306121c2565b8152600060208201819052604082018190526060808301829052608083015260a09091015290565b60408051610120810182526060808252602080830182905260008385018190528284018390526080840181905260a0840181905260c0840181905260e0840183905284519283018552808352908201819052928101929092529061010082015290565b6001600160a01b03811681146122d057600080fd5b50565b80356122de816122bb565b919050565b6000602082840312156122f557600080fd5b8135610fdf816122bb565b60005b8381101561231b578181015183820152602001612303565b50506000910152565b6000815180845261233c816020860160208601612300565b601f01601f19169290920160200192915050565b805115158252600060208201516001600160a01b0380821660208601526040840151915060a0604086015261238860a0860183612324565b9150606084015185830360608701526123a18382612324565b925050806080850151166080860152508091505092915050565b600082825180855260208086019550808260051b84010181860160005b8481101561241a57858303601f19018952815180518452840151604085850181905261240681860183612350565b9a86019a94505050908301906001016123d8565b5090979650505050505050565b6000610160825181855261243d82860182612324565b915050602083015184820360208601526124578282612324565b915050604083015161247460408601826001600160a01b03169052565b506060830151848203606086015261248c8282612324565b91505060808301516124a2608086018215159052565b5060a08301516124b760a086018260070b9052565b5060c08301516124cb60c086018215159052565b5060e083015184820360e08601526124e382826123bb565b9150506101008084015161251f82870182805160070b82526001600160a01b036020820151166020830152604081015160070b60408301525050565b5090949350505050565b600081518084526020808501945080840160005b838110156125a457612591878351805160070b825260208101516001600160a01b03808216602085015260408301511515604085015260608301511515606085015280608084015116608085015250505050565b60a096909601959082019060010161253d565b509495945050505050565b600081518084526020808501945080840160005b838110156125a457612622878351805160070b8252602081015160070b6020830152604081015160070b6040830152606081015160070b60608301526080810151151560808301526001600160a01b0360a08201511660a08301525050565b60c09690960195908201906001016125c3565b600081518084526020808501945080840160005b838110156125a4576126ab878351805160070b8252602081015160070b6020830152604081015160070b604083015260608101516001600160a01b0380821660608501526080830151151560808501528060a08401511660a085015250505050565b60c0969096019590820190600101612649565b600061012082518185526126d482860182612427565b91505060208301516126eb602086018260070b9052565b5060408301516126ff604086018215159052565b506060830151612713606086018215159052565b506080830151612727608086018215159052565b5060a083015184820360a086015261273f8282612529565b91505060c083015184820360c086015261275982826125af565b91505060e083015184820360e08601526127738282612635565b91505061010080840151858303828701526114878382612324565b6020815260008251604060208401526127aa60608401826126be565b9050602084015160030b60408401528091505092915050565b8060070b81146122d057600080fd5b80356122de816127c3565b6000806000606084860312156127f257600080fd5b83356127fd816122bb565b9250602084013561280d816122bb565b9150604084013561281d816127c3565b809150509250925092565b602081526000610fdf60208301846126be565b634e487b7160e01b600052604160045260246000fd5b6040805190810167ffffffffffffffff811182821017156128745761287461283b565b60405290565b60405160a0810167ffffffffffffffff811182821017156128745761287461283b565b6040516060810167ffffffffffffffff811182821017156128745761287461283b565b604051610120810167ffffffffffffffff811182821017156128745761287461283b565b6040516080810167ffffffffffffffff811182821017156128745761287461283b565b60405160c0810167ffffffffffffffff811182821017156128745761287461283b565b604051601f8201601f1916810167ffffffffffffffff811182821017156129535761295361283b565b604052919050565b600067ffffffffffffffff8211156129755761297561283b565b50601f01601f191660200190565b600082601f83011261299457600080fd5b81356129a76129a28261295b565b61292a565b8181528460208386010111156129bc57600080fd5b816020850160208301376000918101602001919091529392505050565b80151581146122d057600080fd5b80356122de816129d9565b600067ffffffffffffffff821115612a0c57612a0c61283b565b5060051b60200190565b600082601f830112612a2757600080fd5b81356020612a376129a2836129f2565b82815260059290921b84018101918181019086841115612a5657600080fd5b8286015b84811015612b6c57803567ffffffffffffffff80821115612a7a57600080fd5b908801906040601f19838c038101821315612a9457600080fd5b612a9c612851565b8885013581528285013584811115612ab357600080fd5b949094019360a0858e0383011215612acb5760008081fd5b612ad361287a565b915088850135612ae2816129d9565b825284830135612af1816122bb565b828a015260608581013585811115612b095760008081fd5b612b178f8c838a0101612983565b8585015250608093508386013585811115612b325760008081fd5b612b408f8c838a0101612983565b828501525050612b5260a086016122d3565b928201929092528188015285525050918301918301612a5a565b509695505050505050565b600060608284031215612b8957600080fd5b612b9161289d565b90508135612b9e816127c3565b81526020820135612bae816122bb565b60208201526040820135612bc1816127c3565b604082015292915050565b60008060408385031215612bdf57600080fd5b8235612bea816122bb565b9150602083013567ffffffffffffffff80821115612c0757600080fd5b908401906101608287031215612c1c57600080fd5b612c246128c0565b823582811115612c3357600080fd5b612c3f88828601612983565b825250602083013582811115612c5457600080fd5b612c6088828601612983565b602083015250612c72604084016122d3565b6040820152606083013582811115612c8957600080fd5b612c9588828601612983565b606083015250612ca7608084016129e7565b6080820152612cb860a084016127d2565b60a0820152612cc960c084016129e7565b60c082015260e083013582811115612ce057600080fd5b612cec88828601612a16565b60e0830152506101009150612d0387838501612b77565b828201528093505050509250929050565b60008060408385031215612d2757600080fd5b8235612d32816122bb565b91506020830135612d42816122bb565b809150509250929050565b600082601f830112612d5e57600080fd5b81356020612d6e6129a2836129f2565b82815260059290921b84018101918181019086841115612d8d57600080fd5b8286015b84811015612b6c578035612da4816127c3565b8352918301918301612d91565b600080600060608486031215612dc657600080fd5b8335612dd1816122bb565b92506020840135612de1816127c3565b9150604084013567ffffffffffffffff811115612dfd57600080fd5b612e0986828701612d4d565b9150509250925092565b600082601f830112612e2457600080fd5b81356020612e346129a2836129f2565b82815260079290921b84018101918181019086841115612e5357600080fd5b8286015b84811015612b6c5760808189031215612e705760008081fd5b612e786128e4565b8135612e83816122bb565b815281850135612e92816122bb565b81860152604082810135612ea5816127c3565b90820152606082810135612eb8816129d9565b90820152835291830191608001612e57565b600060208284031215612edc57600080fd5b67ffffffffffffffff8083351115612ef357600080fd5b8235830184601f820112612f0657600080fd5b612f136129a282356129f2565b81358082526020808301929160051b840101871015612f3157600080fd5b602083015b6020843560051b850101811015612b6c578481351115612f5557600080fd5b803584016060818a03601f19011215612f6d57600080fd5b612f7561289d565b612f8260208301356122bb565b602082013581528660408301351115612f9a57600080fd5b604082013582018a603f820112612fb057600080fd5b612fc06129a260208301356129f2565b602082810135808352908201919060600283016040018d811115612fe357600080fd5b6040840193505b80841015613059576060848f03121561300257600080fd5b61300a61289d565b61301485356122bb565b8435815261302560208601356127c3565b6020850135602082015261303c60408601356129d9565b604085810135908201528352606090930192602090920191612fea565b5060208401525050606082013587101561307257600080fd5b6130858a60206060850135850101612e13565b604082015284525060209283019201612f36565b6060815260006130ac6060830186612529565b82810360208401526130be81866125af565b905082810360408401526114878185612635565b6000806000606084860312156130e757600080fd5b83356130f2816122bb565b92506020840135613102816122bb565b9150604084013561281d816122bb565b60008060006060848603121561312757600080fd5b8335613132816122bb565b9250602084810135613143816127c3565b9250604085013567ffffffffffffffff8082111561316057600080fd5b818701915087601f83011261317457600080fd5b81356131826129a2826129f2565b81815260059190911b8301840190848101908a8311156131a157600080fd5b8585015b838110156131d9578035858111156131bd5760008081fd5b6131cb8d89838a0101612983565b8452509186019186016131a5565b508096505050505050509250925092565b600060408201600785810b84526020604081860152828651808552606087019150828801945060005b81811015613231578551850b83529483019491830191600101613213565b509098975050505050505050565b6000806040838503121561325257600080fd5b823561325d816122bb565b946020939093013593505050565b602081526000610fdf6020830184612350565b60008060006060848603121561329357600080fd5b833561329e816122bb565b925060208401356132ae816122bb565b9150604084013561281d816129d9565b600080600080608085870312156132d457600080fd5b84356132df816122bb565b935060208501356132ef816122bb565b925060408501356132ff816122bb565b9150606085013561330f816127c3565b939692955090935050565b6000806040838503121561332d57600080fd5b8235613338816122bb565b91506020830135612d42816127c3565b602081526000825160c0602084015261336460e08401826126be565b9050602084015160070b604084015260408401516001600160a01b038082166060860152606086015160070b608086015260808601519150601f198584030160a08601526133b28383612324565b92508060a08701511660c086015250508091505092915050565b606081016111ca8284805160070b82526001600160a01b036020820151166020830152604081015160070b60408301525050565b60008060006060848603121561341557600080fd5b8335613420816122bb565b92506020840135612de1816122bb565b600082601f83011261344157600080fd5b813560206134516129a2836129f2565b82815260059290921b8401810191818101908684111561347057600080fd5b8286015b84811015612b6c578035613487816122bb565b8352918301918301613474565b600080604083850312156134a757600080fd5b82356134b2816122bb565b9150602083013567ffffffffffffffff8111156134ce57600080fd5b6134da85828601613430565b9150509250929050565b600080600080608085870312156134fa57600080fd5b8435613505816122bb565b9350602085013567ffffffffffffffff8082111561352257600080fd5b61352e88838901613430565b9450604087013591508082111561354457600080fd5b61355088838901613430565b9350606087013591508082111561356657600080fd5b5061357387828801612d4d565b91505092959194509250565b6000806080838503121561359257600080fd5b823561359d816122bb565b91506135ac8460208501612b77565b90509250929050565b6000806000606084860312156135ca57600080fd5b83356135d5816122bb565b9250602084013567ffffffffffffffff808211156135f257600080fd5b6135fe87838801613430565b9350604086013591508082111561361457600080fd5b50612e0986828701612d4d565b60008060006060848603121561363657600080fd5b8335613641816122bb565b92506020840135613651816122bb565b929592945050506040919091013590565b6000806040838503121561367557600080fd5b8235613680816122bb565b9150602083013567ffffffffffffffff81111561369c57600080fd5b6134da85828601612a16565b600082601f8301126136b957600080fd5b81516136c76129a28261295b565b8181528460208386010111156136dc57600080fd5b610cd8826020830160208701612300565b80516122de816122bb565b80516122de816129d9565b80516122de816127c3565b600060a0828403121561372057600080fd5b61372861287a565b90508151613735816129d9565b81526020820151613745816122bb565b6020820152604082015167ffffffffffffffff8082111561376557600080fd5b613771858386016136a8565b6040840152606084015191508082111561378a57600080fd5b50613797848285016136a8565b60608301525060808201516137ab816122bb565b608082015292915050565b600082601f8301126137c757600080fd5b815160206137d76129a2836129f2565b82815260059290921b840181019181810190868411156137f657600080fd5b8286015b84811015612b6c57805167ffffffffffffffff8082111561381b5760008081fd5b908801906040828b03601f19018113156138355760008081fd5b61383d612851565b8388015181529083015190828211156138565760008081fd5b6138648c898487010161370e565b8189015286525050509183019183016137fa565b60006060828403121561388a57600080fd5b61389261289d565b9050815161389f816127c3565b815260208201516138af816122bb565b60208201526040820151612bc1816127c3565b600061016082840312156138d557600080fd5b6138dd6128c0565b9050815167ffffffffffffffff808211156138f757600080fd5b613903858386016136a8565b8352602084015191508082111561391957600080fd5b613925858386016136a8565b6020840152613936604085016136ed565b6040840152606084015191508082111561394f57600080fd5b61395b858386016136a8565b606084015261396c608085016136f8565b608084015261397d60a08501613703565b60a084015261398e60c085016136f8565b60c084015260e08401519150808211156139a757600080fd5b506139b4848285016137b6565b60e0830152506101006139c984828501613878565b9082015292915050565b600082601f8301126139e457600080fd5b815160206139f46129a2836129f2565b82815260a09283028501820192828201919087851115613a1357600080fd5b8387015b8581101561241a5781818a031215613a2f5760008081fd5b613a3761287a565b8151613a42816127c3565b815281860151613a51816122bb565b81870152604082810151613a64816129d9565b90820152606082810151613a77816129d9565b90820152608082810151613a8a816122bb565b908201528452928401928101613a17565b600082601f830112613aac57600080fd5b81516020613abc6129a2836129f2565b82815260c09283028501820192828201919087851115613adb57600080fd5b8387015b8581101561241a5781818a031215613af75760008081fd5b613aff612907565b8151613b0a816127c3565b815281860151613b19816127c3565b81870152604082810151613b2c816127c3565b90820152606082810151613b3f816127c3565b90820152608082810151613b52816129d9565b9082015260a082810151613b65816122bb565b908201528452928401928101613adf565b600082601f830112613b8757600080fd5b81516020613b976129a2836129f2565b82815260c09283028501820192828201919087851115613bb657600080fd5b8387015b8581101561241a5781818a031215613bd25760008081fd5b613bda612907565b8151613be5816127c3565b815281860151613bf4816127c3565b81870152604082810151613c07816127c3565b90820152606082810151613c1a816122bb565b90820152608082810151613c2d816129d9565b9082015260a082810151613c40816122bb565b908201528452928401928101613bba565b60006101208284031215613c6457600080fd5b613c6c6128c0565b9050815167ffffffffffffffff80821115613c8657600080fd5b613c92858386016138c2565b8352613ca060208501613703565b6020840152613cb1604085016136f8565b6040840152613cc2606085016136f8565b6060840152613cd3608085016136f8565b608084015260a0840151915080821115613cec57600080fd5b613cf8858386016139d3565b60a084015260c0840151915080821115613d1157600080fd5b613d1d85838601613a9b565b60c084015260e0840151915080821115613d3657600080fd5b613d4285838601613b76565b60e084015261010091508184015181811115613d5d57600080fd5b613d69868287016136a8565b8385015250505092915050565b8051600381900b81146122de57600080fd5b600060208284031215613d9a57600080fd5b815167ffffffffffffffff80821115613db257600080fd5b9083019060408286031215613dc657600080fd5b613dce612851565b825182811115613ddd57600080fd5b613de987828601613c51565b825250613df860208401613d76565b602082015295945050505050565b600060208284031215613e1857600080fd5b815167ffffffffffffffff811115613e2f57600080fd5b610cd884828501613c51565b600081518084526020808501808196508360051b8101915082860160005b85811015613ef25782840389528151604081518652868201519150808787015281511515818701528682015160606001600160a01b03808316828a015283850151935060a09250608083818b0152613eb460e08b0186612324565b928601518a8403603f1901858c0152929450613ed08584612324565b9501511660c09890980197909752505098850198935090840190600101613e59565b5091979650505050505050565b60006101608251818552613f1582860182612324565b91505060208301518482036020860152613f2f8282612324565b9150506040830151613f4c60408601826001600160a01b03169052565b5060608301518482036060860152613f648282612324565b9150506080830151613f7a608086018215159052565b5060a0830151613f8f60a086018260070b9052565b5060c0830151613fa360c086018215159052565b5060e083015184820360e08601526124e38282613e3b565b6001600160a01b0383168152604060208201526000610cd86040830184613eff565b600081518084526020808501945080840160005b838110156125a457815160070b87529582019590820190600101613ff1565b6001600160a01b03841681528260070b6020820152606060408201526000611a6f6060830184613fdd565b60006020828403121561404d57600080fd5b8151610fdf816127c3565b600081518084526020808501945080840160005b838110156125a457815180516001600160a01b03908116895284820151168489015260408082015160070b908901526060908101511515908801526080909601959082019060010161406c565b60006020808301818452808551808352604092508286019150828160051b87010184880160005b8381101561323157603f19898403018552815160608085016001600160a01b038084511687528a840151838c89015282815180855260808a0191508d83019450600092505b8083101561415d5784518051851683528e81015160070b8f8401528d015115158d830152938d01936001929092019190850190614125565b50948b0151888603898d0152946141748187614058565b9a8d019a98505050948a019450505060019190910190506140e0565b6000806000606084860312156141a557600080fd5b835167ffffffffffffffff808211156141bd57600080fd5b6141c9878388016139d3565b945060208601519150808211156141df57600080fd5b6141eb87838801613a9b565b9350604086015191508082111561420157600080fd5b50612e0986828701613b76565b60006020828403121561422057600080fd5b8151610fdf816129d9565b6000606082016001600160a01b038616835260208560070b818501526060604085015281855180845260808601915060808160051b870101935082870160005b8281101561429957607f19888703018452614287868351612324565b9550928401929084019060010161426b565b50939998505050505050505050565b600080604083850312156142bb57600080fd5b82516142c6816127c3565b8092505060208084015167ffffffffffffffff8111156142e557600080fd5b8401601f810186136142f657600080fd5b80516143046129a2826129f2565b81815260059190911b8201830190838101908883111561432357600080fd5b928401925b8284101561434a57835161433b816127c3565b82529284019290840190614328565b80955050505050509250929050565b60006020828403121561436b57600080fd5b815167ffffffffffffffff81111561438257600080fd5b610cd88482850161370e565b6000602082840312156143a057600080fd5b815167ffffffffffffffff808211156143b857600080fd5b9083019060c082860312156143cc57600080fd5b6143d4612907565b8251828111156143e357600080fd5b6143ef87828601613c51565b8252506143fe60208401613703565b602082015261440f604084016136ed565b604082015261442060608401613703565b606082015260808301518281111561443757600080fd5b614443878286016136a8565b60808301525061445560a084016136ed565b60a082015295945050505050565b60006020828403121561447557600080fd5b610fdf82613d76565b600081518084526020808501945080840160005b838110156125a4576144e6878351805160070b825260208101516001600160a01b03808216602085015260408301511515604085015260608301511515606085015280608084015116608085015250505050565b60a0969096019590820190600101614492565b60a08152600061450c60a0830188613eff565b60208760070b818501528660030b60408501528382036060850152614531828761447e565b8481036080860152855180825282870193509082019060005b818110156145bc576145a9838651805160070b8252602081015160070b6020830152604081015160070b6040830152606081015160070b60608301526080810151151560808301526001600160a01b0360a08201511660a08301525050565b9383019360c0929092019160010161454a565b50909a9950505050505050505050565b6000602082840312156145de57600080fd5b8151610fdf816122bb565b6000606082840312156145fb57600080fd5b610fdf8383613878565b60006001600160a01b03808616835280851660208401525060606040830152611a6f6060830184613fdd565b600081518084526020808501945080840160005b838110156125a45781516001600160a01b031687529582019590820190600101614645565b6001600160a01b0383168152604060208201526000610cd86040830184614631565b60608152600061469f6060830186613eff565b90508360070b60208301528260030b6040830152949350505050565b6001600160a01b03851681526080602082015260006146dd6080830186614631565b82810360408401526146ef8186614631565b905082810360608401526147038185613fdd565b979650505050505050565b6060815260006147216060830186613eff565b602083820381850152614734828761447e565b8481036040860152855180825282870193509082019060005b81811015613231576147af838651805160070b8252602081015160070b6020830152604081015160070b604083015260608101516001600160a01b0380821660608501526080830151151560808501528060a08401511660a085015250505050565b9383019360c0929092019160010161474d565b6001600160a01b038316815260808101610fdf6020830184805160070b82526001600160a01b036020820151166020830152604081015160070b60408301525050565b60006020828403121561481757600080fd5b5051919050565b6001600160a01b03841681526060602082015260006148406060830185614631565b82810360408401526114878185613fdd565b602081526000610fdf6020830184613eff565b600060408083016001600160a01b03808716855260208381870152828751808552606094508488019150848160051b890101838a0160005b83811015614929578a8303605f190185528151805184528601518684018a9052805115158a850152808701518816898501528981015160a060808087018290526148ea60e0880184612324565b92508b840151603f1988850301838901526149058482612324565b91909401518b1660c09790970196909652505050938501939085019060010161489d565b50909b9a5050505050505050505050565b60008260030b8260030b028060030b915080821461496857634e487b7160e01b600052601160045260246000fd5b5092915050565b634e487b7160e01b600052603260045260246000fdfea264697066735822122014135808524d43e36122285d301a7a6096e4b7350c31199fc26b3aece7c47eb064736f6c63430008130033",
  "linkReferences": {
    "contracts/safe-hts-precompile/SafeHTS.sol": {
      "SafeHTS": [
        {
          "length": 20,
          "start": 2343
        },
        {
          "length": 20,
          "start": 2551
        },
        {
          "length": 20,
          "start": 2672
        },
        {
          "length": 20,
          "start": 2834
        },
        {
          "length": 20,
          "start": 2958
        },
        {
          "length": 20,
          "start": 3087
        },
        {
          "length": 20,
          "start": 3159
        },
        {
          "length": 20,
          "start": 3211
        },
        {
          "length": 20,
          "start": 3366
        },
        {
          "length": 20,
          "start": 3415
        },
        {
          "length": 20,
          "start": 3492
        },
        {
          "length": 20,
          "start": 3652
        },
        {
          "length": 20,
          "start": 3752
        },
        {
          "length": 20,
          "start": 3997
        },
        {
          "length": 20,
          "start": 4148
        },
        {
          "length": 20,
          "start": 4223
        },
        {
          "length": 20,
          "start": 4374
        },
        {
          "length": 20,
          "start": 4491
        },
        {
          "length": 20,
          "start": 4633
        },
        {
          "length": 20,
          "start": 4715
        },
        {
          "length": 20,
          "start": 4846
        },
        {
          "length": 20,
          "start": 4996
        },
        {
          "length": 20,
          "start": 5172
        },
        {
          "length": 20,
          "start": 5352
        },
        {
          "length": 20,
          "start": 5461
        },
        {
          "length": 20,
          "start": 5520
        },
        {
          "length": 20,
          "start": 5662
        },
        {
          "length": 20,
          "start": 5855
        },
        {
          "length": 20,
          "start": 5939
        },
        {
          "length": 20,
          "start": 5988
        },
        {
          "length": 20,
          "start": 6060
        },
        {
          "length": 20,
          "start": 6127
        },
        {
          "length": 20,
          "start": 6199
        },
        {
          "length": 20,
          "start": 6276
        },
        {
          "length": 20,
          "start": 6408
        },
        {
          "length": 20,
          "start": 6586
        },
        {
          "length": 20,
          "start": 6823
        },
        {
          "length": 20,
          "start": 6914
        },
        {
          "length": 20,
          "start": 7023
        },
        {
          "length": 20,
          "start": 7097
        },
        {
          "length": 20,
          "start": 7164
        },
        {
          "length": 20,
          "start": 7331
        },
        {
          "length": 20,
          "start": 7485
        },
        {
          "length": 20,
          "start": 7557
        },
        {
          "length": 20,
          "start": 7606
        }
      ]
    }
  },
  "deployedLinkReferences": {
    "contracts/safe-hts-precompile/SafeHTS.sol": {
      "SafeHTS": [
        {
          "length": 20,
          "start": 2311
        },
        {
          "length": 20,
          "start": 2519
        },
        {
          "length": 20,
          "start": 2640
        },
        {
          "length": 20,
          "start": 2802
        },
        {
          "length": 20,
          "start": 2926
        },
        {
          "length": 20,
          "start": 3055
        },
        {
          "length": 20,
          "start": 3127
        },
        {
          "length": 20,
          "start": 3179
        },
        {
          "length": 20,
          "start": 3334
        },
        {
          "length": 20,
          "start": 3383
        },
        {
          "length": 20,
          "start": 3460
        },
        {
          "length": 20,
          "start": 3620
        },
        {
          "length": 20,
          "start": 3720
        },
        {
          "length": 20,
          "start": 3965
        },
        {
          "length": 20,
          "start": 4116
        },
        {
          "length": 20,
          "start": 4191
        },
        {
          "length": 20,
          "start": 4342
        },
        {
          "length": 20,
          "start": 4459
        },
        {
          "length": 20,
          "start": 4601
        },
        {
          "length": 20,
          "start": 4683
        },
        {
          "length": 20,
          "start": 4814
        },
        {
          "length": 20,
          "start": 4964
        },
        {
          "length": 20,
          "start": 5140
        },
        {
          "length": 20,
          "start": 5320
        },
        {
          "length": 20,
          "start": 5429
        },
        {
          "length": 20,
          "start": 5488
        },
        {
          "length": 20,
          "start": 5630
        },
        {
          "length": 20,
          "start": 5823
        },
        {
          "length": 20,
          "start": 5907
        },
        {
          "length": 20,
          "start": 5956
        },
        {
          "length": 20,
          "start": 6028
        },
        {
          "length": 20,
          "start": 6095
        },
        {
          "length": 20,
          "start": 6167
        },
        {
          "length": 20,
          "start": 6244
        },
        {
          "length": 20,
          "start": 6376
        },
        {
          "length": 20,
          "start": 6554
        },
        {
          "length": 20,
          "start": 6791
        },
        {
          "length": 20,
          "start": 6882
        },
        {
          "length": 20,
          "start": 6991
        },
        {
          "length": 20,
          "start": 7065
        },
        {
          "length": 20,
          "start": 7132
        },
        {
          "length": 20,
          "start": 7299
        },
        {
          "length": 20,
          "start": 7453
        },
        {
          "length": 20,
          "start": 7525
        },
        {
          "length": 20,
          "start": 7574
        }
      ]
    }
  }
}