{
  "_format": "hh-sol-artifact-1",
  "contractName": "TokenCreateCustomContract",
  "sourceName": "contracts/hts-precompile/examples/token-create/TokenCreateCustom.sol",
  "abi": [
    {
      "anonymous": false,
      "inputs": [
        {
          "indexed": false,
          "internalType": "bool",
          "name": "",
          "type": "bool"
        },
        {
          "indexed": false,
          "internalType": "bytes",
          "name": "",
          "type": "bytes"
        }
      ],
      "name": "CallResponseEvent",
      "type": "event"
    },
    {
      "anonymous": false,
      "inputs": [
        {
          "indexed": false,
          "internalType": "address",
          "name": "tokenAddress",
          "type": "address"
        }
      ],
      "name": "CreatedToken",
      "type": "event"
    },
    {
      "anonymous": false,
      "inputs": [
        {
          "indexed": false,
          "internalType": "int256",
          "name": "responseCode",
          "type": "int256"
        }
      ],
      "name": "ResponseCode",
      "type": "event"
    },
    {
      "inputs": [
        {
          "internalType": "string",
          "name": "name",
          "type": "string"
        },
        {
          "internalType": "string",
          "name": "symbol",
          "type": "string"
        },
        {
          "internalType": "string",
          "name": "memo",
          "type": "string"
        },
        {
          "internalType": "int64",
          "name": "initialTotalSupply",
          "type": "int64"
        },
        {
          "internalType": "int64",
          "name": "maxSupply",
          "type": "int64"
        },
        {
          "internalType": "int32",
          "name": "decimals",
          "type": "int32"
        },
        {
          "internalType": "bool",
          "name": "freezeDefaultStatus",
          "type": "bool"
        },
        {
          "internalType": "address",
          "name": "treasury",
          "type": "address"
        },
        {
          "internalType": "bytes",
          "name": "key",
          "type": "bytes"
        }
      ],
      "name": "createFungibleTokenPublic",
      "outputs": [],
      "stateMutability": "payable",
      "type": "function"
    },
    {
      "inputs": [
        {
          "internalType": "address",
          "name": "token",
          "type": "address"
        },
        {
          "internalType": "bytes",
          "name": "encodedFunctionSelector",
          "type": "bytes"
        }
      ],
      "name": "redirectForToken",
      "outputs": [],
      "stateMutability": "nonpayable",
      "type": "function"
    },
    {
      "inputs": [
        {
          "internalType": "address",
          "name": "token",
          "type": "address"
        },
        {
          "internalType": "address",
          "name": "from",
          "type": "address"
        },
        {
          "internalType": "address",
          "name": "to",
          "type": "address"
        },
        {
          "internalType": "uint256",
          "name": "amount",
          "type": "uint256"
        }
      ],
      "name": "transferFrom",
      "outputs": [
        {
          "internalType": "int64",
          "name": "responseCode",
          "type": "int64"
        }
      ],
      "stateMutability": "nonpayable",
      "type": "function"
    },
    {
      "inputs": [
        {
          "internalType": "address",
          "name": "token",
          "type": "address"
        },
        {
          "internalType": "address",
          "name": "from",
          "type": "address"
        },
        {
          "internalType": "address",
          "name": "to",
          "type": "address"
        },
        {
          "internalType": "uint256",
          "name": "serialNumber",
          "type": "uint256"
        }
      ],
      "name": "transferFromNFT",
      "outputs": [
        {
          "internalType": "int64",
          "name": "responseCode",
          "type": "int64"
        }
      ],
      "stateMutability": "nonpayable",
      "type": "function"
    }
  ],
  "bytecode": "0x608060405234801561001057600080fd5b50600160208181527fa6eef7e35abe7026729641147f7915573c7e97b47efa546f5f6e3230263bcb499190915560027fcc69885fda6bcc1a4ace058b4a62bf5e179ea78fd58a1ccd71c22cc9b688792f5560047fd9d16d34ffb15ba3a3d852f0d403e2ce1d691fb54de27ac87cd2f993f3ec330f5560087f7dfe757ecd65cbd7922a9c0161e935dd7fdbcc0e999689c7d31633896b1fc60b5560107fedc95719e9a3b28dd8e80877cb5880a9be7de1a13fc8b05e7999683b6b567643557fe2689cd4a84e23ad2f564004f1c9013e9589d260bde6380aba3ca7e09e4df40c55600660005260407f8f331abe73332f95a25873e8b430885974c0409691f89d643119a11623a7924a55610e05806101276000396000f3fe60806040526004361061003f5760003560e01c806315dacbea14610044578063618dc65e1461007b5780639b23d3d91461009d578063f7bddff8146100bd575b600080fd5b34801561005057600080fd5b5061006461005f366004610828565b6100d0565b60405160079190910b815260200160405180910390f35b34801561008757600080fd5b5061009b61009636600461091c565b6101c4565b005b3480156100a957600080fd5b506100646100b8366004610828565b6102b2565b61009b6100cb3660046109a8565b6102f7565b6040516001600160a01b038581166024830152848116604483015283166064820152608481018290526000908190819061016790630aed65f560e11b9060a4015b60408051601f198184030181529181526020820180516001600160e01b03166001600160e01b031990941693909317909252905161014f9190610acd565b6000604051808303816000865af19150503d806000811461018c576040519150601f19603f3d011682016040523d82523d6000602084013e610191565b606091505b5091509150816101a25760156101b6565b808060200190518101906101b69190610ae9565b60030b979650505050505050565b6000806101676001600160a01b031663618dc65e60e01b85856040516024016101ee929190610b39565b60408051601f198184030181529181526020820180516001600160e01b03166001600160e01b031990941693909317909252905161022c9190610acd565b6000604051808303816000865af19150503d8060008114610269576040519150601f19603f3d011682016040523d82523d6000602084013e61026e565b606091505b50915091507f4af4780e06fe8cb9df64b0794fa6f01399af979175bb988e35e0e57e594567bc82826040516102a4929190610b63565b60405180910390a150505050565b6040516001600160a01b038581166024830152848116604483015283166064820152608481018290526000908190819061016790639b23d3d960e01b9060a401610111565b60408051600580825260c08201909252600091816020015b6103176107a3565b81526020019060019003908161030f57905050905061033960066003846104f5565b8160008151811061034c5761034c610b7e565b602002602001018190525061036460016003846104f5565b8160018151811061037757610377610b7e565b602002602001018190525061038f60026003846104f5565b816002815181106103a2576103a2610b7e565b60200260200101819052506103ba60046003846104f5565b816003815181106103cd576103cd610b7e565b60200260200101819052506103e4600380846104f5565b816004815181106103f7576103f7610b7e565b602002602001018190525060006040518060600160405280600060070b8152602001856001600160a01b03168152602001627a120060070b815250905060006040518061012001604052808d81526020018c8152602001866001600160a01b031681526020018b81526020016001151581526020018960070b81526020018715158152602001848152602001838152509050600080610497838c8b61052a565b9092509050601682146104a957600080fd5b6040516001600160a01b03821681527f7bb17726df1f3adee8aa00ba8e8bc5d6f182af3bbf77604639cb7f008dd3b4ed9060200160405180910390a15050505050505050505050505050565b6104fd6107a3565b604051806040016040528061051186610652565b81526020016105208585610691565b9052949350505050565b600080848061010001516000015160070b600014801561055457506101008101516040015160070b155b1561056a576101008101516276a7006040909101525b6000806101676001600160a01b031634630fb65bf360e01b8a8a8a60405160240161059793929190610c58565b60408051601f198184030181529181526020820180516001600160e01b03166001600160e01b03199094169390931790925290516105d59190610acd565b60006040518083038185875af1925050503d8060008114610612576040519150601f19603f3d011682016040523d82523d6000602084013e610617565b606091505b50915091508161062a576015600061063e565b8080602001905181019061063e9190610d7f565b60039190910b999098509650505050505050565b60006001600083600681111561066a5761066a610db9565b600681111561067b5761067b610db9565b8152602001908152602001600020549050919050565b6106d76040518060a0016040528060001515815260200160006001600160a01b03168152602001606081526020016060815260200160006001600160a01b031681525090565b60008360048111156106eb576106eb610db9565b036106f9576001815261079d565b600183600481111561070d5761070d610db9565b03610728576000546001600160a01b0316602082015261079d565b600283600481111561073c5761073c610db9565b0361074d576040810182905261079d565b600383600481111561076157610761610db9565b03610772576060810182905261079d565b600483600481111561078657610786610db9565b0361079d576000546001600160a01b031660808201525b92915050565b6040518060400160405280600081526020016107fb6040518060a0016040528060001515815260200160006001600160a01b03168152602001606081526020016060815260200160006001600160a01b031681525090565b905290565b6001600160a01b038116811461081557600080fd5b50565b803561082381610800565b919050565b6000806000806080858703121561083e57600080fd5b843561084981610800565b9350602085013561085981610800565b9250604085013561086981610800565b9396929550929360600135925050565b634e487b7160e01b600052604160045260246000fd5b600082601f8301126108a057600080fd5b813567ffffffffffffffff808211156108bb576108bb610879565b604051601f8301601f19908116603f011681019082821181831017156108e3576108e3610879565b816040528381528660208588010111156108fc57600080fd5b836020870160208301376000602085830101528094505050505092915050565b6000806040838503121561092f57600080fd5b823561093a81610800565b9150602083013567ffffffffffffffff81111561095657600080fd5b6109628582860161088f565b9150509250929050565b8035600781900b811461082357600080fd5b8060030b811461081557600080fd5b80356108238161097e565b8035801515811461082357600080fd5b60008060008060008060008060006101208a8c0312156109c757600080fd5b893567ffffffffffffffff808211156109df57600080fd5b6109eb8d838e0161088f565b9a5060208c0135915080821115610a0157600080fd5b610a0d8d838e0161088f565b995060408c0135915080821115610a2357600080fd5b610a2f8d838e0161088f565b9850610a3d60608d0161096c565b9750610a4b60808d0161096c565b9650610a5960a08d0161098d565b9550610a6760c08d01610998565b9450610a7560e08d01610818565b93506101008c0135915080821115610a8c57600080fd5b50610a998c828d0161088f565b9150509295985092959850929598565b60005b83811015610ac4578181015183820152602001610aac565b50506000910152565b60008251610adf818460208701610aa9565b9190910192915050565b600060208284031215610afb57600080fd5b8151610b068161097e565b9392505050565b60008151808452610b25816020860160208601610aa9565b601f01601f19169290920160200192915050565b6001600160a01b0383168152604060208201526000610b5b6040830184610b0d565b949350505050565b8215158152604060208201526000610b5b6040830184610b0d565b634e487b7160e01b600052603260045260246000fd5b600081518084526020808501808196508360051b8101915082860160005b85811015610c4b5782840389528151604081518652868201519150808787015281511515818701528682015160606001600160a01b03808316828a015283850151935060a09250608083818b0152610c0d60e08b0186610b0d565b928601518a8403603f1901858c0152929450610c298584610b0d565b9501511660c09890980197909752505098850198935090840190600101610bb2565b5091979650505050505050565b6060815260008451610160806060850152610c776101c0850183610b0d565b91506020870151605f1980868503016080870152610c958483610b0d565b935060408901519150610cb360a08701836001600160a01b03169052565b60608901519150808685030160c0870152610cce8483610b0d565b935060808901519150610ce560e087018315159052565b60a08901519150610100610cfd8188018460070b9052565b60c08a0151151561012088015260e08a015187860383016101408901529250610d268584610b94565b9450808a015192505050610d6282860182805160070b82526001600160a01b036020820151166020830152604081015160070b60408301525050565b5050600785900b60208401529050610b5b604083018460030b9052565b60008060408385031215610d9257600080fd5b8251610d9d8161097e565b6020840151909250610dae81610800565b809150509250929050565b634e487b7160e01b600052602160045260246000fdfea2646970667358221220dae55cb94f8ec7eca179d81e3aab95b8ca6d589d2877493ce3911574c6c6566b64736f6c63430008130033",
  "linkReferences": {},
  "deployedLinkReferences": {}
}